:1000000041EC04F023EF0CF01000016A4D0EC26EBB
:10001000828482828290C282C2B2FED7C4CF21F093
:1000200082808292C282C2B2FED7C4CF22F0828284
:100030008294C282C2B2FED7C4CF23F08284490E1A
:10004000C26E828482828290C282C2B2FED7C4CF44
:1000500024F082808292C282C2B2FED7C4CF25F041
:1000600082828294C282C2B2FED7C4CF26F082843A
:10007000450EC26E828482828290C282C2B2FED754
:10008000C4CF27F082808292C282C2B2FED7C4CF90
:1000900028F082828294C282C2B2FED7C4CF29F0F5
:1000A00082845D0EC26E828482828290C282C2B2DB
:1000B000FED7C4CF2AF082808292C282C2B2FED71B
:1000C000C4CF2BF082828294C282C2B2FED7C4CF48
:1000D0002CF08284590EC26E828482828290C28207
:1000E000C2B2FED7C4CF2DF082808292C282C2B249
:1000F000FED7C4CF2EF082828294C282C2B2FED7D3
:10010000C4CF2FF082840001040E076F30C0E8FFD7
:10011000216001D004D031C0E8FF216401D015D0A6
:1001200032C0E8FF226001D004D033C0E8FF22646F
:1001300001D00BD034C0E8FF236001D004D035C01B
:10014000E8FF236401D001D083D007073CC0E8FF5B
:10015000216001D004D03DC0E8FF216401D015D05A
:100160003EC0E8FF226001D004D03FC0E8FF226417
:1001700001D00BD040C0E8FF236001D004D041C0C3
:10018000E8FF236401D001D063D0070742C0E8FF35
:10019000216001D004D043C0E8FF216401D015D014
:1001A00044C0E8FF226001D004D045C0E8FF2264CB
:1001B00001D00BD046C0E8FF236001D004D047C077
:1001C000E8FF236401D001D043D0070736C0E8FF21
:1001D000216001D004D037C0E8FF216401D015D0E0
:1001E00038C0E8FF226001D004D039C0E8FF2264A3
:1001F00001D00BD03AC0E8FF236001D004D03BC04F
:10020000E8FF236401D001D023D0070748C0E8FFEE
:10021000216001D004D049C0E8FF216401D015D08D
:100220004AC0E8FF226001D004D04BC0E8FF22643E
:1002300001D00BD04CC0E8FF236001D004D04DC0EA
:10024000E8FF236401D001D003D0450E076F00D032
:100250000590000E076201D0012A08C0E8FF07627E
:1002600001D005800001040E076F4EC0E8FF246036
:1002700001D004D04FC0E8FF246401D015D050C095
:10028000E8FF256001D004D051C0E8FF256401D00B
:100290000BD052C0E8FF266001D004D053C0E8FF65
:1002A000266401D001D083D007075AC0E8FF24603C
:1002B00001D004D05BC0E8FF246401D015D05CC03D
:1002C000E8FF256001D004D05DC0E8FF256401D0BF
:1002D0000BD05EC0E8FF266001D004D05FC0E8FF0D
:1002E000266401D001D063D0070760C0E8FF246016
:1002F00001D004D061C0E8FF246401D015D062C0F1
:10030000E8FF256001D004D063C0E8FF256401D078
:100310000BD064C0E8FF266001D004D065C0E8FFC0
:10032000266401D001D043D0070754C0E8FF246001
:1003300001D004D055C0E8FF246401D015D056C0C8
:10034000E8FF256001D004D057C0E8FF256401D044
:100350000BD058C0E8FF266001D004D059C0E8FF98
:10036000266401D001D023D0070766C0E8FF2460CF
:1003700001D004D067C0E8FF246401D015D068C064
:10038000E8FF256001D004D069C0E8FF256401D0F2
:100390000BD06AC0E8FF266001D004D06BC0E8FF34
:1003A000266401D001D003D0450E076F00D005921E
:1003B000000E076201D0012A08C0E8FF076201D0E1
:1003C00005820001040E076F6CC0E8FF276001D0B2
:1003D00004D06DC0E8FF276401D015D06EC0E8FFDF
:1003E000286001D004D06FC0E8FF286401D00BD092
:1003F00070C0E8FF296001D004D071C0E8FF296413
:1004000001D001D083D0070778C0E8FF276001D072
:1004100004D079C0E8FF276401D015D07AC0E8FF86
:10042000286001D004D07BC0E8FF286401D00BD045
:100430007CC0E8FF296001D004D07DC0E8FF2964BA
:1004400001D001D063D007077EC0E8FF276001D04C
:1004500004D07FC0E8FF276401D015D080C0E8FF3A
:10046000286001D004D081C0E8FF286401D00BD0FF
:1004700082C0E8FF296001D004D083C0E8FF29646E
:1004800001D001D043D0070772C0E8FF276001D038
:1004900004D073C0E8FF276401D015D074C0E8FF12
:1004A000286001D004D075C0E8FF286401D00BD0CB
:1004B00076C0E8FF296001D004D077C0E8FF296446
:1004C00001D001D023D0070784C0E8FF276001D006
:1004D00004D085C0E8FF276401D015D086C0E8FFAE
:1004E000286001D004D087C0E8FF286401D00BD079
:1004F00088C0E8FF296001D004D089C0E8FF2964E2
:1005000001D001D003D0450E076F00D00594000E36
:10051000076201D0012A08C0E8FF076201D0058404
:100520000001040E076F8AC0E8FF2A6001D004D0E2
:100530008BC0E8FF2A6401D015D08CC0E8FF2B6087
:1005400001D004D08DC0E8FF2B6401D00BD08EC049
:10055000E8FF2C6001D004D08FC0E8FF2C6401D0EC
:1005600001D083D0070796C0E8FF2A6001D004D0ED
:1005700097C0E8FF2A6401D015D098C0E8FF2B602F
:1005800001D004D099C0E8FF2B6401D00BD09AC0F1
:10059000E8FF2C6001D004D09BC0E8FF2C6401D0A0
:1005A00001D063D007079CC0E8FF2A6001D004D0C7
:1005B0009DC0E8FF2A6401D015D09EC0E8FF2B60E3
:1005C00001D004D09FC0E8FF2B6401D00BD0A0C0A5
:1005D000E8FF2C6001D004D0A1C0E8FF2C6401D05A
:1005E00001D043D0070790C0E8FF2A6001D004D0B3
:1005F00091C0E8FF2A6401D015D092C0E8FF2B60BB
:1006000001D004D093C0E8FF2B6401D00BD094C07C
:10061000E8FF2C6001D004D095C0E8FF2C6401D025
:1006200001D023D00707A2C0E8FF2A6001D004D080
:10063000A3C0E8FF2A6401D015D0A4C0E8FF2B6056
:1006400001D004D0A5C0E8FF2B6401D00BD0A6C018
:10065000E8FF2C6001D004D0A7C0E8FF2C6401D0D3
:1006600001D003D0450E076F00D00596000E07623B
:1006700001D0012A08C0E8FF076201D00586000109
:10068000040E076FA8C0E8FF2D6001D004D0A9C0F8
:10069000E8FF2D6401D015D0AAC0E8FF2E6001D07C
:1006A00004D0ABC0E8FF2E6401D00BD0ACC0E8FF93
:1006B0002F6001D004D0ADC0E8FF2F6401D001D07D
:1006C00083D00707B4C0E8FF2D6001D004D0B5C0C7
:1006D000E8FF2D6401D015D0B6C0E8FF2E6001D030
:1006E00004D0B7C0E8FF2E6401D00BD0B8C0E8FF3B
:1006F0002F6001D004D0B9C0E8FF2F6401D001D031
:1007000063D00707BAC0E8FF2D6001D004D0BBC09A
:10071000E8FF2D6401D015D0BCC0E8FF2E6001D0E9
:1007200004D0BDC0E8FF2E6401D00BD0BEC0E8FFEE
:100730002F6001D004D0BFC0E8FF2F6401D001D0EA
:1007400043D00707AEC0E8FF2D6001D004D0AFC092
:10075000E8FF2D6401D015D0B0C0E8FF2E6001D0B5
:1007600004D0B1C0E8FF2E6401D00BD0B2C0E8FFC6
:100770002F6001D004D0B3C0E8FF2F6401D001D0B6
:1007800023D00707C0C0E8FF2D6001D004D0C1C04E
:10079000E8FF2D6401D015D0C2C0E8FF2E6001D063
:1007A00004D0C3C0E8FF2E6401D00BD0C4C0E8FF62
:1007B0002F6001D004D0C5C0E8FF2F6401D001D064
:1007C00003D0450E076F00D00598000E076201D0D8
:1007D000012A08C0E8FF076201D00588050E016202
:1007E00001D044D005C00EF005B009D005B81DD029
:1007F00005B210D005B624D005B42DD006D40F0113
:10080000000E676FFA0E5E6F000E586F000E556F88
:100810000001FBD30F01000E676FAD0E5E6F000E7F
:10082000586F000E556F0001F0D30F01FA0E676F7D
:10083000000E5E6F000E586F000E556F0001E5D37D
:100840000F01AD0E676F000E5E6F000E586F000E49
:10085000556F0001DAD30F01BA0E676FBA0E5E6FE3
:10086000000E586F000E556F0001CFD30F01000E20
:10087000676F000E5E6F000E586F000E556F00011F
:10088000C4D30F010E6A806A896A000E386F000EA9
:10089000926F816A8A6A200E396FE60E936F826AC0
:1008A0008B6AE00E3A6FF80E946F836A8C6A0C0EB6
:1008B0003B6FCC0E956F846A8D6A000E3C6E000E05
:1008C000966E740ED36E3A0EC06E000EC16E3D0E63
:1008D000C26E496B486BF90EBB6F000E676F000E5E
:1008E0005E6F000E586F000E556F3C0E666F5D6FA9
:1008F000576F546F040EBA6F010E3E6EF28FF28C7A
:1009000000011200806A490E806EEBEC0BF010ECD7
:100910000BF0200E216103D0000E306F04D021C0F7
:1009200030F0200E305FDF0E216503D0FF0E316FF7
:1009300004D021C031F0200E3127200E226103D0D7
:10094000000E326F04D022C032F0200E325FDF0E74
:10095000226503D0FF0E336F04D022C033F0200E87
:100960003327200E236103D0000E346F04D023C040
:1009700034F0200E345FDF0E236503D0FF0E356F99
:1009800004D023C035F0200E3527200E246103D07B
:10099000000E4E6F04D024C04EF0200E4E5FDF0ECE
:1009A000246503D0FF0E4F6F04D024C04FF0200EFB
:1009B0004F27200E256103D0000E506F04D025C0B4
:1009C00050F0200E505FDF0E256503D0FF0E516FF3
:1009D00004D025C051F0200E5127200E266103D0EF
:1009E000000E526F04D026C052F0200E525FDF0E70
:1009F000266503D0FF0E536F04D026C053F0200E9F
:100A00005327200E276103D0000E6C6F04D027C03F
:100A10006CF0200E6C5FDF0E276503D0FF0E6D6F4C
:100A200004D027C06DF0200E6D27200E286103D062
:100A3000000E6E6F04D028C06EF0200E6E5FDF0EC9
:100A4000286503D0FF0E6F6F04D028C06FF0200E12
:100A50006F27200E296103D0000E706F04D029C0CB
:100A600070F0200E705FDF0E296503D0FF0E716FEE
:100A700004D029C071F0200E7127200E2A6103D006
:100A8000000E8A6F04D02AC08AF0200E8A5FDF0E23
:100A90002A6503D0FF0E8B6F04D02AC08BF0200E86
:100AA0008B27200E2B6103D0000E8C6F04D02BC03F
:100AB0008CF0200E8C5FDF0E2B6503D0FF0E8D6F48
:100AC00004D02BC08DF0200E8D27200E2C6103D07A
:100AD000000E8E6F04D02CC08EF0200E8E5FDF0EC5
:100AE0002C6503D0FF0E8F6F04D02CC08FF0200E2A
:100AF0008F27200E2D6103D0000EA86F04D02DC0CB
:100B0000A8F0200EA85FDF0E2D6503D0FF0EA96FA1
:100B100004D02DC0A9F0200EA927200E2E6103D0ED
:100B2000000EAA6F04D02EC0AAF0200EAA5FDF0E1E
:100B30002E6503D0FF0EAB6F04D02EC0ABF0200E9D
:100B4000AB27200E2F6103D0000EAC6F04D02FC056
:100B5000ACF0200EAC5FDF0E2F6503D0FF0EAD6F43
:100B600004D02FC0ADF0200EAD27030E016E490E4C
:100B7000806E830ED56E600ED76EAA0ED66EF2947E
:100B8000D58EF2A4FDD7D59E806A830ED56E600EF9
:100B9000D76EAA0ED66EF294D58EF2A4FDD7D59E4E
:100BA000012EE5D76F0E806EEBEC0BF010EC0BF026
:100BB000200E216103D0000E3C6F04D021C03CF018
:100BC000200E3C5FDF0E216503D0FF0E3D6F04D089
:100BD00021C03DF0200E3D27200E226103D0000EE3
:100BE0003E6F04D022C03EF0200E3E5FDF0E226535
:100BF00003D0FF0E3F6F04D022C03FF0200E3F27EE
:100C0000200E236103D0000E406F04D023C040F0BB
:100C1000200E405FDF0E236503D0FF0E416F04D02E
:100C200023C041F0200E4127200E246103D0000E86
:100C30005A6F04D024C05AF0200E5A5FDF0E24658C
:100C400003D0FF0E5B6F04D024C05BF0200E5B2747
:100C5000200E256103D0000E5C6F04D025C05CF02F
:100C6000200E5C5FDF0E256503D0FF0E5D6F04D0A4
:100C700025C05DF0200E5D27200E266103D0000EFA
:100C80005E6F04D026C05EF0200E5E5FDF0E26652C
:100C900003D0FF0E5F6F04D026C05FF0200E5F27E9
:100CA000200E276103D0000E786F04D027C078F0A3
:100CB000200E785FDF0E276503D0FF0E796F04D01A
:100CC00027C079F0200E7927200E286103D0000E6E
:100CD0007A6F04D028C07AF0200E7A5FDF0E286584
:100CE00003D0FF0E7B6F04D028C07BF0200E7B2743
:100CF000200E296103D0000E7C6F04D029C07CF047
:100D0000200E7C5FDF0E296503D0FF0E7D6F04D0BF
:100D100029C07DF0200E7D27200E2A6103D0000E11
:100D2000966F04D02AC096F0200E965FDF0E2A65DB
:100D300003D0FF0E976F04D02AC097F0200E97279C
:100D4000200E2B6103D0000E986F04D02BC098F0BA
:100D5000200E985FDF0E2B6503D0FF0E996F04D035
:100D60002BC099F0200E9927200E2C6103D0000E85
:100D70009A6F04D02CC09AF0200E9A5FDF0E2C657B
:100D800003D0FF0E9B6F04D02CC09BF0200E9B273E
:100D9000200E2D6103D0000EB46F04D02DC0B4F02E
:100DA000200EB45FDF0E2D6503D0FF0EB56F04D0AB
:100DB0002DC0B5F0200EB527200E2E6103D0000EF9
:100DC000B66F04D02EC0B6F0200EB65FDF0E2E65D3
:100DD00003D0FF0EB76F04D02EC0B7F0200EB72798
:100DE000200E2F6103D0000EB86F04D02FC0B8F0D2
:100DF000200EB85FDF0E2F6503D0FF0EB96F04D051
:100E00002FC0B9F0200EB927030E016E6F0E806E51
:100E1000830ED56E600ED76EAA0ED66EF294D58E66
:100E2000F2A4FDD7D59E806A830ED56E600ED76E74
:100E3000AA0ED66EF294D58EF2A4FDD7D59E012EC1
:100E4000E5D77C0E806EEBEC0BF010EC0BF0200E77
:100E5000216103D0000E426F04D021C042F0200E69
:100E6000425FDF0E216503D0FF0E436F04D021C027
:100E700043F0200E4327200E226103D0000E446F62
:100E800004D022C044F0200E445FDF0E226503D060
:100E9000FF0E456F04D022C045F0200E4527200EDE
:100EA000236103D0000E466F04D023C046F0200E0D
:100EB000465FDF0E236503D0FF0E476F04D023C0CB
:100EC00047F0200E4727200E246103D0000E606FEC
:100ED00004D024C060F0200E605FDF0E246503D0D4
:100EE000FF0E616F04D024C061F0200E6127200E38
:100EF000256103D0000E626F04D025C062F0200E81
:100F0000625FDF0E256503D0FF0E636F04D025C03E
:100F100063F0200E6327200E266103D0000E646F5D
:100F200004D026C064F0200E645FDF0E266503D077
:100F3000FF0E656F04D026C065F0200E6527200ED9
:100F4000276103D0000E7E6F04D027C07EF0200EF4
:100F50007E5FDF0E276503D0FF0E7F6F04D027C0B2
:100F60007FF0200E7F27200E286103D0000E806FB7
:100F700004D028C080F0200E805FDF0E286503D0EB
:100F8000FF0E816F04D028C081F0200E8127200E33
:100F9000296103D0000E826F04D029C082F0200E98
:100FA000825FDF0E296503D0FF0E836F04D029C056
:100FB00083F0200E8327200E2A6103D0000E9C6F41
:100FC00004D02AC09CF0200E9C5FDF0E2A6503D05F
:100FD000FF0E9D6F04D02AC09DF0200E9D27200E8D
:100FE0002B6103D0000E9E6F04D02BC09EF0200E0C
:100FF0009E5FDF0E2B6503D0FF0E9F6F04D02BC0CA
:101000009FF0200E9F27200E2C6103D0000EA06FB2
:1010100004D02CC0A0F0200EA05FDF0E2C6503D002
:10102000FF0EA16F04D02CC0A1F0200EA127200E2E
:101030002D6103D0000EBA6F04D02DC0BAF0200E7F
:10104000BA5FDF0E2D6503D0FF0EBB6F04D02DC03D
:10105000BBF0200EBB27200E2E6103D0000EBC6F0C
:1010600004D02EC0BCF0200EBC5FDF0E2E6503D076
:10107000FF0EBD6F04D02EC0BDF0200EBD27200E88
:101080002F6103D0000EBE6F04D02FC0BEF0200E23
:10109000BE5FDF0E2F6503D0FF0EBF6F04D02FC0E1
:1010A000BFF0200EBF27030E016E7C0E806E830EF4
:1010B000D56E600ED76EAA0ED66EF294D58EF2A4BF
:1010C000FDD7D59E806A830ED56E600ED76EAA0EB0
:1010D000D66EF294D58EF2A4FDD7D59E012EE5D71B
:1010E000700E806EEBEC0BF010EC0BF0200E21611B
:1010F00003D0000E486F04D021C048F0200E485F96
:10110000DF0E216503D0FF0E496F04D021C049F0E6
:10111000200E4927200E226103D0000E4A6F04D012
:1011200022C04AF0200E4A5FDF0E226503D0FF0E78
:101130004B6F04D022C04BF0200E4B27200E2361B2
:1011400003D0000E4C6F04D023C04CF0200E4C5F37
:10115000DF0E236503D0FF0E4D6F04D023C04DF08A
:10116000200E4D27200E246103D0000E666F04D0A0
:1011700024C066F0200E665FDF0E246503D0FF0EEC
:10118000676F04D024C067F0200E6727200E25610A
:1011900003D0000E686F04D025C068F0200E685F91
:1011A000DF0E256503D0FF0E696F04D025C069F0FE
:1011B000200E6927200E266103D0000E6A6F04D02E
:1011C00026C06AF0200E6A5FDF0E266503D0FF0E90
:1011D0006B6F04D026C06BF0200E6B27200E2761AA
:1011E00003D0000E846F04D027C084F0200E845FEB
:1011F000DF0E276503D0FF0E856F04D027C085F072
:10120000200E8527200E286103D0000E866F04D0A3
:1012100028C086F0200E865FDF0E286503D0FF0E03
:10122000876F04D028C087F0200E8727200E296101
:1012300003D0000E886F04D029C088F0200E885F8C
:10124000DF0E296503D0FF0E896F04D029C089F015
:10125000200E8927200E2A6103D0000EA26F04D031
:101260002AC0A2F0200EA25FDF0E2A6503D0FF0E77
:10127000A36F04D02AC0A3F0200EA327200E2B6159
:1012800003D0000EA46F04D02BC0A4F0200EA45FE6
:10129000DF0E2B6503D0FF0EA56F04D02BC0A5F089
:1012A000200EA527200E2C6103D0000EA66F04D0BF
:1012B0002CC0A6F0200EA65FDF0E2C6503D0FF0E1B
:1012C000A76F04D02CC0A7F0200EA727200E2D61F9
:1012D00003D0000EC06F04D02DC0C0F0200EC05F40
:1012E000DF0E2D6503D0FF0EC16F04D02DC0C1F0FD
:1012F000200EC127200E2E6103D0000EC26F04D035
:101300002EC0C2F0200EC25FDF0E2E6503D0FF0E8E
:10131000C36F04D02EC0C3F0200EC327200E2F6150
:1013200003D0000EC46F04D02FC0C4F0200EC45FE1
:10133000DF0E2F6503D0FF0EC56F04D02FC0C5F0A0
:10134000200EC527030E016E700E806E830ED56EC3
:10135000600ED76EAA0ED66EF294D58EF2A4FDD78B
:10136000D59E806A830ED56E600ED76EAA0ED66E9D
:10137000F294D58EF2A4FDD7D59E012EE5D7500E5E
:10138000806EEBEC0BF010EC0BF0200E216103D023
:10139000000E366F04D021C036F0200E365FDF0E0F
:1013A000216503D0FF0E376F04D021C037F0200E27
:1013B0003727200E226103D0000E386F04D022C0E0
:1013C00038F0200E385FDF0E226503D0FF0E396F34
:1013D00004D022C039F0200E3927200E236103D01B
:1013E000000E3A6F04D023C03AF0200E3A5FDF0EB1
:1013F000236503D0FF0E3B6F04D023C03BF0200ECB
:101400003B27200E246103D0000E546F04D024C06B
:1014100054F0200E545FDF0E246503D0FF0E556F8D
:1014200004D024C055F0200E5527200E256103D08E
:10143000000E566F04D025C056F0200E565FDF0E0A
:10144000256503D0FF0E576F04D025C057F0200E3E
:101450005727200E266103D0000E586F04D026C0F7
:1014600058F0200E585FDF0E266503D0FF0E596F2F
:1014700004D026C059F0200E5927200E276103D032
:10148000000E726F04D027C072F0200E725FDF0E64
:10149000276503D0FF0E736F04D027C073F0200EB2
:1014A0007327200E286103D0000E746F04D028C06B
:1014B00074F0200E745FDF0E286503D0FF0E756F89
:1014C00004D028C075F0200E7527200E296103D0A6
:1014D000000E766F04D029C076F0200E765FDF0E06
:1014E000296503D0FF0E776F04D029C077F0200E56
:1014F0007727200E2A6103D0000E906F04D02AC0F7
:1015000090F0200E905FDF0E2A6503D0FF0E916FE2
:1015100004D02AC091F0200E9127200E2B6103D019
:10152000000E926F04D02BC092F0200E925FDF0E5F
:101530002B6503D0FF0E936F04D02BC093F0200EC9
:101540009327200E2C6103D0000E946F04D02CC082
:1015500094F0200E945FDF0E2C6503D0FF0E956F84
:1015600004D02CC095F0200E9527200E2D6103D0BD
:10157000000EAE6F04D02DC0AEF0200EAE5FDF0EB9
:101580002D6503D0FF0EAF6F04D02DC0AFF0200E3D
:10159000AF27200E2E6103D0000EB06F04D02EC0F6
:1015A000B0F0200EB05FDF0E2E6503D0FF0EB16FDE
:1015B00004D02EC0B1F0200EB127200E2F6103D031
:1015C000000EB26F04D02FC0B2F0200EB25FDF0E5B
:1015D0002F6503D0FF0EB36F04D02FC0B3F0200EE1
:1015E000B327030E016E500E806E830ED56E600E13
:1015F000D76EAA0ED66EF294D58EF2A4FDD7D59EE4
:10160000806A830ED56E600ED76EAA0ED66EF294E7
:10161000D58EF2A4FDD7D59E012EE5D7806A1200A3
:101620004D0EC26E828482828290C282C2B2FED786
:10163000C4CF21F082808292C282C2B2FED7C4CFD0
:1016400022F082828294C282C2B2FED7C4CF23F03B
:101650008284490EC26E828482828290C282C2B229
:10166000FED7C4CF24F082808292C282C2B2FED75B
:10167000C4CF25F082828294C282C2B2FED7C4CF88
:1016800026F08284450EC26E828482828290C2825B
:10169000C2B2FED7C4CF27F082808292C282C2B289
:1016A000FED7C4CF28F082828294C282C2B2FED713
:1016B000C4CF29F082845D0EC26E828482828290C1
:1016C000C282C2B2FED7C4CF2AF082808292C28286
:1016D000C2B2FED7C4CF2BF082828294C282C2B241
:1016E000FED7C4CF2CF08284590EC26E82848282CF
:1016F0008290C282C2B2FED7C4CF2DF08280829285
:10170000C282C2B2FED7C4CF2EF082828294C2823D
:10171000C2B2FED7C4CF2FF0828412000F01399BD2
:10172000939B819A830ED56EFD0ED76EDD0ED66E1D
:10173000F294D58EF2A4FDD7D59E818A830ED56E04
:10174000FD0ED76EDD0ED66EF294D58EF2A4FDD7C7
:10175000D59E819A398B938B0001830ED56EF50E41
:10176000D76EFF0ED66EF294D58EF2A4FDD7D59E1D
:10177000C282C2B2FED7C4CF0DF0650E0D6002D09A
:101780000D6A01D00D681200350EC26E830ED56E43
:10179000FD0ED76EDD0ED66EF294D58EF2A4FDD777
:1017A000D59E8EEC0BF012000D6602D0809801D011
:1017B00080881200C4EC0BF00D6601D0FBD7830EBD
:1017C000D56E600ED76EAA0ED66EF294D58EF2A4A8
:1017D000FDD7D59E1200C4EC0BF00D6601D0FBD7EF
:1017E0001200016A81AC01D0018181AE01D0018279
:1017F000000E016203D0000E086E010E016203D0DC
:10180000040E086E1200020E016203D0100E086E64
:101810001200030E016203D0080E086E1200000EC3
:10182000086E1200000E086201D0700C010E0862F2
:1018300001D0500C020E086201D07C0C030E08622D
:1018400001D06F0C3F0C82EC04F0F1EC0BF0EBECF0
:0A1850000BF005EC00F0FDD7FFD708
:020000040030CA
:03000100281F3C79
:02000500BA85BA
:060008000FC00FE00F40E5
:00000001FF
