:100000000CEC05F0E8EF0CF010000B6A0D6A0F6ABB
:10001000106AC1EF04F00F010DC067FF0BC05EFF57
:1000200010C058FF0FC055FF0001016A5D0EC26E7F
:10003000828482828290C282C2B2FED7C4CF2AF06A
:1000400082808292C282C2B2FED7C4CF2BF082825B
:100050008294C282C2B2FED7C4CF2CF08284000147
:10006000040E066F8AC0E8FF2A6001D004D08BC05E
:10007000E8FF2A6401D015D08CC0E8FF2B6001D0C6
:1000800004D08DC0E8FF2B6401D00BD08EC0E8FFF8
:100090002C6001D004D08FC0E8FF2C6401D001D0C7
:1000A00083D0060796C0E8FF2A6001D004D097C02D
:1000B000E8FF2A6401D015D098C0E8FF2B6001D07A
:1000C00004D099C0E8FF2B6401D00BD09AC0E8FFA0
:1000D0002C6001D004D09BC0E8FF2C6401D001D07B
:1000E00063D006079CC0E8FF2A6001D004D09DC001
:1000F000E8FF2A6401D015D09EC0E8FF2B6001D034
:1001000004D09FC0E8FF2B6401D00BD0A0C0E8FF53
:100110002C6001D004D0A1C0E8FF2C6401D001D034
:1001200043D0060790C0E8FF2A6001D004D091C0F8
:10013000E8FF2A6401D015D092C0E8FF2B6001D0FF
:1001400004D093C0E8FF2B6401D00BD094C0E8FF2B
:100150002C6001D004D095C0E8FF2C6401D001D000
:1001600023D00607A2C0E8FF2A6001D004D0A3C0B4
:10017000E8FF2A6401D015D0A4C0E8FF2B6001D0AD
:1001800004D0A5C0E8FF2B6401D00BD0A6C0E8FFC7
:100190002C6001D004D0A7C0E8FF2C6401D001D0AE
:1001A00003D0450E066F00D0000E066201D0012A72
:1001B00007C0E8FF066201D0B1D3490EC26E828447
:1001C00082828290C282C2B2FED7C4CF24F08280E3
:1001D0008292C282C2B2FED7C4CF25F082828294BC
:1001E000C282C2B2FED7C4CF26F082840001040EC0
:1001F000066F4EC0E8FF246001D004D04FC0E8FF76
:10020000246401D015D050C0E8FF256001D004D08F
:1002100051C0E8FF256401D00BD052C0E8FF266032
:1002200001D004D053C0E8FF266401D001D083D0B0
:1002300006075AC0E8FF246001D004D05BC0E8FF85
:10024000246401D015D05CC0E8FF256001D004D043
:100250005DC0E8FF256401D00BD05EC0E8FF2660DA
:1002600001D004D05FC0E8FF266401D001D063D084
:10027000060760C0E8FF246001D004D061C0E8FF39
:10028000246401D015D062C0E8FF256001D004D0FD
:1002900063C0E8FF256401D00BD064C0E8FF26608E
:1002A00001D004D065C0E8FF266401D001D043D05E
:1002B000060754C0E8FF246001D004D055C0E8FF11
:1002C000246401D015D056C0E8FF256001D004D0C9
:1002D00057C0E8FF256401D00BD058C0E8FF266066
:1002E00001D004D059C0E8FF266401D001D023D04A
:1002F000060766C0E8FF246001D004D067C0E8FFAD
:10030000246401D015D068C0E8FF256001D004D076
:1003100069C0E8FF256401D00BD06AC0E8FF266001
:1003200001D004D06BC0E8FF266401D001D003D017
:10033000450E066F00D0000E066201D0012A07C0EC
:10034000E8FF066201D08ED2450EC26E82848282A0
:100350008290C282C2B2FED7C4CF27F0828082923E
:10036000C282C2B2FED7C4CF28F082828294C282F7
:10037000C2B2FED7C4CF29F082840001040E066FFA
:100380006CC0E8FF276001D004D06DC0E8FF27648F
:1003900001D015D06EC0E8FF286001D004D06FC036
:1003A000E8FF286401D00BD070C0E8FF296001D0BD
:1003B00004D071C0E8FF296401D001D083D00607C2
:1003C00078C0E8FF276001D004D079C0E8FF276437
:1003D00001D015D07AC0E8FF286001D004D07BC0DE
:1003E000E8FF286401D00BD07CC0E8FF296001D071
:1003F00004D07DC0E8FF296401D001D063D0060796
:100400007EC0E8FF276001D004D07FC0E8FF2764EA
:1004100001D015D080C0E8FF286001D004D081C091
:10042000E8FF286401D00BD082C0E8FF296001D02A
:1004300004D083C0E8FF296401D001D043D006076F
:1004400072C0E8FF276001D004D073C0E8FF2764C2
:1004500001D015D074C0E8FF286001D004D075C069
:10046000E8FF286401D00BD076C0E8FF296001D0F6
:1004700004D077C0E8FF296401D001D023D006075B
:1004800084C0E8FF276001D004D085C0E8FF27645E
:1004900001D015D086C0E8FF286001D004D087C005
:1004A000E8FF286401D00BD088C0E8FF296001D0A4
:1004B00004D089C0E8FF296401D001D003D0450EE3
:1004C000066F00D0000E066201D0012A07C0E8FFC7
:1004D000066201D056D24D0EC26E82848282829014
:1004E000C282C2B2FED7C4CF21F082808292C28281
:1004F000C2B2FED7C4CF22F082828294C282C2B23C
:10050000FED7C4CF23F082840001040E066F30C0F2
:10051000E8FF216001D004D031C0E8FF216401D0A0
:1005200015D032C0E8FF226001D004D033C0E8FF0C
:10053000226401D00BD034C0E8FF236001D004D086
:1005400035C0E8FF236401D001D083D006073CC04A
:10055000E8FF216001D004D03DC0E8FF216401D054
:1005600015D03EC0E8FF226001D004D03FC0E8FFB4
:10057000226401D00BD040C0E8FF236001D004D03A
:1005800041C0E8FF236401D001D063D0060742C018
:10059000E8FF216001D004D043C0E8FF216401D00E
:1005A00015D044C0E8FF226001D004D045C0E8FF68
:1005B000226401D00BD046C0E8FF236001D004D0F4
:1005C00047C0E8FF236401D001D043D0060736C0FE
:1005D000E8FF216001D004D037C0E8FF216401D0DA
:1005E00015D038C0E8FF226001D004D039C0E8FF40
:1005F000226401D00BD03AC0E8FF236001D004D0C0
:100600003BC0E8FF236401D001D023D0060748C0D7
:10061000E8FF216001D004D049C0E8FF216401D087
:1006200015D04AC0E8FF226001D004D04BC0E8FFDB
:10063000226401D00BD04CC0E8FF236001D004D06D
:100640004DC0E8FF236401D001D003D0450E066FF2
:1006500000D0000E066201D0012A07C0E8FF066242
:1006600001D0D7D0590EC26E828482828290C2821B
:10067000C2B2FED7C4CF2DF082808292C282C2B2B3
:10068000FED7C4CF2EF082828294C282C2B2FED73D
:10069000C4CF2FF082840001040E066FA8C0E8FFCB
:1006A0002D6001D004D0A9C0E8FF2D6401D015D081
:1006B000AAC0E8FF2E6001D004D0ABC0E8FF2E64D2
:1006C00001D00BD0ACC0E8FF2F6001D004D0ADC08A
:1006D000E8FF2F6401D001D083D00607B4C0E8FF43
:1006E0002D6001D004D0B5C0E8FF2D6401D015D035
:1006F000B6C0E8FF2E6001D004D0B7C0E8FF2E647A
:1007000001D00BD0B8C0E8FF2F6001D004D0B9C031
:10071000E8FF2F6401D001D063D00607BAC0E8FF1C
:100720002D6001D004D0BBC0E8FF2D6401D015D0EE
:10073000BCC0E8FF2E6001D004D0BDC0E8FF2E642D
:1007400001D00BD0BEC0E8FF2F6001D004D0BFC0E5
:10075000E8FF2F6401D001D043D00607AEC0E8FF08
:100760002D6001D004D0AFC0E8FF2D6401D015D0BA
:10077000B0C0E8FF2E6001D004D0B1C0E8FF2E6405
:1007800001D00BD0B2C0E8FF2F6001D004D0B3C0BD
:10079000E8FF2F6401D001D023D00607C0C0E8FFD6
:1007A0002D6001D004D0C1C0E8FF2D6401D015D068
:1007B000C2C0E8FF2E6001D004D0C3C0E8FF2E64A1
:1007C00001D00BD0C4C0E8FF2F6001D004D0C5C059
:1007D000E8FF2F6401D001D003D0450E066F00D092
:1007E000000E066201D0012A07C0E8FF066201D0B0
:1007F0006CD0050E016201D0EDD009B80AD009B65F
:1008000031D009B4BED009B289D009B05ED00BEFA7
:1008100000F0096A0988116A000E0F6407D03C0EC7
:100820000F6002D00F6A01D00F5E08D03C0E0B643F
:1008300003D0780E0B6E02D03C0E0B26000E0D641A
:1008400007D03C0E0D6002D00D6A01D00D5E08D0BD
:100850003C0E106403D0780E106E02D03C0E1026B1
:100860000BEF00F0096A0986116A000E106407D0C8
:100870005A0E106002D0106A01D0105E12D07F0EA6
:100880000D6009D01E0E0D6403D0780E0D6E02D0DF
:100890005A0E0D2606D05A0E0D6002D00D6A01D0F8
:1008A0000D5E000E0F6407D03C0E0F6002D00F6A81
:1008B00001D00F5E08D0780E0B6403D0B40E0B6E1F
:1008C00002D03C0E0B260BEF00F0096A0980116A7A
:1008D000000E0B6407D03C0E0B6002D00B6A01D0F7
:1008E0000B5EACD73C0E0F6403D0780E0F6E02D0B7
:1008F0003C0E0F26000E106407D03C0E106002D094
:10090000106A01D0105E08D03C0E0D6403D0780E42
:100910000D6E02D03C0E0D260BEF00F0116A096A35
:100920000982000E0F6407D05A0E0F6002D00F6AC2
:1009300001D00F5E12D07F0E0B6009D01E0E0B642B
:1009400003D0780E0B6E02D05A0E0B2606D05A0E2C
:100950000B6002D00B6A01D00B5E000E106407D052
:100960003C0E106002D0106A01D0105E08D0780EE4
:100970000D6403D0B40E0D6E02D03C0E0D260BEFAD
:1009800000F0096A0984116A000E0F6407D03C0E5A
:100990000F6002D00F6A01D00F5E08D08C0E0B647E
:1009A00003D0B40E0B6E02D0280E0B26000E10647E
:1009B000ABD73C0E106002D0106A01D0105E08D098
:1009C0008C0E0D6403D0B40E0D6E02D0280E0D26D1
:1009D0000BEF00F0096A050E116201D003D0112A55
:1009E0000BEF00F03C0E0D6002D00D6A01D00D5EE1
:1009F0003C0E0B6002D00B6A01D00B5E3C0E106007
:100A000002D0106A01D0105E3C0E0F6002D00F6A57
:100A100001D00F5E0BEF00F00F01096A806A896A4E
:100A2000000E386F000E926F816A8A6A200E396F4D
:100A3000E60E936F826A8B6AE00E3A6FF80E946F3F
:100A4000836A8C6A0C0E3B6FEC0E956F846A8D6A1C
:100A5000000E3C6E000E966E740ED36E360EC06E97
:100A6000000EC16E3D0EC26E496B486BF90EBB6F36
:100A7000000E676F000E5E6F000E586F000E556F10
:100A80003C0E666F5D6F576F546F040EBA6F010EA8
:100A90003E6EF28FF28C00011200806A490E806E69
:100AA000B6EC0CF0DBEC0BF01E0E216103D0000E57
:100AB000306F04D021C030F01E0E305FE10E216592
:100AC00003D0FF0E316F04D021C031F01E0E31274C
:100AD0001E0E226103D0000E326F04D022C032F00D
:100AE0001E0E325FE10E226503D0FF0E336F04D07D
:100AF00022C033F01E0E33271E0E236103D0000EDA
:100B0000346F04D023C034F01E0E345FE10E236531
:100B100003D0FF0E356F04D023C035F01E0E3527ED
:100B20001E0E246103D0000E4E6F04D024C04EF080
:100B30001E0E4E5FE10E246503D0FF0E4F6F04D0F2
:100B400024C04FF01E0E4F271E0E256103D0000E4D
:100B5000506F04D025C050F01E0E505FE10E256589
:100B600003D0FF0E516F04D025C051F01E0E512747
:100B70001E0E266103D0000E526F04D026C052F024
:100B80001E0E525FE10E266503D0FF0E536F04D098
:100B900026C053F01E0E53271E0E276103D0000EF1
:100BA0006C6F04D027C06CF01E0E6C5FE10E2765E1
:100BB00003D0FF0E6D6F04D027C06DF01E0E6D27A1
:100BC0001E0E286103D0000E6E6F04D028C06EF098
:100BD0001E0E6E5FE10E286503D0FF0E6F6F04D00E
:100BE00028C06FF01E0E6F271E0E296103D0000E65
:100BF000706F04D029C070F01E0E705FE10E296581
:100C000003D0FF0E716F04D029C071F01E0E712742
:100C10001E0E2A6103D0000E8A6F04D02AC08AF00B
:100C20001E0E8A5FE10E2A6503D0FF0E8B6F04D083
:100C30002AC08BF01E0E8B271E0E2B6103D0000ED8
:100C40008C6F04D02BC08CF01E0E8C5FE10E2B65D8
:100C500003D0FF0E8D6F04D02BC08DF01E0E8D279C
:100C60001E0E2C6103D0000E8E6F04D02CC08EF0AF
:100C70001E0E8E5FE10E2C6503D0FF0E8F6F04D029
:100C80002CC08FF01E0E8F271E0E2D6103D0000E7C
:100C9000A86F04D02DC0A8F01E0EA85FE10E2D6530
:100CA00003D0FF0EA96F04D02DC0A9F01E0EA927F6
:100CB0001E0E2E6103D0000EAA6F04D02EC0AAF023
:100CC0001E0EAA5FE10E2E6503D0FF0EAB6F04D09F
:100CD0002EC0ABF01E0EAB271E0E2F6103D0000EF0
:100CE000AC6F04D02FC0ACF01E0EAC5FE10E2F65D0
:100CF00003D0FF0EAD6F04D02FC0ADF01E0EAD2798
:100D0000030E016E490E806E830ED56E600ED76E97
:100D1000AA0ED66EF294D58EF2A4FDD7D59E806A27
:100D2000830ED56E600ED76EAA0ED66EF294D58E57
:100D3000F2A4FDD7D59E012EE5D76F0E806EB6ECDE
:100D40000CF0DBEC0BF01E0E216103D0000E3C6FAB
:100D500004D021C03CF01E0E3C5FE10E216503D0A3
:100D6000FF0E3D6F04D021C03DF01E0E3D271E0E2C
:100D7000226103D0000E3E6F04D022C03EF01E0E52
:100D80003E5FE10E226503D0FF0E3F6F04D022C00C
:100D90003FF01E0E3F271E0E236103D0000E406F52
:100DA00004D023C040F01E0E405FE10E236503D047
:100DB000FF0E416F04D023C041F01E0E41271E0ECE
:100DC000246103D0000E5A6F04D024C05AF01E0EC6
:100DD0005A5FE10E246503D0FF0E5B6F04D024C080
:100DE0005BF01E0E5B271E0E256103D0000E5C6FAC
:100DF00004D025C05CF01E0E5C5FE10E256503D0BB
:100E0000FF0E5D6F04D025C05DF01E0E5D271E0E27
:100E1000266103D0000E5E6F04D026C05EF01E0E69
:100E20005E5FE10E266503D0FF0E5F6F04D026C023
:100E30005FF01E0E5F271E0E276103D0000E786F35
:100E400004D027C078F01E0E785FE10E276503D02E
:100E5000FF0E796F04D027C079F01E0E79271E0E81
:100E6000286103D0000E7A6F04D028C07AF01E0EDD
:100E70007A5FE10E286503D0FF0E7B6F04D028C097
:100E80007BF01E0E7B271E0E296103D0000E7C6FA7
:100E900004D029C07CF01E0E7C5FE10E296503D0D2
:100EA000FF0E7D6F04D029C07DF01E0E7D271E0E23
:100EB0002A6103D0000E966F04D02AC096F01E0E51
:100EC000965FE10E2A6503D0FF0E976F04D02AC00B
:100ED00097F01E0E97271E0E2B6103D0000E986F01
:100EE00004D02BC098F01E0E985FE10E2B6503D046
:100EF000FF0E996F04D02BC099F01E0E99271E0E7D
:100F00002C6103D0000E9A6F04D02CC09AF01E0EF4
:100F10009A5FE10E2C6503D0FF0E9B6F04D02CC0AE
:100F20009BF01E0E9B271E0E2D6103D0000EB46F8A
:100F300004D02DC0B4F01E0EB45FE10E2D6503D0B9
:100F4000FF0EB56F04D02DC0B5F01E0EB5271E0ED6
:100F50002E6103D0000EB66F04D02EC0B6F01E0E68
:100F6000B65FE10E2E6503D0FF0EB76F04D02EC022
:100F7000B7F01E0EB7271E0E2F6103D0000EB86FFC
:100F800004D02FC0B8F01E0EB85FE10E2F6503D05D
:100F9000FF0EB96F04D02FC0B9F01E0EB927030E93
:100FA000016E6F0E806E830ED56E600ED76EAA0E28
:100FB000D66EF294D58EF2A4FDD7D59E806A830EAC
:100FC000D56E600ED76EAA0ED66EF294D58EF2A4B0
:100FD000FDD7D59E012EE5D77C0E806EB6EC0CF0C9
:100FE000DBEC0BF01E0E216103D0000E426F04D02B
:100FF00021C042F01E0E425FE10E216503D0FF0EBC
:10100000436F04D021C043F01E0E43271E0E226101
:1010100003D0000E446F04D022C044F01E0E445F83
:10102000E10E226503D0FF0E456F04D022C045F0CB
:101030001E0E45271E0E236103D0000E466F04D0FE
:1010400023C046F01E0E465FE10E236503D0FF0E5F
:10105000476F04D023C047F01E0E47271E0E2461A1
:1010600003D0000E606F04D024C060F01E0E605FDD
:10107000E10E246503D0FF0E616F04D024C061F03F
:101080001E0E61271E0E256103D0000E626F04D074
:1010900025C062F01E0E625FE10E256503D0FF0ED3
:1010A000636F04D025C063F01E0E63271E0E2661F9
:1010B00003D0000E646F04D026C064F01E0E645F7F
:1010C000E10E266503D0FF0E656F04D026C065F0E3
:1010D0001E0E65271E0E276103D0000E7E6F04D002
:1010E00027C07EF01E0E7E5FE10E276503D0FF0E47
:1010F0007F6F04D027C07FF01E0E7F271E0E286151
:1011000003D0000E806F04D028C080F01E0E805FD8
:10111000E10E286503D0FF0E816F04D028C081F056
:101120001E0E81271E0E296103D0000E826F04D08F
:1011300029C082F01E0E825FE10E296503D0FF0EEA
:10114000836F04D029C083F01E0E83271E0E2A61F0
:1011500003D0000E9C6F04D02AC09CF01E0E9C5F32
:10116000E10E2A6503D0FF0E9D6F04D02AC09DF0CA
:101170001E0E9D271E0E2B6103D0000E9E6F04D005
:101180002BC09EF01E0E9E5FE10E2B6503D0FF0E5E
:101190009F6F04D02BC09FF01E0E9F271E0E2C6148
:1011A00003D0000EA06F04D02CC0A0F01E0EA05FD4
:1011B000E10E2C6503D0FF0EA16F04D02CC0A1F06E
:1011C0001E0EA1271E0E2D6103D0000EBA6F04D093
:1011D0002DC0BAF01E0EBA5FE10E2D6503D0FF0ED2
:1011E000BB6F04D02DC0BBF01E0EBB271E0E2E61A0
:1011F00003D0000EBC6F04D02EC0BCF01E0EBC5F2E
:10120000E10E2E6503D0FF0EBD6F04D02EC0BDF0E1
:101210001E0EBD271E0E2F6103D0000EBE6F04D020
:101220002FC0BEF01E0EBE5FE10E2F6503D0FF0E75
:10123000BF6F04D02FC0BFF01E0EBF27030E016E7C
:101240007C0E806E830ED56E600ED76EAA0ED66EA3
:10125000F294D58EF2A4FDD7D59E806A830ED56E0A
:10126000600ED76EAA0ED66EF294D58EF2A4FDD77C
:10127000D59E012EE5D7700E806EB6EC0CF0DBEC3F
:101280000BF01E0E216103D0000E486F04D021C068
:1012900048F01E0E485FE10E216503D0FF0E496F36
:1012A00004D021C049F01E0E49271E0E226103D032
:1012B000000E4A6F04D022C04AF01E0E4A5FE10EB3
:1012C000226503D0FF0E4B6F04D022C04BF01E0EE0
:1012D0004B271E0E236103D0000E4C6F04D023C099
:1012E0004CF01E0E4C5FE10E236503D0FF0E4D6FD8
:1012F00004D023C04DF01E0E4D271E0E246103D0D6
:10130000000E666F04D024C066F01E0E665FE10E0C
:10131000246503D0FF0E676F04D024C067F01E0E53
:1013200067271E0E256103D0000E686F04D025C00C
:1013300068F01E0E685FE10E256503D0FF0E696F31
:1013400004D025C069F01E0E69271E0E266103D049
:10135000000E6A6F04D026C06AF01E0E6A5FE10EAE
:10136000266503D0FF0E6B6F04D026C06BF01E0EF7
:101370006B271E0E276103D0000E846F04D027C098
:1013800084F01E0E845FE10E276503D0FF0E856F8B
:1013900004D027C085F01E0E85271E0E286103D0BD
:1013A000000E866F04D028C086F01E0E865FE10E08
:1013B000286503D0FF0E876F04D028C087F01E0E6B
:1013C00087271E0E296103D0000E886F04D029C024
:1013D00088F01E0E885FE10E296503D0FF0E896F2D
:1013E00004D029C089F01E0E89271E0E2A6103D061
:1013F000000EA26F04D02AC0A2F01E0EA25FE10E62
:101400002A6503D0FF0EA36F04D02AC0A3F01E0EDE
:10141000A3271E0E2B6103D0000EA46F04D02BC097
:10142000A4F01E0EA45FE10E2B6503D0FF0EA56F86
:1014300004D02BC0A5F01E0EA5271E0E2C6103D0D4
:10144000000EA66F04D02CC0A6F01E0EA65FE10E03
:101450002C6503D0FF0EA76F04D02CC0A7F01E0E82
:10146000A7271E0E2D6103D0000EC06F04D02DC023
:10147000C0F01E0EC05FE10E2D6503D0FF0EC16FE0
:1014800004D02DC0C1F01E0EC1271E0E2E6103D048
:10149000000EC26F04D02EC0C2F01E0EC25FE10E5D
:1014A0002E6503D0FF0EC36F04D02EC0C3F01E0EF6
:1014B000C3271E0E2F6103D0000EC46F04D02FC0AF
:1014C000C4F01E0EC45FE10E2F6503D0FF0EC56F82
:1014D00004D02FC0C5F01E0EC527030E016E700E7E
:1014E000806E830ED56E600ED76EAA0ED66EF29405
:1014F000D58EF2A4FDD7D59E806A830ED56E600E80
:10150000D76EAA0ED66EF294D58EF2A4FDD7D59ED4
:10151000012EE5D7500E806EB6EC0CF0DBEC0BF034
:101520001E0E216103D0000E366F04D021C036F0AC
:101530001E0E365FE10E216503D0FF0E376F04D01B
:1015400021C037F01E0E37271E0E226103D0000E79
:10155000386F04D022C038F01E0E385FE10E2265CD
:1015600003D0FF0E396F04D022C039F01E0E392788
:101570001E0E236103D0000E3A6F04D023C03AF050
:101580001E0E3A5FE10E236503D0FF0E3B6F04D0C1
:1015900023C03BF01E0E3B271E0E246103D0000E1D
:1015A000546F04D024C054F01E0E545FE10E246525
:1015B00003D0FF0E556F04D024C055F01E0E5527E2
:1015C0001E0E256103D0000E566F04D025C056F0C4
:1015D0001E0E565FE10E256503D0FF0E576F04D037
:1015E00025C057F01E0E57271E0E266103D0000E91
:1015F000586F04D026C058F01E0E585FE10E2665C5
:1016000003D0FF0E596F04D026C059F01E0E592783
:101610001E0E276103D0000E726F04D027C072F037
:101620001E0E725FE10E276503D0FF0E736F04D0AC
:1016300027C073F01E0E73271E0E286103D0000E04
:10164000746F04D028C074F01E0E745FE10E28651C
:1016500003D0FF0E756F04D028C075F01E0E7527DD
:101660001E0E296103D0000E766F04D029C076F0DB
:101670001E0E765FE10E296503D0FF0E776F04D052
:1016800029C077F01E0E77271E0E2A6103D0000EA8
:10169000906F04D02AC090F01E0E905FE10E2A6574
:1016A00003D0FF0E916F04D02AC091F01E0E912737
:1016B0001E0E2B6103D0000E926F04D02BC092F04F
:1016C0001E0E925FE10E2B6503D0FF0E936F04D0C8
:1016D0002BC093F01E0E93271E0E2C6103D0000E1C
:1016E000946F04D02CC094F01E0E945FE10E2C6514
:1016F00003D0FF0E956F04D02CC095F01E0E9527D9
:101700001E0E2D6103D0000EAE6F04D02DC0AEF0C2
:101710001E0EAE5FE10E2D6503D0FF0EAF6F04D03D
:101720002DC0AFF01E0EAF271E0E2E6103D0000E8F
:10173000B06F04D02EC0B0F01E0EB05FE10E2E656B
:1017400003D0FF0EB16F04D02EC0B1F01E0EB12732
:101750001E0E2F6103D0000EB26F04D02FC0B2F066
:101760001E0EB25FE10E2F6503D0FF0EB36F04D0E3
:101770002FC0B3F01E0EB327030E016E500E806E05
:10178000830ED56E600ED76EAA0ED66EF294D58EED
:10179000F2A4FDD7D59E806A830ED56E600ED76EFB
:1017A000AA0ED66EF294D58EF2A4FDD7D59E012E48
:1017B000E5D7806A12004D0EC26E828482828290CA
:1017C000C282C2B2FED7C4CF21F082808292C2828E
:1017D000C2B2FED7C4CF22F082828294C282C2B249
:1017E000FED7C4CF23F08284490EC26E82848282E7
:1017F0008290C282C2B2FED7C4CF24F0828082928D
:10180000C282C2B2FED7C4CF25F082828294C28245
:10181000C2B2FED7C4CF26F08284450EC26E828447
:1018200082828290C282C2B2FED7C4CF27F0828069
:101830008292C282C2B2FED7C4CF28F08282829442
:10184000C282C2B2FED7C4CF29F082845D0EC26EBE
:10185000828482828290C282C2B2FED7C4CF2AF032
:1018600082808292C282C2B2FED7C4CF2BF0828223
:101870008294C282C2B2FED7C4CF2CF08284590EA9
:10188000C26E828482828290C282C2B2FED7C4CFEC
:101890002DF082808292C282C2B2FED7C4CF2EF0D7
:1018A00082828294C282C2B2FED7C4CF2FF08284D9
:1018B00012000F01399B939B819A830ED56EFD0E0A
:1018C000D76EDD0ED66EF294D58EF2A4FDD7D59EDE
:1018D000818A830ED56EFD0ED76EDD0ED66EF29424
:1018E000D58EF2A4FDD7D59E819A398B938B0001BA
:1018F000830ED56EF50ED76EFF0ED66EF294D58E92
:10190000F2A4FDD7D59EC282C2B2FED7C4CF08F0E2
:10191000650E086002D0086A01D008681200350E12
:10192000C26E830ED56EFD0ED76EDD0ED66EF294AE
:10193000D58EF2A4FDD7D59E59EC0CF012000866A6
:1019400002D0809801D0808812008FEC0CF00866DD
:1019500001D0FBD7830ED56E600ED76EAA0ED66E61
:10196000F294D58EF2A4FDD7D59E12008FEC0CF028
:10197000086601D0FBD71200836A83BA05D083BC06
:1019800006D083BE07D003D0010E076E1200020EF0
:10199000076E1200030E076E1200000E076203D0DE
:1019A000700E806E1200010E076203D0500E806E22
:1019B0001200020E076203D07C0E806E1200030E2E
:1019C000076203D06F0E806E12003F0E806E120011
:1019D0004DEC05F0BCEC0CF0B6EC0CF0CDEC0CF0E2
:1019E00005EC00F0FDD7200E086002D0086A01D097
:1019F000085EF9D7DE0E086403D0FE0E086E02D032
:101A0000200E0826F7D7590EC26E82688290000019
:101A1000C282C2B2FED7C4CF01F0826882920000B7
:101A2000C282C2B2FED7C4CF02F0826882940000A4
:0E1A3000C282C2B2FED7C4CF03F0E5D71200C7
:020000040030CA
:03000100281F3C79
:02000500BA85BA
:060008000FC00FE00F40E5
:00000001FF
