:1000000011EC05F0EDEF0CF010000B6A0D6A0F6AB1
:10001000106AC6EF04F00F010DC067FF0BC05EFF52
:1000200010C058FF0FC055FF0001016A126A450E4B
:10003000C26E828482828290C282C2B2FED7C4CF54
:1000400027F082808292C282C2B2FED7C4CF28F04B
:1000500082828294C282C2B2FED7C4CF29F0828447
:100060000001040E066F6CC0E8FF276001D004D0C9
:100070006DC0E8FF276401D015D06EC0E8FF28608E
:1000800001D004D06FC0E8FF286401D00BD070C04D
:10009000E8FF296001D004D071C0E8FF296401D0D5
:1000A00001D083D0060778C0E8FF276001D004D0D4
:1000B00079C0E8FF276401D015D07AC0E8FF286036
:1000C00001D004D07BC0E8FF286401D00BD07CC0F5
:1000D000E8FF296001D004D07DC0E8FF296401D089
:1000E00001D063D006077EC0E8FF276001D004D0AE
:1000F0007FC0E8FF276401D015D080C0E8FF2860EA
:1001000001D004D081C0E8FF286401D00BD082C0A8
:10011000E8FF296001D004D083C0E8FF296401D042
:1001200001D043D0060772C0E8FF276001D004D099
:1001300073C0E8FF276401D015D074C0E8FF2860C1
:1001400001D004D075C0E8FF286401D00BD076C080
:10015000E8FF296001D004D077C0E8FF296401D00E
:1001600001D023D0060784C0E8FF276001D004D067
:1001700085C0E8FF276401D015D086C0E8FF28605D
:1001800001D004D087C0E8FF286401D00BD088C01C
:10019000E8FF296001D004D089C0E8FF296401D0BC
:1001A00001D003D0450E066F00D0000E066201D0CC
:1001B000012A07C0E8FF066201D0E8D35D0EC26ED7
:1001C000828482828290C282C2B2FED7C4CF2AF0D9
:1001D00082808292C282C2B2FED7C4CF2BF08282CA
:1001E0008294C282C2B2FED7C4CF2CF082840001B6
:1001F000040E066F8AC0E8FF2A6001D004D08BC0CD
:10020000E8FF2A6401D015D08CC0E8FF2B6001D034
:1002100004D08DC0E8FF2B6401D00BD08EC0E8FF66
:100220002C6001D004D08FC0E8FF2C6401D001D035
:1002300083D0060796C0E8FF2A6001D004D097C09B
:10024000E8FF2A6401D015D098C0E8FF2B6001D0E8
:1002500004D099C0E8FF2B6401D00BD09AC0E8FF0E
:100260002C6001D004D09BC0E8FF2C6401D001D0E9
:1002700063D006079CC0E8FF2A6001D004D09DC06F
:10028000E8FF2A6401D015D09EC0E8FF2B6001D0A2
:1002900004D09FC0E8FF2B6401D00BD0A0C0E8FFC2
:1002A0002C6001D004D0A1C0E8FF2C6401D001D0A3
:1002B00043D0060790C0E8FF2A6001D004D091C067
:1002C000E8FF2A6401D015D092C0E8FF2B6001D06E
:1002D00004D093C0E8FF2B6401D00BD094C0E8FF9A
:1002E0002C6001D004D095C0E8FF2C6401D001D06F
:1002F00023D00607A2C0E8FF2A6001D004D0A3C023
:10030000E8FF2A6401D015D0A4C0E8FF2B6001D01B
:1003100004D0A5C0E8FF2B6401D00BD0A6C0E8FF35
:100320002C6001D004D0A7C0E8FF2C6401D001D01C
:1003300003D0450E066F00D0000E066201D0012AE0
:1003400007C0E8FF066201D01280490EC26E8284A7
:1003500082828290C282C2B2FED7C4CF24F0828051
:100360008292C282C2B2FED7C4CF25F0828282942A
:10037000C282C2B2FED7C4CF26F082840001040E2E
:10038000066F4EC0E8FF246001D004D04FC0E8FFE4
:10039000246401D015D050C0E8FF256001D004D0FE
:1003A00051C0E8FF256401D00BD052C0E8FF2660A1
:1003B00001D004D053C0E8FF266401D001D083D01F
:1003C00006075AC0E8FF246001D004D05BC0E8FFF4
:1003D000246401D015D05CC0E8FF256001D004D0B2
:1003E0005DC0E8FF256401D00BD05EC0E8FF266049
:1003F00001D004D05FC0E8FF266401D001D063D0F3
:10040000060760C0E8FF246001D004D061C0E8FFA7
:10041000246401D015D062C0E8FF256001D004D06B
:1004200063C0E8FF256401D00BD064C0E8FF2660FC
:1004300001D004D065C0E8FF266401D001D043D0CC
:10044000060754C0E8FF246001D004D055C0E8FF7F
:10045000246401D015D056C0E8FF256001D004D037
:1004600057C0E8FF256401D00BD058C0E8FF2660D4
:1004700001D004D059C0E8FF266401D001D023D0B8
:10048000060766C0E8FF246001D004D067C0E8FF1B
:10049000246401D015D068C0E8FF256001D004D0E5
:1004A00069C0E8FF256401D00BD06AC0E8FF266070
:1004B00001D004D06BC0E8FF266401D001D003D086
:1004C000450E066F00D0000E066201D0012A07C05B
:1004D000E8FF066201D0128212B025D212B2C7D153
:1004E0004D0EC26E828482828290C282C2B2FED7D8
:1004F000C4CF21F082808292C282C2B2FED7C4CF22
:1005000022F082828294C282C2B2FED7C4CF23F08C
:1005100082840001040E066F30C0E8FF216001D024
:1005200004D031C0E8FF216401D015D032C0E8FF0B
:10053000226001D004D033C0E8FF226401D00BD088
:1005400034C0E8FF236001D004D035C0E8FF236445
:1005500001D001D083D006073CC0E8FF216001D064
:1005600004D03DC0E8FF216401D015D03EC0E8FFB3
:10057000226001D004D03FC0E8FF226401D00BD03C
:1005800040C0E8FF236001D004D041C0E8FF2364ED
:1005900001D001D063D0060742C0E8FF216001D03E
:1005A00004D043C0E8FF216401D015D044C0E8FF67
:1005B000226001D004D045C0E8FF226401D00BD0F6
:1005C00046C0E8FF236001D004D047C0E8FF2364A1
:1005D00001D001D043D0060736C0E8FF216001D02A
:1005E00004D037C0E8FF216401D015D038C0E8FF3F
:1005F000226001D004D039C0E8FF226401D00BD0C2
:100600003AC0E8FF236001D004D03BC0E8FF236478
:1006100001D001D023D0060748C0E8FF216001D0F7
:1006200004D049C0E8FF216401D015D04AC0E8FFDA
:10063000226001D004D04BC0E8FF226401D00BD06F
:100640004CC0E8FF236001D004D04DC0E8FF236414
:1006500001D001D003D0450E066F00D0000E066217
:1006600001D0012A07C0E8FF066201D0D7D0590E99
:10067000C26E828482828290C282C2B2FED7C4CF0E
:100680002DF082808292C282C2B2FED7C4CF2EF0F9
:1006900082828294C282C2B2FED7C4CF2FF08284FB
:1006A0000001040E066FA8C0E8FF2D6001D004D041
:1006B000A9C0E8FF2D6401D015D0AAC0E8FF2E60C4
:1006C00001D004D0ABC0E8FF2E6401D00BD0ACC089
:1006D000E8FF2F6001D004D0ADC0E8FF2F6401D047
:1006E00001D083D00607B4C0E8FF2D6001D004D04C
:1006F000B5C0E8FF2D6401D015D0B6C0E8FF2E606C
:1007000001D004D0B7C0E8FF2E6401D00BD0B8C030
:10071000E8FF2F6001D004D0B9C0E8FF2F6401D0FA
:1007200001D063D00607BAC0E8FF2D6001D004D025
:10073000BBC0E8FF2D6401D015D0BCC0E8FF2E601F
:1007400001D004D0BDC0E8FF2E6401D00BD0BEC0E4
:10075000E8FF2F6001D004D0BFC0E8FF2F6401D0B4
:1007600001D043D00607AEC0E8FF2D6001D004D011
:10077000AFC0E8FF2D6401D015D0B0C0E8FF2E60F7
:1007800001D004D0B1C0E8FF2E6401D00BD0B2C0BC
:10079000E8FF2F6001D004D0B3C0E8FF2F6401D080
:1007A00001D023D00607C0C0E8FF2D6001D004D0DF
:1007B000C1C0E8FF2D6401D015D0C2C0E8FF2E6093
:1007C00001D004D0C3C0E8FF2E6401D00BD0C4C058
:1007D000E8FF2F6001D004D0C5C0E8FF2F6401D02E
:1007E00001D003D0450E066F00D0000E066201D086
:1007F000012A07C0E8FF066201D06CD0050E016235
:1008000001D0EDD009B80AD009B631D009B4BED0B4
:1008100009B289D009B05ED00BEF00F0096A0988EF
:10082000116A000E0F6407D03C0E0F6002D00F6AF1
:1008300001D00F5E08D03C0E0B6403D0780E0B6E17
:1008400002D03C0E0B26000E0D6407D03C0E0D604E
:1008500002D00D6A01D00D5E08D03C0E106403D0AA
:10086000780E106E02D03C0E10260BEF00F0096AD5
:100870000986116A000E106407D05A0E106002D06B
:10088000106A01D0105E12D05A0E0D6009D0320EDF
:100890000D6403D08C0E0D6E02D05A0E0D2606D0BC
:1008A0005A0E0D6002D00D6A01D00D5E000E0F646D
:1008B00007D03C0E0F6002D00F6A01D00F5E08D047
:1008C000780E0B6403D0B40E0B6E02D03C0E0B26D8
:1008D0000BEF00F0096A0980116A000E0B6407D063
:1008E0003C0E0B6002D00B6A01D00B5EACD73C0E05
:1008F0000F6403D0780E0F6E02D03C0E0F26000E50
:10090000106407D03C0E106002D0106A01D0105E57
:1009100008D03C0E0D6403D0780E0D6E02D03C0E54
:100920000D260BEF00F0116A096A0982000E0F64B0
:1009300007D05A0E0F6002D00F6A01D00F5E12D09E
:100940005A0E0B6009D0320E0B6403D08C0E0B6E66
:1009500002D05A0E0B2606D05A0E0B6002D00B6A3C
:1009600001D00B5E000E106407D03C0E106002D068
:10097000106A01D0105E08D0780E0D6403D0B40E5A
:100980000D6E02D03C0E0D260BEF00F0096A0984B3
:10099000116A000E0F6407D03C0E0F6002D00F6A80
:1009A00001D00F5E08D0780E0B6403D0B40E0B6E2E
:1009B00002D03C0E0B26000E1064ABD73C0E10602C
:1009C00002D0106A01D0105E08D0780E0D6403D0FA
:1009D000B40E0D6E02D03C0E0D260BEF00F0096A2E
:1009E000050E116201D003D0112A0BEF00F03C0E6E
:1009F0000D6002D00D6A01D00D5E3C0E0B6002D07E
:100A00000B6A01D00B5E3C0E106002D0106A01D060
:100A1000105E3C0E0F6002D00F6A01D00F5E0BEF2C
:100A200000F00F01096A806A896A000E386F000EB3
:100A3000926F816A8A6A200E396FE60E936F826A1E
:100A40008B6AE00E3A6FF80E946F836A8C6A0C0E14
:100A50003B6FEC0E956F846A8D6A000E3C6E000E43
:100A6000966E740ED36E360EC06E000EC16E3D0EC5
:100A7000C26E496B486BF90EBB6F000E676F000EBC
:100A80005E6F000E586F000E556F3C0E666F5D6F07
:100A9000576F546F040EBA6F010E3E6EF28FF28CD8
:100AA00000011200806A490E806EBBEC0CF0E0EC95
:100AB0000BF01C0E216103D0000E306F04D021C05A
:100AC00030F01C0E305FE30E216503D0FF0E316F56
:100AD00004D021C031F01C0E31271C0E226103D03E
:100AE000000E326F04D022C032F01C0E325FE30ED3
:100AF000226503D0FF0E336F04D022C033F01C0EEA
:100B000033271C0E236103D0000E346F04D023C0A2
:100B100034F01C0E345FE30E236503D0FF0E356FF7
:100B200004D023C035F01C0E35271C0E246103D0E1
:100B3000000E4E6F04D024C04EF01C0E4E5FE30E2C
:100B4000246503D0FF0E4F6F04D024C04FF01C0E5D
:100B50004F271C0E256103D0000E506F04D025C016
:100B600050F01C0E505FE30E256503D0FF0E516F51
:100B700004D025C051F01C0E51271C0E266103D055
:100B8000000E526F04D026C052F01C0E525FE30ECE
:100B9000266503D0FF0E536F04D026C053F01C0E01
:100BA00053271C0E276103D0000E6C6F04D027C0A2
:100BB0006CF01C0E6C5FE30E276503D0FF0E6D6FAB
:100BC00004D027C06DF01C0E6D271C0E286103D0C9
:100BD000000E6E6F04D028C06EF01C0E6E5FE30E28
:100BE000286503D0FF0E6F6F04D028C06FF01C0E75
:100BF0006F271C0E296103D0000E706F04D029C02E
:100C000070F01C0E705FE30E296503D0FF0E716F4C
:100C100004D029C071F01C0E71271C0E2A6103D06C
:100C2000000E8A6F04D02AC08AF01C0E8A5FE30E81
:100C30002A6503D0FF0E8B6F04D02AC08BF01C0EE8
:100C40008B271C0E2B6103D0000E8C6F04D02BC0A1
:100C50008CF01C0E8C5FE30E2B6503D0FF0E8D6FA6
:100C600004D02BC08DF01C0E8D271C0E2C6103D0E0
:100C7000000E8E6F04D02CC08EF01C0E8E5FE30E23
:100C80002C6503D0FF0E8F6F04D02CC08FF01C0E8C
:100C90008F271C0E2D6103D0000EA86F04D02DC02D
:100CA000A8F01C0EA85FE30E2D6503D0FF0EA96F00
:100CB00004D02DC0A9F01C0EA9271C0E2E6103D054
:100CC000000EAA6F04D02EC0AAF01C0EAA5FE30E7D
:100CD0002E6503D0FF0EAB6F04D02EC0ABF01C0E00
:100CE000AB271C0E2F6103D0000EAC6F04D02FC0B9
:100CF000ACF01C0EAC5FE30E2F6503D0FF0EAD6FA2
:100D000004D02FC0ADF01C0EAD27030E016E490EAE
:100D1000806E830ED56E600ED76EAA0ED66EF294DC
:100D2000D58EF2A4FDD7D59E806A830ED56E600E57
:100D3000D76EAA0ED66EF294D58EF2A4FDD7D59EAC
:100D4000012EE5D76F0E806EBBEC0CF0E0EC0BF0E3
:100D50001C0E216103D0000E3C6F04D021C03CF07A
:100D60001C0E3C5FE30E216503D0FF0E3D6F04D0E7
:100D700021C03DF01C0E3D271C0E226103D0000E49
:100D80003E6F04D022C03EF01C0E3E5FE30E226593
:100D900003D0FF0E3F6F04D022C03FF01C0E3F2750
:100DA0001C0E236103D0000E406F04D023C040F01E
:100DB0001C0E405FE30E236503D0FF0E416F04D08D
:100DC00023C041F01C0E41271C0E246103D0000EED
:100DD0005A6F04D024C05AF01C0E5A5FE30E2465EB
:100DE00003D0FF0E5B6F04D024C05BF01C0E5B27AA
:100DF0001C0E256103D0000E5C6F04D025C05CF092
:100E00001C0E5C5FE30E256503D0FF0E5D6F04D002
:100E100025C05DF01C0E5D271C0E266103D0000E60
:100E20005E6F04D026C05EF01C0E5E5FE30E26658A
:100E300003D0FF0E5F6F04D026C05FF01C0E5F274B
:100E40001C0E276103D0000E786F04D027C078F005
:100E50001C0E785FE30E276503D0FF0E796F04D078
:100E600027C079F01C0E79271C0E286103D0000ED4
:100E70007A6F04D028C07AF01C0E7A5FE30E2865E2
:100E800003D0FF0E7B6F04D028C07BF01C0E7B27A5
:100E90001C0E296103D0000E7C6F04D029C07CF0A9
:100EA0001C0E7C5FE30E296503D0FF0E7D6F04D01E
:100EB00029C07DF01C0E7D271C0E2A6103D0000E78
:100EC000966F04D02AC096F01C0E965FE30E2A653A
:100ED00003D0FF0E976F04D02AC097F01C0E9727FF
:100EE0001C0E2B6103D0000E986F04D02BC098F01D
:100EF0001C0E985FE30E2B6503D0FF0E996F04D094
:100F00002BC099F01C0E99271C0E2C6103D0000EEB
:100F10009A6F04D02CC09AF01C0E9A5FE30E2C65D9
:100F200003D0FF0E9B6F04D02CC09BF01C0E9B27A0
:100F30001C0E2D6103D0000EB46F04D02DC0B4F090
:100F40001C0EB45FE30E2D6503D0FF0EB56F04D009
:100F50002DC0B5F01C0EB5271C0E2E6103D0000E5F
:100F6000B66F04D02EC0B6F01C0EB65FE30E2E6531
:100F700003D0FF0EB76F04D02EC0B7F01C0EB727FA
:100F80001C0E2F6103D0000EB86F04D02FC0B8F034
:100F90001C0EB85FE30E2F6503D0FF0EB96F04D0AF
:100FA0002FC0B9F01C0EB927030E016E6F0E806EB4
:100FB000830ED56E600ED76EAA0ED66EF294D58EC5
:100FC000F2A4FDD7D59E806A830ED56E600ED76ED3
:100FD000AA0ED66EF294D58EF2A4FDD7D59E012E20
:100FE000E5D77C0E806EBBEC0CF0E0EC0BF01C0E39
:100FF000216103D0000E426F04D021C042F01C0ECC
:10100000425FE30E216503D0FF0E436F04D021C081
:1010100043F01C0E43271C0E226103D0000E446FC8
:1010200004D022C044F01C0E445FE30E226503D0BE
:10103000FF0E456F04D022C045F01C0E45271C0E44
:10104000236103D0000E466F04D023C046F01C0E6F
:10105000465FE30E236503D0FF0E476F04D023C025
:1010600047F01C0E47271C0E246103D0000E606F52
:1010700004D024C060F01C0E605FE30E246503D032
:10108000FF0E616F04D024C061F01C0E61271C0E9E
:10109000256103D0000E626F04D025C062F01C0EE3
:1010A000625FE30E256503D0FF0E636F04D025C099
:1010B00063F01C0E63271C0E266103D0000E646FC4
:1010C00004D026C064F01C0E645FE30E266503D0D6
:1010D000FF0E656F04D026C065F01C0E65271C0E40
:1010E000276103D0000E7E6F04D027C07EF01C0E57
:1010F0007E5FE30E276503D0FF0E7F6F04D027C00D
:101100007FF01C0E7F271C0E286103D0000E806F1D
:1011100004D028C080F01C0E805FE30E286503D049
:10112000FF0E816F04D028C081F01C0E81271C0E99
:10113000296103D0000E826F04D029C082F01C0EFA
:10114000825FE30E296503D0FF0E836F04D029C0B0
:1011500083F01C0E83271C0E2A6103D0000E9C6FA7
:1011600004D02AC09CF01C0E9C5FE30E2A6503D0BD
:10117000FF0E9D6F04D02AC09DF01C0E9D271C0EF3
:101180002B6103D0000E9E6F04D02BC09EF01C0E6E
:101190009E5FE30E2B6503D0FF0E9F6F04D02BC024
:1011A0009FF01C0E9F271C0E2C6103D0000EA06F19
:1011B00004D02CC0A0F01C0EA05FE30E2C6503D061
:1011C000FF0EA16F04D02CC0A1F01C0EA1271C0E95
:1011D0002D6103D0000EBA6F04D02DC0BAF01C0EE2
:1011E000BA5FE30E2D6503D0FF0EBB6F04D02DC098
:1011F000BBF01C0EBB271C0E2E6103D0000EBC6F73
:1012000004D02EC0BCF01C0EBC5FE30E2E6503D0D4
:10121000FF0EBD6F04D02EC0BDF01C0EBD271C0EEE
:101220002F6103D0000EBE6F04D02FC0BEF01C0E85
:10123000BE5FE30E2F6503D0FF0EBF6F04D02FC03B
:10124000BFF01C0EBF27030E016E7C0E806E830E56
:10125000D56E600ED76EAA0ED66EF294D58EF2A41D
:10126000FDD7D59E806A830ED56E600ED76EAA0E0E
:10127000D66EF294D58EF2A4FDD7D59E012EE5D779
:10128000700E806EBBEC0CF0E0EC0BF01C0E2161DC
:1012900003D0000E486F04D021C048F01C0E485FF8
:1012A000E30E216503D0FF0E496F04D021C049F041
:1012B0001C0E49271C0E226103D0000E4A6F04D079
:1012C00022C04AF01C0E4A5FE30E226503D0FF0ED7
:1012D0004B6F04D022C04BF01C0E4B271C0E236119
:1012E00003D0000E4C6F04D023C04CF01C0E4C5F9A
:1012F000E30E236503D0FF0E4D6F04D023C04DF0E5
:101300001C0E4D271C0E246103D0000E666F04D006
:1013100024C066F01C0E665FE30E246503D0FF0E4A
:10132000676F04D024C067F01C0E67271C0E256170
:1013300003D0000E686F04D025C068F01C0E685FF3
:10134000E30E256503D0FF0E696F04D025C069F058
:101350001C0E69271C0E266103D0000E6A6F04D094
:1013600026C06AF01C0E6A5FE30E266503D0FF0EEE
:101370006B6F04D026C06BF01C0E6B271C0E276110
:1013800003D0000E846F04D027C084F01C0E845F4D
:10139000E30E276503D0FF0E856F04D027C085F0CC
:1013A0001C0E85271C0E286103D0000E866F04D00A
:1013B00028C086F01C0E865FE30E286503D0FF0E62
:1013C000876F04D028C087F01C0E87271C0E296168
:1013D00003D0000E886F04D029C088F01C0E885FEF
:1013E000E30E296503D0FF0E896F04D029C089F070
:1013F0001C0E89271C0E2A6103D0000EA26F04D098
:101400002AC0A2F01C0EA25FE30E2A6503D0FF0ED5
:10141000A36F04D02AC0A3F01C0EA3271C0E2B61BF
:1014200003D0000EA46F04D02BC0A4F01C0EA45F48
:10143000E30E2B6503D0FF0EA56F04D02BC0A5F0E3
:101440001C0EA5271C0E2C6103D0000EA66F04D025
:101450002CC0A6F01C0EA65FE30E2C6503D0FF0E79
:10146000A76F04D02CC0A7F01C0EA7271C0E2D615F
:1014700003D0000EC06F04D02DC0C0F01C0EC05FA2
:10148000E30E2D6503D0FF0EC16F04D02DC0C1F057
:101490001C0EC1271C0E2E6103D0000EC26F04D09B
:1014A0002EC0C2F01C0EC25FE30E2E6503D0FF0EED
:1014B000C36F04D02EC0C3F01C0EC3271C0E2F61B7
:1014C00003D0000EC46F04D02FC0C4F01C0EC45F44
:1014D000E30E2F6503D0FF0EC56F04D02FC0C5F0FB
:1014E0001C0EC527030E016E700E806E830ED56E26
:1014F000600ED76EAA0ED66EF294D58EF2A4FDD7EA
:10150000D59E806A830ED56E600ED76EAA0ED66EFB
:10151000F294D58EF2A4FDD7D59E012EE5D7500EBC
:10152000806EBBEC0CF0E0EC0BF01C0E216103D0E4
:10153000000E366F04D021C036F01C0E365FE30E6D
:10154000216503D0FF0E376F04D021C037F01C0E89
:1015500037271C0E226103D0000E386F04D022C042
:1015600038F01C0E385FE30E226503D0FF0E396F92
:1015700004D022C039F01C0E39271C0E236103D081
:10158000000E3A6F04D023C03AF01C0E3A5FE30E0F
:10159000236503D0FF0E3B6F04D023C03BF01C0E2D
:1015A0003B271C0E246103D0000E546F04D024C0CE
:1015B00054F01C0E545FE30E246503D0FF0E556FEC
:1015C00004D024C055F01C0E55271C0E256103D0F5
:1015D000000E566F04D025C056F01C0E565FE30E69
:1015E000256503D0FF0E576F04D025C057F01C0EA1
:1015F00057271C0E266103D0000E586F04D026C05A
:1016000058F01C0E585FE30E266503D0FF0E596F8D
:1016100004D026C059F01C0E59271C0E276103D098
:10162000000E726F04D027C072F01C0E725FE30EC2
:10163000276503D0FF0E736F04D027C073F01C0E14
:1016400073271C0E286103D0000E746F04D028C0CD
:1016500074F01C0E745FE30E286503D0FF0E756FE7
:1016600004D028C075F01C0E75271C0E296103D00C
:10167000000E766F04D029C076F01C0E765FE30E64
:10168000296503D0FF0E776F04D029C077F01C0EB8
:1016900077271C0E2A6103D0000E906F04D02AC059
:1016A00090F01C0E905FE30E2A6503D0FF0E916F41
:1016B00004D02AC091F01C0E91271C0E2B6103D080
:1016C000000E926F04D02BC092F01C0E925FE30EBE
:1016D0002B6503D0FF0E936F04D02BC093F01C0E2C
:1016E00093271C0E2C6103D0000E946F04D02CC0E5
:1016F00094F01C0E945FE30E2C6503D0FF0E956FE3
:1017000004D02CC095F01C0E95271C0E2D6103D023
:10171000000EAE6F04D02DC0AEF01C0EAE5FE30E17
:101720002D6503D0FF0EAF6F04D02DC0AFF01C0E9F
:10173000AF271C0E2E6103D0000EB06F04D02EC058
:10174000B0F01C0EB05FE30E2E6503D0FF0EB16F3C
:1017500004D02EC0B1F01C0EB1271C0E2F6103D097
:10176000000EB26F04D02FC0B2F01C0EB25FE30EB9
:101770002F6503D0FF0EB36F04D02FC0B3F01C0E43
:10178000B327030E016E500E806E830ED56E600E71
:10179000D76EAA0ED66EF294D58EF2A4FDD7D59E42
:1017A000806A830ED56E600ED76EAA0ED66EF29446
:1017B000D58EF2A4FDD7D59E012EE5D7806A120002
:1017C0004D0EC26E828482828290C282C2B2FED7E5
:1017D000C4CF21F082808292C282C2B2FED7C4CF2F
:1017E00022F082828294C282C2B2FED7C4CF23F09A
:1017F0008284490EC26E828482828290C282C2B288
:10180000FED7C4CF24F082808292C282C2B2FED7B9
:10181000C4CF25F082828294C282C2B2FED7C4CFE6
:1018200026F08284450EC26E828482828290C282B9
:10183000C2B2FED7C4CF27F082808292C282C2B2E7
:10184000FED7C4CF28F082828294C282C2B2FED771
:10185000C4CF29F082845D0EC26E8284828282901F
:10186000C282C2B2FED7C4CF2AF082808292C282E4
:10187000C2B2FED7C4CF2BF082828294C282C2B29F
:10188000FED7C4CF2CF08284590EC26E828482822D
:101890008290C282C2B2FED7C4CF2DF082808292E3
:1018A000C282C2B2FED7C4CF2EF082828294C2829C
:1018B000C2B2FED7C4CF2FF0828412000F01399B31
:1018C000939B819A830ED56EFD0ED76EDD0ED66E7C
:1018D000F294D58EF2A4FDD7D59E818A830ED56E63
:1018E000FD0ED76EDD0ED66EF294D58EF2A4FDD726
:1018F000D59E819A398B938B0001830ED56EF50EA0
:10190000D76EFF0ED66EF294D58EF2A4FDD7D59E7B
:10191000C282C2B2FED7C4CF08F0650E086002D002
:10192000086A01D008681200350EC26E830ED56EAB
:10193000FD0ED76EDD0ED66EF294D58EF2A4FDD7D5
:10194000D59E5EEC0CF01200086602D0809801D0A3
:101950008088120094EC0CF0086601D0FBD7830E4F
:10196000D56E600ED76EAA0ED66EF294D58EF2A406
:10197000FDD7D59E120094EC0CF0086601D0FBD781
:101980001200836A83BA05D083BC06D083BE07D019
:1019900006D0010E076E1200020E076E1200030E33
:1019A000076E1200000E076203D0700E806E1200E8
:1019B000010E076203D0500E806E1200020E076205
:1019C00003D07C0E806E1200030E076203D06F0EF0
:1019D000806E12003F0E806E120052EC05F0C1ECDA
:1019E0000CF0D2EC0CF0BBEC0CF005EC00F0FDD7E9
:1019F000200E086002D0086A01D0085EF9D7DE0E1A
:101A0000086403D0FE0E086E02D0200E0826F7D719
:101A1000590EC26E826882900000C282C2B2FED7A6
:101A2000C4CF01F0826882920000C282C2B2FED7A7
:101A3000C4CF02F0826882940000C282C2B2FED794
:081A4000C4CF03F0E5D712004A
:020000040030CA
:03000100281F3C79
:02000500BA85BA
:060008000FC00FE00F40E5
:00000001FF
