:100000000BEC05F0E7EF0CF010000B6A0D6A0F6ABD
:10001000106AC1EF04F00F010DC067FF0BC05EFF57
:1000200010C058FF0FC055FF0001016A5D0EC26E7F
:10003000828482828290C282C2B2FED7C4CF2AF06A
:1000400082808292C282C2B2FED7C4CF2BF082825B
:100050008294C282C2B2FED7C4CF2CF08284000147
:10006000040E066F8AC0E8FF2A6001D004D08BC05E
:10007000E8FF2A6401D015D08CC0E8FF2B6001D0C6
:1000800004D08DC0E8FF2B6401D00BD08EC0E8FFF8
:100090002C6001D004D08FC0E8FF2C6401D001D0C7
:1000A00083D0060796C0E8FF2A6001D004D097C02D
:1000B000E8FF2A6401D015D098C0E8FF2B6001D07A
:1000C00004D099C0E8FF2B6401D00BD09AC0E8FFA0
:1000D0002C6001D004D09BC0E8FF2C6401D001D07B
:1000E00063D006079CC0E8FF2A6001D004D09DC001
:1000F000E8FF2A6401D015D09EC0E8FF2B6001D034
:1001000004D09FC0E8FF2B6401D00BD0A0C0E8FF53
:100110002C6001D004D0A1C0E8FF2C6401D001D034
:1001200043D0060790C0E8FF2A6001D004D091C0F8
:10013000E8FF2A6401D015D092C0E8FF2B6001D0FF
:1001400004D093C0E8FF2B6401D00BD094C0E8FF2B
:100150002C6001D004D095C0E8FF2C6401D001D000
:1001600023D00607A2C0E8FF2A6001D004D0A3C0B4
:10017000E8FF2A6401D015D0A4C0E8FF2B6001D0AD
:1001800004D0A5C0E8FF2B6401D00BD0A6C0E8FFC7
:100190002C6001D004D0A7C0E8FF2C6401D001D0AE
:1001A00003D0450E066F00D0000E066201D0012A72
:1001B00007C0E8FF066201D0B1D3490EC26E828447
:1001C00082828290C282C2B2FED7C4CF24F08280E3
:1001D0008292C282C2B2FED7C4CF25F082828294BC
:1001E000C282C2B2FED7C4CF26F082840001040EC0
:1001F000066F4EC0E8FF246001D004D04FC0E8FF76
:10020000246401D015D050C0E8FF256001D004D08F
:1002100051C0E8FF256401D00BD052C0E8FF266032
:1002200001D004D053C0E8FF266401D001D083D0B0
:1002300006075AC0E8FF246001D004D05BC0E8FF85
:10024000246401D015D05CC0E8FF256001D004D043
:100250005DC0E8FF256401D00BD05EC0E8FF2660DA
:1002600001D004D05FC0E8FF266401D001D063D084
:10027000060760C0E8FF246001D004D061C0E8FF39
:10028000246401D015D062C0E8FF256001D004D0FD
:1002900063C0E8FF256401D00BD064C0E8FF26608E
:1002A00001D004D065C0E8FF266401D001D043D05E
:1002B000060754C0E8FF246001D004D055C0E8FF11
:1002C000246401D015D056C0E8FF256001D004D0C9
:1002D00057C0E8FF256401D00BD058C0E8FF266066
:1002E00001D004D059C0E8FF266401D001D023D04A
:1002F000060766C0E8FF246001D004D067C0E8FFAD
:10030000246401D015D068C0E8FF256001D004D076
:1003100069C0E8FF256401D00BD06AC0E8FF266001
:1003200001D004D06BC0E8FF266401D001D003D017
:10033000450E066F00D0000E066201D0012A07C0EC
:10034000E8FF066201D08ED24D0EC26E8284828298
:100350008290C282C2B2FED7C4CF21F08280829244
:10036000C282C2B2FED7C4CF22F082828294C282FD
:10037000C2B2FED7C4CF23F082840001040E066F00
:1003800030C0E8FF216001D004D031C0E8FF216413
:1003900001D015D032C0E8FF226001D004D033C0B4
:1003A000E8FF226401D00BD034C0E8FF236001D005
:1003B00004D035C0E8FF236401D001D083D0060704
:1003C0003CC0E8FF216001D004D03DC0E8FF2164BB
:1003D00001D015D03EC0E8FF226001D004D03FC05C
:1003E000E8FF226401D00BD040C0E8FF236001D0B9
:1003F00004D041C0E8FF236401D001D063D00607D8
:1004000042C0E8FF216001D004D043C0E8FF21646E
:1004100001D015D044C0E8FF226001D004D045C00F
:10042000E8FF226401D00BD046C0E8FF236001D072
:1004300004D047C0E8FF236401D001D043D00607B1
:1004400036C0E8FF216001D004D037C0E8FF216446
:1004500001D015D038C0E8FF226001D004D039C0E7
:10046000E8FF226401D00BD03AC0E8FF236001D03E
:1004700004D03BC0E8FF236401D001D023D006079D
:1004800048C0E8FF216001D004D049C0E8FF2164E2
:1004900001D015D04AC0E8FF226001D004D04BC083
:1004A000E8FF226401D00BD04CC0E8FF236001D0EC
:1004B00004D04DC0E8FF236401D001D003D0450E25
:1004C000066F00D0000E066201D0012A07C0E8FFC7
:1004D000066201D09ED1590EC26E828482828290C1
:1004E000C282C2B2FED7C4CF2DF082808292C28275
:1004F000C2B2FED7C4CF2EF082828294C282C2B230
:10050000FED7C4CF2FF082840001040E066FA8C06E
:10051000E8FF2D6001D004D0A9C0E8FF2D6401D010
:1005200015D0AAC0E8FF2E6001D004D0ABC0E8FF10
:100530002E6401D00BD0ACC0E8FF2F6001D004D0F6
:10054000ADC0E8FF2F6401D001D083D00607B4C04E
:10055000E8FF2D6001D004D0B5C0E8FF2D6401D0C4
:1005600015D0B6C0E8FF2E6001D004D0B7C0E8FFB8
:100570002E6401D00BD0B8C0E8FF2F6001D004D0AA
:10058000B9C0E8FF2F6401D001D063D00607BAC01C
:10059000E8FF2D6001D004D0BBC0E8FF2D6401D07E
:1005A00015D0BCC0E8FF2E6001D004D0BDC0E8FF6C
:1005B0002E6401D00BD0BEC0E8FF2F6001D004D064
:1005C000BFC0E8FF2F6401D001D043D00607AEC002
:1005D000E8FF2D6001D004D0AFC0E8FF2D6401D04A
:1005E00015D0B0C0E8FF2E6001D004D0B1C0E8FF44
:1005F0002E6401D00BD0B2C0E8FF2F6001D004D030
:10060000B3C0E8FF2F6401D001D023D00607C0C0DB
:10061000E8FF2D6001D004D0C1C0E8FF2D6401D0F7
:1006200015D0C2C0E8FF2E6001D004D0C3C0E8FFDF
:100630002E6401D00BD0C4C0E8FF2F6001D004D0DD
:10064000C5C0E8FF2F6401D001D003D0450E066F6E
:1006500000D0000E066201D0012A07C0E8FF066242
:1006600001D033D1450EC26E828482828290C282D2
:10067000C2B2FED7C4CF27F082808292C282C2B2B9
:10068000FED7C4CF28F082828294C282C2B2FED743
:10069000C4CF29F082840001040E066F6CC0E8FF0D
:1006A000276001D004D06DC0E8FF276401D015D0C9
:1006B0006EC0E8FF286001D004D06FC0E8FF286456
:1006C00001D00BD070C0E8FF296001D004D071C008
:1006D000E8FF296401D001D083D0060778C0E8FF85
:1006E000276001D004D079C0E8FF276401D015D07D
:1006F0007AC0E8FF286001D004D07BC0E8FF2864FE
:1007000001D00BD07CC0E8FF296001D004D07DC0AF
:10071000E8FF296401D001D063D006077EC0E8FF5E
:10072000276001D004D07FC0E8FF276401D015D036
:1007300080C0E8FF286001D004D081C0E8FF2864B1
:1007400001D00BD082C0E8FF296001D004D083C063
:10075000E8FF296401D001D043D0060772C0E8FF4A
:10076000276001D004D073C0E8FF276401D015D002
:1007700074C0E8FF286001D004D075C0E8FF286489
:1007800001D00BD076C0E8FF296001D004D077C03B
:10079000E8FF296401D001D023D0060784C0E8FF18
:1007A000276001D004D085C0E8FF276401D015D0B0
:1007B00086C0E8FF286001D004D087C0E8FF286425
:1007C00001D00BD088C0E8FF296001D004D089C0D7
:1007D000E8FF296401D001D003D0450E066F00D098
:1007E000000E066201D0012A07C0E8FF066201D0B0
:1007F000C8D0050E016201D0EDD009B80AD009B603
:1008000031D009B4BED009B289D009B05ED00BEFA7
:1008100000F0096A0988116A000E0F6407D03C0EC7
:100820000F6002D00F6A01D00F5E08D0280E0B6453
:1008300003D0640E0B6E02D03C0E0B26000E0D642E
:1008400007D03C0E0D6002D00D6A01D00D5E08D0BD
:10085000280E106403D0640E106E02D03C0E1026D9
:100860000BEF00F0096A0986116A000E106407D0C8
:100870005A0E106002D0106A01D0105E12D07F0EA6
:100880000D6009D0140E0D6403D06E0E0D6E02D0F3
:100890005A0E0D2606D05A0E0D6002D00D6A01D0F8
:1008A0000D5E000E0F6407D05A0E0F6002D00F6A63
:1008B00001D00F5E08D05A0E0B6403D0B40E0B6E3D
:1008C00002D05A0E0B260BEF00F0096A0980116A5C
:1008D000000E0B6407D03C0E0B6002D00B6A01D0F7
:1008E0000B5EACD7280E0F6403D0640E0F6E02D0DF
:1008F0003C0E0F26000E106407D03C0E106002D094
:10090000106A01D0105E08D0280E0D6403D0640E6A
:100910000D6E02D03C0E0D260BEF00F0116A096A35
:100920000982000E0F6407D05A0E0F6002D00F6AC2
:1009300001D00F5E12D07F0E0B6009D0140E0B6435
:1009400003D06E0E0B6E02D05A0E0B2606D05A0E36
:100950000B6002D00B6A01D00B5E000E106407D052
:100960005A0E106002D0106A01D0105E08D05A0EE4
:100970000D6403D0B40E0D6E02D05A0E0D260BEF8F
:1009800000F0096A0984116A000E0F6407D03C0E5A
:100990000F6002D00F6A01D00F5E08D0780E0B6492
:1009A00003D0B40E0B6E02D03C0E0B26000E10646A
:1009B000ABD73C0E106002D0106A01D0105E08D098
:1009C000780E0D6403D0B40E0D6E02D03C0E0D26D1
:1009D0000BEF00F0050E116201D003D0112A0BEFCE
:1009E00000F03C0E0D6002D00D6A01D00D5E3C0E91
:1009F0000B6002D00B6A01D00B5E3C0E106002D07F
:100A0000106A01D0105E3C0E0F6002D00F6A01D058
:100A10000F5E0BEF00F00F01096A806A896A000E11
:100A2000386F000E926F816A8A6A200E396FE60E67
:100A3000936F826A8B6AE00E3A6FF80E946F836A46
:100A40008C6A0C0E3B6FEC0E956F846A8D6A000EFB
:100A50003C6E000E966E740ED36E360EC06E000E97
:100A6000C16E3D0EC26E496B486BF90EBB6F000E36
:100A7000676F000E5E6F000E586F000E556F3C0ED4
:100A8000666F5D6F576F546F040EBA6F010E3E6E46
:100A9000F28FF28C00011200806A490E806EB5EC74
:100AA0000CF0DAEC0BF0180E216103D0000E306F61
:100AB00004D021C030F0180E305FE70E216503D05E
:100AC000FF0E316F04D021C031F0180E3127180EFF
:100AD000226103D0000E326F04D022C032F0180E13
:100AE000325FE70E226503D0FF0E336F04D022C0C1
:100AF00033F0180E3327180E236103D0000E346F25
:100B000004D023C034F0180E345FE70E236503D001
:100B1000FF0E356F04D023C035F0180E3527180EA0
:100B2000246103D0000E4E6F04D024C04EF0180E86
:100B30004E5FE70E246503D0FF0E4F6F04D024C034
:100B40004FF0180E4F27180E256103D0000E506F7E
:100B500004D025C050F0180E505FE70E256503D075
:100B6000FF0E516F04D025C051F0180E5127180EFA
:100B7000266103D0000E526F04D026C052F0180E2A
:100B8000525FE70E266503D0FF0E536F04D026C0D8
:100B900053F0180E5327180E276103D0000E6C6F08
:100BA00004D027C06CF0180E6C5FE70E276503D0E9
:100BB000FF0E6D6F04D027C06DF0180E6D27180E54
:100BC000286103D0000E6E6F04D028C06EF0180E9E
:100BD0006E5FE70E286503D0FF0E6F6F04D028C04C
:100BE0006FF0180E6F27180E296103D0000E706F7A
:100BF00004D029C070F0180E705FE70E296503D08D
:100C0000FF0E716F04D029C071F0180E7127180EF5
:100C10002A6103D0000E8A6F04D02AC08AF0180E11
:100C20008A5FE70E2A6503D0FF0E8B6F04D02AC0BF
:100C30008BF0180E8B27180E2B6103D0000E8C6FD3
:100C400004D02BC08CF0180E8C5FE70E2B6503D000
:100C5000FF0E8D6F04D02BC08DF0180E8D27180E4F
:100C60002C6103D0000E8E6F04D02CC08EF0180EB5
:100C70008E5FE70E2C6503D0FF0E8F6F04D02CC063
:100C80008FF0180E8F27180E2D6103D0000EA86F5D
:100C900004D02DC0A8F0180EA85FE70E2D6503D074
:100CA000FF0EA96F04D02DC0A9F0180EA927180EA9
:100CB0002E6103D0000EAA6F04D02EC0AAF0180E29
:100CC000AA5FE70E2E6503D0FF0EAB6F04D02EC0D7
:100CD000ABF0180EAB27180E2F6103D0000EAC6FCF
:100CE00004D02FC0ACF0180EAC5FE70E2F6503D018
:100CF000FF0EAD6F04D02FC0ADF0180EAD27030E60
:100D0000016E490E806E830ED56E600ED76EAA0EF0
:100D1000D66EF294D58EF2A4FDD7D59E806A830E4E
:100D2000D56E600ED76EAA0ED66EF294D58EF2A452
:100D3000FDD7D59E012EE5D76F0E806EB5EC0CF079
:100D4000DAEC0BF0180E216103D0000E3C6F04D0DA
:100D500021C03CF0180E3C5FE70E216503D0FF0E6A
:100D60003D6F04D021C03DF0180E3D27180E2261C2
:100D700003D0000E3E6F04D022C03EF0180E3E5F3E
:100D8000E70E226503D0FF0E3F6F04D022C03FF074
:100D9000180E3F27180E236103D0000E406F04D0B9
:100DA00023C040F0180E405FE70E236503D0FF0E0E
:100DB000416F04D023C041F0180E4127180E246162
:100DC00003D0000E5A6F04D024C05AF0180E5A5F98
:100DD000E70E246503D0FF0E5B6F04D024C05BF0E8
:100DE000180E5B27180E256103D0000E5C6F04D02F
:100DF00025C05CF0180E5C5FE70E256503D0FF0E82
:100E00005D6F04D025C05DF0180E5D27180E2661B9
:100E100003D0000E5E6F04D026C05EF0180E5E5F39
:100E2000E70E266503D0FF0E5F6F04D026C05FF08B
:100E3000180E5F27180E276103D0000E786F04D0BC
:100E400027C078F0180E785FE70E276503D0FF0EF5
:100E5000796F04D027C079F0180E7927180E286111
:100E600003D0000E7A6F04D028C07AF0180E7A5F93
:100E7000E70E286503D0FF0E7B6F04D028C07BF0FF
:100E8000180E7B27180E296103D0000E7C6F04D04A
:100E900029C07CF0180E7C5FE70E296503D0FF0E99
:100EA0007D6F04D029C07DF0180E7D27180E2A61B1
:100EB00003D0000E966F04D02AC096F0180E965FED
:100EC000E70E2A6503D0FF0E976F04D02AC097F073
:100ED000180E9727180E2B6103D0000E986F04D0C0
:100EE0002BC098F0180E985FE70E2B6503D0FF0E0D
:100EF000996F04D02BC099F0180E9927180E2C6109
:100F000003D0000E9A6F04D02CC09AF0180E9A5F8E
:100F1000E70E2C6503D0FF0E9B6F04D02CC09BF016
:100F2000180E9B27180E2D6103D0000EB46F04D04D
:100F30002DC0B4F0180EB45FE70E2D6503D0FF0E80
:100F4000B56F04D02DC0B5F0180EB527180E2E6160
:100F500003D0000EB66F04D02EC0B6F0180EB65FE8
:100F6000E70E2E6503D0FF0EB76F04D02EC0B7F08A
:100F7000180EB727180E2F6103D0000EB86F04D0DB
:100F80002FC0B8F0180EB85FE70E2F6503D0FF0E24
:100F9000B96F04D02FC0B9F0180EB927030E016E37
:100FA0006F0E806E830ED56E600ED76EAA0ED66E53
:100FB000F294D58EF2A4FDD7D59E806A830ED56EAD
:100FC000600ED76EAA0ED66EF294D58EF2A4FDD71F
:100FD000D59E012EE5D77C0E806EB5EC0CF0DAECD8
:100FE0000BF0180E216103D0000E426F04D021C017
:100FF00042F0180E425FE70E216503D0FF0E436FEB
:1010000004D021C043F0180E4327180E226103D0EC
:10101000000E446F04D022C044F0180E445FE70E67
:10102000226503D0FF0E456F04D022C045F0180E94
:101030004527180E236103D0000E466F04D023C04D
:1010400046F0180E465FE70E236503D0FF0E476F8C
:1010500004D023C047F0180E4727180E246103D090
:10106000000E606F04D024C060F0180E605FE70EC1
:10107000246503D0FF0E616F04D024C061F0180E08
:101080006127180E256103D0000E626F04D025C0C1
:1010900062F0180E625FE70E256503D0FF0E636FE6
:1010A00004D025C063F0180E6327180E266103D004
:1010B000000E646F04D026C064F0180E645FE70E63
:1010C000266503D0FF0E656F04D026C065F0180EAC
:1010D0006527180E276103D0000E7E6F04D027C04D
:1010E0007EF0180E7E5FE70E276503D0FF0E7F6F40
:1010F00004D027C07FF0180E7F27180E286103D078
:10110000000E806F04D028C080F0180E805FE70EBC
:10111000286503D0FF0E816F04D028C081F0180E1F
:101120008127180E296103D0000E826F04D029C0D8
:1011300082F0180E825FE70E296503D0FF0E836FE1
:1011400004D029C083F0180E8327180E2A6103D01B
:10115000000E9C6F04D02AC09CF0180E9C5FE70E16
:101160002A6503D0FF0E9D6F04D02AC09DF0180E93
:101170009D27180E2B6103D0000E9E6F04D02BC04C
:101180009EF0180E9E5FE70E2B6503D0FF0E9F6F3B
:1011900004D02BC09FF0180E9F27180E2C6103D08F
:1011A000000EA06F04D02CC0A0F0180EA05FE70EB8
:1011B0002C6503D0FF0EA16F04D02CC0A1F0180E37
:1011C000A127180E2D6103D0000EBA6F04D02DC0D8
:1011D000BAF0180EBA5FE70E2D6503D0FF0EBB6F95
:1011E00004D02DC0BBF0180EBB27180E2E6103D003
:1011F000000EBC6F04D02EC0BCF0180EBC5FE70E12
:101200002E6503D0FF0EBD6F04D02EC0BDF0180EAA
:10121000BD27180E2F6103D0000EBE6F04D02FC063
:10122000BEF0180EBE5FE70E2F6503D0FF0EBF6F36
:1012300004D02FC0BFF0180EBF27030E016E7C0E26
:10124000806E830ED56E600ED76EAA0ED66EF294A7
:10125000D58EF2A4FDD7D59E806A830ED56E600E22
:10126000D76EAA0ED66EF294D58EF2A4FDD7D59E77
:10127000012EE5D7700E806EB5EC0CF0DAEC0BF0B9
:10128000180E216103D0000E486F04D021C048F031
:10129000180E485FE70E216503D0FF0E496F04D09A
:1012A00021C049F0180E4927180E226103D0000E04
:1012B0004A6F04D022C04AF0180E4A5FE70E22653A
:1012C00003D0FF0E4B6F04D022C04BF0180E4B27FB
:1012D000180E236103D0000E4C6F04D023C04CF0D5
:1012E000180E4C5FE70E236503D0FF0E4D6F04D040
:1012F00023C04DF0180E4D27180E246103D0000EA8
:10130000666F04D024C066F0180E665FE70E246591
:1013100003D0FF0E676F04D024C067F0180E672754
:10132000180E256103D0000E686F04D025C068F048
:10133000180E685FE70E256503D0FF0E696F04D0B5
:1013400025C069F0180E6927180E266103D0000E1B
:101350006A6F04D026C06AF0180E6A5FE70E266531
:1013600003D0FF0E6B6F04D026C06BF0180E6B27F6
:10137000180E276103D0000E846F04D027C084F0BC
:10138000180E845FE70E276503D0FF0E856F04D02B
:1013900027C085F0180E8527180E286103D0000E8F
:1013A000866F04D028C086F0180E865FE70E286589
:1013B00003D0FF0E876F04D028C087F0180E872750
:1013C000180E296103D0000E886F04D029C088F060
:1013D000180E885FE70E296503D0FF0E896F04D0D1
:1013E00029C089F0180E8927180E2A6103D0000E33
:1013F000A26F04D02AC0A2F0180EA25FE70E2A65E1
:1014000003D0FF0EA36F04D02AC0A3F0180EA327A9
:10141000180E2B6103D0000EA46F04D02BC0A4F0D3
:10142000180EA45FE70E2B6503D0FF0EA56F04D046
:101430002BC0A5F0180EA527180E2C6103D0000EA6
:10144000A66F04D02CC0A6F0180EA65FE70E2C6580
:1014500003D0FF0EA76F04D02CC0A7F0180EA7274B
:10146000180E2D6103D0000EC06F04D02DC0C0F047
:10147000180EC05FE70E2D6503D0FF0EC16F04D0BC
:101480002DC0C1F0180EC127180E2E6103D0000E1A
:10149000C26F04D02EC0C2F0180EC25FE70E2E65D8
:1014A00003D0FF0EC36F04D02EC0C3F0180EC327A5
:1014B000180E2F6103D0000EC46F04D02FC0C4F0EB
:1014C000180EC45FE70E2F6503D0FF0EC56F04D062
:1014D0002FC0C5F0180EC527030E016E700E806E6A
:1014E000830ED56E600ED76EAA0ED66EF294D58E90
:1014F000F2A4FDD7D59E806A830ED56E600ED76E9E
:10150000AA0ED66EF294D58EF2A4FDD7D59E012EEA
:10151000E5D7500E806EB5EC0CF0DAEC0BF0180E3F
:10152000216103D0000E366F04D021C036F0180EB2
:10153000365FE70E216503D0FF0E376F04D021C060
:1015400037F0180E3727180E226103D0000E386FBF
:1015500004D022C038F0180E385FE70E226503D0A1
:10156000FF0E396F04D022C039F0180E3927180E3B
:10157000236103D0000E3A6F04D023C03AF0180E56
:101580003A5FE70E236503D0FF0E3B6F04D023C004
:101590003BF0180E3B27180E246103D0000E546F49
:1015A00004D024C054F0180E545FE70E246503D015
:1015B000FF0E556F04D024C055F0180E5527180E95
:1015C000256103D0000E566F04D025C056F0180ECA
:1015D000565FE70E256503D0FF0E576F04D025C078
:1015E00057F0180E5727180E266103D0000E586FBB
:1015F00004D026C058F0180E585FE70E266503D0B9
:10160000FF0E596F04D026C059F0180E5927180E36
:10161000276103D0000E726F04D027C072F0180E3D
:10162000725FE70E276503D0FF0E736F04D027C0EB
:1016300073F0180E7327180E286103D0000E746F14
:1016400004D028C074F0180E745FE70E286503D02C
:10165000FF0E756F04D028C075F0180E7527180E90
:10166000296103D0000E766F04D029C076F0180EE1
:10167000765FE70E296503D0FF0E776F04D029C08F
:1016800077F0180E7727180E2A6103D0000E906F9E
:1016900004D02AC090F0180E905FE70E2A6503D0A0
:1016A000FF0E916F04D02AC091F0180E9127180EEA
:1016B0002B6103D0000E926F04D02BC092F0180E55
:1016C000925FE70E2B6503D0FF0E936F04D02BC003
:1016D00093F0180E9327180E2C6103D0000E946F10
:1016E00004D02CC094F0180E945FE70E2C6503D044
:1016F000FF0E956F04D02CC095F0180E9527180E8C
:101700002D6103D0000EAE6F04D02DC0AEF0180EC8
:10171000AE5FE70E2D6503D0FF0EAF6F04D02DC076
:10172000AFF0180EAF27180E2E6103D0000EB06F69
:1017300004D02EC0B0F0180EB05FE70E2E6503D0B7
:10174000FF0EB16F04D02EC0B1F0180EB127180EE5
:101750002F6103D0000EB26F04D02FC0B2F0180E6C
:10176000B25FE70E2F6503D0FF0EB36F04D02FC01A
:10177000B3F0180EB327030E016E500E806E830E69
:10178000D56E600ED76EAA0ED66EF294D58EF2A4E8
:10179000FDD7D59E806A830ED56E600ED76EAA0ED9
:1017A000D66EF294D58EF2A4FDD7D59E012EE5D744
:1017B000806A12004D0EC26E828482828290C28242
:1017C000C2B2FED7C4CF21F082808292C282C2B25E
:1017D000FED7C4CF22F082828294C282C2B2FED7E8
:1017E000C4CF23F08284490EC26E828482828290AA
:1017F000C282C2B2FED7C4CF24F082808292C2825B
:10180000C2B2FED7C4CF25F082828294C282C2B215
:10181000FED7C4CF26F08284450EC26E82848282B7
:101820008290C282C2B2FED7C4CF27F08280829259
:10183000C282C2B2FED7C4CF28F082828294C28212
:10184000C2B2FED7C4CF29F082845D0EC26E8284FC
:1018500082828290C282C2B2FED7C4CF2AF0828036
:101860008292C282C2B2FED7C4CF2BF0828282940F
:10187000C282C2B2FED7C4CF2CF08284590EC26E8F
:10188000828482828290C282C2B2FED7C4CF2DF0FF
:1018900082808292C282C2B2FED7C4CF2EF08282F0
:1018A0008294C282C2B2FED7C4CF2FF082841200CB
:1018B0000F01399B939B819A830ED56EFD0ED76ED7
:1018C000DD0ED66EF294D58EF2A4FDD7D59E818A18
:1018D000830ED56EFD0ED76EDD0ED66EF294D58ECC
:1018E000F2A4FDD7D59E819A398B938B0001830E8C
:1018F000D56EF50ED76EFF0ED66EF294D58EF2A48D
:10190000FDD7D59EC282C2B2FED7C4CF08F0650E05
:10191000086002D0086A01D008681200350EC26E55
:10192000830ED56EFD0ED76EDD0ED66EF294D58E7B
:10193000F2A4FDD7D59E58EC0CF01200086602D038
:10194000809801D0808812008EEC0CF0086601D0DF
:10195000FBD7830ED56E600ED76EAA0ED66EF294AC
:10196000D58EF2A4FDD7D59E12008EEC0CF0086641
:1019700001D0FBD71200836A83BA05D083BC06D09E
:1019800083BE07D003D0010E076E1200020E076E51
:101990001200030E076E1200000E076203D0700ED5
:1019A000806E1200010E076203D0500E806E12008E
:1019B000020E076203D07C0E806E1200030E0762D7
:1019C00003D06F0E806E12003F0E806E12004CEC42
:1019D00005F0BBEC0CF0B5EC0CF0CCEC0CF005EC2D
:1019E00000F0FDD7200E086002D0086A01D0085E22
:1019F000F9D7DE0E086403D0FE0E086E02D0200E6A
:101A00000826F7D7590EC26E826882900000C28203
:101A1000C2B2FED7C4CF01F0826882920000C282B7
:101A2000C2B2FED7C4CF02F0826882940000C282A4
:0C1A3000C2B2FED7C4CF03F0E5D712000D
:020000040030CA
:03000100281F3C79
:02000500BA85BA
:060008000FC00FE00F40E5
:00000001FF
