:1000000006EC00F0DDEF1AF0F4EF05F00F010E6AD8
:10001000806A896A000E386F000E926F816A8A6A60
:10002000200E396FE60E936F826A8B6AE00E3A6F8C
:10003000F80E946F836A8C6A0C0E3B6FCC0E956F32
:10004000846A8D6A000E3C6E000E966E740ED36E3E
:100050003A0EC06E000EC16E3D0EC26E330E756E4E
:10006000766A000E706E240E726E900E716E270E00
:10007000C86EC76AC78E280EC66EC56A48EC00F007
:10008000A49AA38A9E96A196F28FF28C0001120088
:100090000F010F01496B0F01F90EBB6F0F01000E2D
:1000A000676F0F01000E5E6F0F01000E586F0F019A
:1000B000000E556F3C0E0F01666F0F015D6F0F0153
:1000C000576F0F01546F040EBA6F010E3E6E12008F
:1000D00073EC00F098EC00F0BDEC00F0E2EC00F006
:1000E00007EC01F012004D0EC26E830ED56EFD0EB0
:1000F000D76EDD0ED66EF294D58EF2A4FDD7D59EC6
:10010000828482828290C282C2B2FED7C4CF21F0A2
:1001100082808292C282C2B2FED7C4CF22F0828293
:100120008294C282C2B2FED7C4CF23F0828412006E
:10013000490EC26E830ED56EFD0ED76EDD0ED66EE5
:10014000F294D58EF2A4FDD7D59E828482828290CD
:10015000C282C2B2FED7C4CF24F082808292C28211
:10016000C2B2FED7C4CF25F082828294C282C2B2CC
:10017000FED7C4CF26F082841200450EC26E830ED5
:10018000D56EFD0ED76EDD0ED66EF294D58EF2A42E
:10019000FDD7D59E828482828290C282C2B2FED76F
:1001A000C4CF27F082808292C282C2B2FED7C4CF6F
:1001B00028F082828294C282C2B2FED7C4CF29F0D4
:1001C000828412005D0EC26E830ED56EFD0ED76E58
:1001D000DD0ED66EF294D58EF2A4FDD7D59E828424
:1001E00082828290C282C2B2FED7C4CF2AF08280BD
:1001F0008292C282C2B2FED7C4CF2BF08282829496
:10020000C282C2B2FED7C4CF2CF082841200590E33
:10021000C26E830ED56EFD0ED76EDD0ED66EF294D5
:10022000D58EF2A4FDD7D59E828482828290C2822E
:10023000C2B2FED7C4CF2DF082808292C282C2B2F7
:10024000FED7C4CF2EF082828294C282C2B2FED781
:10025000C4CF2FF0828412000F01399B939B819AA7
:10026000830ED56EFD0ED76EDD0ED66EF294D58E52
:10027000F2A4FDD7D59E818A830ED56EFD0ED76E72
:10028000DD0ED66EF294D58EF2A4FDD7D59E819A5E
:10029000398B938B0001830ED56EF50ED76EFF0E52
:1002A000D66EF294D58EF2A4FDD7D59EC282C2B28C
:1002B000FED7C4CF0DF0650E0D6002D00D6A01D0DF
:1002C0000D681200350EC26E830ED56EFD0ED76E10
:1002D000DD0ED66EF294D58EF2A4FDD7D59E2CEC11
:1002E00001F074EC01F012000D6602D0809801D08C
:1002F0008088120062EC01F00D6601D0FBD7830EFE
:10030000D56E600ED76EAA0ED66EF294D58EF2A47C
:10031000FDD7D59E120062EC01F00D6601D0FBD72F
:100320001200040E076201D004D0E806F9D71200CB
:10033000016A68EC00F00001040E076F30C0E8FFAE
:10034000216101D004D031C0E8FF216501D015D072
:1003500032C0E8FF226101D004D033C0E8FF22653B
:1003600001D00BD034C0E8FF236101D004D035C0E8
:10037000E8FF236501D001D083D007073CC0E8FF28
:10038000216101D004D03DC0E8FF216501D015D026
:100390003EC0E8FF226101D004D03FC0E8FF2265E3
:1003A00001D00BD040C0E8FF236101D004D041C090
:1003B000E8FF236501D001D063D0070742C0E8FF02
:1003C000216101D004D043C0E8FF216501D015D0E0
:1003D00044C0E8FF226101D004D045C0E8FF226597
:1003E00001D00BD046C0E8FF236101D004D047C044
:1003F000E8FF236501D001D043D0070736C0E8FFEE
:10040000216101D004D037C0E8FF216501D015D0AB
:1004100038C0E8FF226101D004D039C0E8FF22656E
:1004200001D00BD03AC0E8FF236101D004D03BC01B
:10043000E8FF236501D001D023D0070748C0E8FFBB
:10044000216101D004D049C0E8FF216501D015D059
:100450004AC0E8FF226101D004D04BC0E8FF22650A
:1004600001D00BD04CC0E8FF236101D004D04DC0B7
:10047000E8FF236501D001D003D0450E076F00D0FF
:100480000590000E076201D0012A08C0E8FF07624C
:1004900001D005800001040E076F4EC0E8FF246103
:1004A00001D004D04FC0E8FF246501D015D050C062
:1004B000E8FF256101D004D051C0E8FF256501D0D7
:1004C0000BD052C0E8FF266101D004D053C0E8FF32
:1004D000266501D001D083D007075AC0E8FF246108
:1004E00001D004D05BC0E8FF246501D015D05CC00A
:1004F000E8FF256101D004D05DC0E8FF256501D08B
:100500000BD05EC0E8FF266101D004D05FC0E8FFD9
:10051000266501D001D063D0070760C0E8FF2461E1
:1005200001D004D061C0E8FF246501D015D062C0BD
:10053000E8FF256101D004D063C0E8FF256501D044
:100540000BD064C0E8FF266101D004D065C0E8FF8D
:10055000266501D001D043D0070754C0E8FF2461CD
:1005600001D004D055C0E8FF246501D015D056C095
:10057000E8FF256101D004D057C0E8FF256501D010
:100580000BD058C0E8FF266101D004D059C0E8FF65
:10059000266501D001D023D0070766C0E8FF24619B
:1005A00001D004D067C0E8FF246501D015D068C031
:1005B000E8FF256101D004D069C0E8FF256501D0BE
:1005C0000BD06AC0E8FF266101D004D06BC0E8FF01
:1005D000266501D001D003D0450E076F00D00592EB
:1005E000000E076201D0012A08C0E8FF076201D0AF
:1005F00005820001040E076F6CC0E8FF276101D07F
:1006000004D06DC0E8FF276501D015D06EC0E8FFAB
:10061000286101D004D06FC0E8FF286501D00BD05D
:1006200070C0E8FF296101D004D071C0E8FF2965DE
:1006300001D001D083D0070778C0E8FF276101D03F
:1006400004D079C0E8FF276501D015D07AC0E8FF53
:10065000286101D004D07BC0E8FF286501D00BD011
:100660007CC0E8FF296101D004D07DC0E8FF296586
:1006700001D001D063D007077EC0E8FF276101D019
:1006800004D07FC0E8FF276501D015D080C0E8FF07
:10069000286101D004D081C0E8FF286501D00BD0CB
:1006A00082C0E8FF296101D004D083C0E8FF29653A
:1006B00001D001D043D0070772C0E8FF276101D005
:1006C00004D073C0E8FF276501D015D074C0E8FFDF
:1006D000286101D004D075C0E8FF286501D00BD097
:1006E00076C0E8FF296101D004D077C0E8FF296512
:1006F00001D001D023D0070784C0E8FF276101D0D3
:1007000004D085C0E8FF276501D015D086C0E8FF7A
:10071000286101D004D087C0E8FF286501D00BD044
:1007200088C0E8FF296101D004D089C0E8FF2965AD
:1007300001D001D003D0450E076F00D00594000E04
:10074000076201D0012A08C0E8FF076201D00584D2
:100750000001040E076F8AC0E8FF2A6101D004D0AF
:100760008BC0E8FF2A6501D015D08CC0E8FF2B6153
:1007700001D004D08DC0E8FF2B6501D00BD08EC016
:10078000E8FF2C6101D004D08FC0E8FF2C6501D0B8
:1007900001D083D0070796C0E8FF2A6101D004D0BA
:1007A00097C0E8FF2A6501D015D098C0E8FF2B61FB
:1007B00001D004D099C0E8FF2B6501D00BD09AC0BE
:1007C000E8FF2C6101D004D09BC0E8FF2C6501D06C
:1007D00001D063D007079CC0E8FF2A6101D004D094
:1007E0009DC0E8FF2A6501D015D09EC0E8FF2B61AF
:1007F00001D004D09FC0E8FF2B6501D00BD0A0C072
:10080000E8FF2C6101D004D0A1C0E8FF2C6501D025
:1008100001D043D0070790C0E8FF2A6101D004D07F
:1008200091C0E8FF2A6501D015D092C0E8FF2B6186
:1008300001D004D093C0E8FF2B6501D00BD094C049
:10084000E8FF2C6101D004D095C0E8FF2C6501D0F1
:1008500001D023D00707A2C0E8FF2A6101D004D04D
:10086000A3C0E8FF2A6501D015D0A4C0E8FF2B6122
:1008700001D004D0A5C0E8FF2B6501D00BD0A6C0E5
:10088000E8FF2C6101D004D0A7C0E8FF2C6501D09F
:1008900001D003D0450E076F00D00596000E076209
:1008A00001D0012A08C0E8FF076201D005860001D7
:1008B000040E076FA8C0E8FF2D6101D004D0A9C0C5
:1008C000E8FF2D6501D015D0AAC0E8FF2E6101D048
:1008D00004D0ABC0E8FF2E6501D00BD0ACC0E8FF60
:1008E0002F6101D004D0ADC0E8FF2F6501D001D049
:1008F00083D00707B4C0E8FF2D6101D004D0B5C094
:10090000E8FF2D6501D015D0B6C0E8FF2E6101D0FB
:1009100004D0B7C0E8FF2E6501D00BD0B8C0E8FF07
:100920002F6101D004D0B9C0E8FF2F6501D001D0FC
:1009300063D00707BAC0E8FF2D6101D004D0BBC067
:10094000E8FF2D6501D015D0BCC0E8FF2E6101D0B5
:1009500004D0BDC0E8FF2E6501D00BD0BEC0E8FFBB
:100960002F6101D004D0BFC0E8FF2F6501D001D0B6
:1009700043D00707AEC0E8FF2D6101D004D0AFC05F
:10098000E8FF2D6501D015D0B0C0E8FF2E6101D081
:1009900004D0B1C0E8FF2E6501D00BD0B2C0E8FF93
:1009A0002F6101D004D0B3C0E8FF2F6501D001D082
:1009B00023D00707C0C0E8FF2D6101D004D0C1C01B
:1009C000E8FF2D6501D015D0C2C0E8FF2E6101D02F
:1009D00004D0C3C0E8FF2E6501D00BD0C4C0E8FF2F
:1009E0002F6101D004D0C5C0E8FF2F6501D001D030
:1009F00003D0450E076F00D00598000E076201D0A6
:100A0000012A08C0E8FF076201D00588050E0162CF
:100A100003D086EC13F001D0FAEC12F0120013ECC4
:100A200005F0086E1200016A81AC01D0018181AE2F
:100A300001D00182000E016203D0000E836E000C13
:100A4000010E016203D0040E836E010C020E0162DE
:100A500003D0100E836E020C030E016203D0080E49
:100A6000836E030C000E836E000C000E086201D032
:100A7000700C010E086201D0500C020E086201D009
:100A80007C0C030E086201D06F0C3F0C98EC01F057
:100A9000120073EC00F00001040E076F30C0E8FF95
:100AA000216101D004D031C0E8FF216501D015D00B
:100AB00032C0E8FF226101D004D033C0E8FF2265D4
:100AC00001D00BD034C0E8FF236101D004D035C081
:100AD000E8FF236501D001D084D007073CC0E8FFC0
:100AE000216101D004D03DC0E8FF216501D015D0BF
:100AF0003EC0E8FF226101D004D03FC0E8FF22657C
:100B000001D00BD040C0E8FF236101D004D041C028
:100B1000E8FF236501D001D064D0070742C0E8FF99
:100B2000216101D004D043C0E8FF216501D015D078
:100B300044C0E8FF226101D004D045C0E8FF22652F
:100B400001D00BD046C0E8FF236101D004D047C0DC
:100B5000E8FF236501D001D044D0070736C0E8FF85
:100B6000216101D004D037C0E8FF216501D015D044
:100B700038C0E8FF226101D004D039C0E8FF226507
:100B800001D00BD03AC0E8FF236101D004D03BC0B4
:100B9000E8FF236501D001D024D0070748C0E8FF53
:100BA000216101D004D049C0E8FF216501D015D0F2
:100BB0004AC0E8FF226101D004D04BC0E8FF2265A3
:100BC00001D00BD04CC0E8FF236101D004D04DC050
:100BD000E8FF236501D001D004D0450E076F01D096
:100BE00058D791EC01F055D7A4BA01D01CD011A070
:100BF00004D00F6A02EE00F0116A7450EE6E0F2AF4
:100C000071500A0E746201D005D0FE0E0F6201D041
:100C100001D009D01180D5EC14F005D08150F290AC
:100C20000FEC05F000D010005DEC15F0806A490E65
:100C3000806E94EC15F0A4EC15F08BEC01F068ECF0
:100C400000F0200E216103D0000E306F04D021C0CF
:100C500030F0200E305FDF0E216503D0FF0E316FC4
:100C600004D021C031F0200E3127200E226103D0A4
:100C7000000E326F04D022C032F0200E325FDF0E41
:100C8000226503D0FF0E336F04D022C033F0200E54
:100C90003327200E236103D0000E346F04D023C00D
:100CA00034F0200E345FDF0E236503D0FF0E356F66
:100CB00004D023C035F0200E3527200E246103D048
:100CC000000E4E6F04D024C04EF0200E4E5FDF0E9B
:100CD000246503D0FF0E4F6F04D024C04FF0200EC8
:100CE0004F27200E256103D0000E506F04D025C081
:100CF00050F0200E505FDF0E256503D0FF0E516FC0
:100D000004D025C051F0200E5127200E266103D0BB
:100D1000000E526F04D026C052F0200E525FDF0E3C
:100D2000266503D0FF0E536F04D026C053F0200E6B
:100D30005327200E276103D0000E6C6F04D027C00C
:100D40006CF0200E6C5FDF0E276503D0FF0E6D6F19
:100D500004D027C06DF0200E6D27200E286103D02F
:100D6000000E6E6F04D028C06EF0200E6E5FDF0E96
:100D7000286503D0FF0E6F6F04D028C06FF0200EDF
:100D80006F27200E296103D0000E706F04D029C098
:100D900070F0200E705FDF0E296503D0FF0E716FBB
:100DA00004D029C071F0200E7127200E2A6103D0D3
:100DB000000E8A6F04D02AC08AF0200E8A5FDF0EF0
:100DC0002A6503D0FF0E8B6F04D02AC08BF0200E53
:100DD0008B27200E2B6103D0000E8C6F04D02BC00C
:100DE0008CF0200E8C5FDF0E2B6503D0FF0E8D6F15
:100DF00004D02BC08DF0200E8D27200E2C6103D047
:100E0000000E8E6F04D02CC08EF0200E8E5FDF0E91
:100E10002C6503D0FF0E8F6F04D02CC08FF0200EF6
:100E20008F27200E2D6103D0000EA86F04D02DC097
:100E3000A8F0200EA85FDF0E2D6503D0FF0EA96F6E
:100E400004D02DC0A9F0200EA927200E2E6103D0BA
:100E5000000EAA6F04D02EC0AAF0200EAA5FDF0EEB
:100E60002E6503D0FF0EAB6F04D02EC0ABF0200E6A
:100E7000AB27200E2F6103D0000EAC6F04D02FC023
:100E8000ACF0200EAC5FDF0E2F6503D0FF0EAD6F10
:100E900004D02FC0ADF0200EAD27030E016E490E19
:100EA000806E830ED56E600ED76EAA0ED66EF2944B
:100EB000D58EF2A4FDD7D59E806A830ED56E600EC6
:100EC000D76EAA0ED66EF294D58EF2A4FDD7D59E1B
:100ED000012EE5D7D9EC15F06F0E806E94EC15F06D
:100EE000B9EC15F08BEC01F068EC00F0200E2161FC
:100EF00003D0000E3C6F04D021C03CF0200E3C5FBC
:100F0000DF0E216503D0FF0E3D6F04D021C03DF000
:100F1000200E3D27200E226103D0000E3E6F04D02C
:100F200022C03EF0200E3E5FDF0E226503D0FF0E92
:100F30003F6F04D022C03FF0200E3F27200E2361D8
:100F400003D0000E406F04D023C040F0200E405F5D
:100F5000DF0E236503D0FF0E416F04D023C041F0A4
:100F6000200E4127200E246103D0000E5A6F04D0BA
:100F700024C05AF0200E5A5FDF0E246503D0FF0E06
:100F80005B6F04D024C05BF0200E5B27200E256130
:100F900003D0000E5C6F04D025C05CF0200E5C5FB7
:100FA000DF0E256503D0FF0E5D6F04D025C05DF018
:100FB000200E5D27200E266103D0000E5E6F04D048
:100FC00026C05EF0200E5E5FDF0E266503D0FF0EAA
:100FD0005F6F04D026C05FF0200E5F27200E2761D0
:100FE00003D0000E786F04D027C078F0200E785F11
:100FF000DF0E276503D0FF0E796F04D027C079F08C
:10100000200E7927200E286103D0000E7A6F04D0BD
:1010100028C07AF0200E7A5FDF0E286503D0FF0E1D
:101020007B6F04D028C07BF0200E7B27200E296127
:1010300003D0000E7C6F04D029C07CF0200E7C5FB2
:10104000DF0E296503D0FF0E7D6F04D029C07DF02F
:10105000200E7D27200E2A6103D0000E966F04D04B
:101060002AC096F0200E965FDF0E2A6503D0FF0E91
:10107000976F04D02AC097F0200E9727200E2B617F
:1010800003D0000E986F04D02BC098F0200E985F0C
:10109000DF0E2B6503D0FF0E996F04D02BC099F0A3
:1010A000200E9927200E2C6103D0000E9A6F04D0D9
:1010B0002CC09AF0200E9A5FDF0E2C6503D0FF0E35
:1010C0009B6F04D02CC09BF0200E9B27200E2D611F
:1010D00003D0000EB46F04D02DC0B4F0200EB45F66
:1010E000DF0E2D6503D0FF0EB56F04D02DC0B5F017
:1010F000200EB527200E2E6103D0000EB66F04D04F
:101100002EC0B6F0200EB65FDF0E2E6503D0FF0EA8
:10111000B76F04D02EC0B7F0200EB727200E2F6176
:1011200003D0000EB86F04D02FC0B8F0200EB85F07
:10113000DF0E2F6503D0FF0EB96F04D02FC0B9F0BA
:10114000200EB927030E016E6F0E806E830ED56ED2
:10115000600ED76EAA0ED66EF294D58EF2A4FDD78D
:10116000D59E806A830ED56E600ED76EAA0ED66E9F
:10117000F294D58EF2A4FDD7D59E012EE5D7D9ECF9
:1011800015F07C0E806E94EC15F0C4EC15F08BEC31
:1011900001F068EC00F0200E216103D0000E426FD8
:1011A00004D021C042F0200E425FDF0E216503D043
:1011B000FF0E436F04D021C043F0200E4327200EC2
:1011C000226103D0000E446F04D022C044F0200EF0
:1011D000445FDF0E226503D0FF0E456F04D022C0AE
:1011E00045F0200E4527200E236103D0000E466FE8
:1011F00004D023C046F0200E465FDF0E236503D0E7
:10120000FF0E476F04D023C047F0200E4727200E63
:10121000246103D0000E606F04D024C060F0200E63
:10122000605FDF0E246503D0FF0E616F04D024C021
:1012300061F0200E6127200E256103D0000E626F41
:1012400004D025C062F0200E625FDF0E256503D05A
:10125000FF0E636F04D025C063F0200E6327200EBD
:10126000266103D0000E646F04D026C064F0200E07
:10127000645FDF0E266503D0FF0E656F04D026C0C5
:1012800065F0200E6527200E276103D0000E7E6FCB
:1012900004D027C07EF0200E7E5FDF0E276503D0CE
:1012A000FF0E7F6F04D027C07FF0200E7F27200E17
:1012B000286103D0000E806F04D028C080F0200E7B
:1012C000805FDF0E286503D0FF0E816F04D028C039
:1012D00081F0200E8127200E296103D0000E826F3D
:1012E00004D029C082F0200E825FDF0E296503D072
:1012F000FF0E836F04D029C083F0200E8327200EB9
:101300002A6103D0000E9C6F04D02AC09CF0200EEE
:101310009C5FDF0E2A6503D0FF0E9D6F04D02AC0AC
:101320009DF0200E9D27200E2B6103D0000E9E6F96
:1013300004D02BC09EF0200E9E5FDF0E2B6503D0E5
:10134000FF0E9F6F04D02BC09FF0200E9F27200E12
:101350002C6103D0000EA06F04D02CC0A0F0200E92
:10136000A05FDF0E2C6503D0FF0EA16F04D02CC050
:10137000A1F0200EA127200E2D6103D0000EBA6F20
:1013800004D02DC0BAF0200EBA5FDF0E2D6503D059
:10139000FF0EBB6F04D02DC0BBF0200EBB27200E6C
:1013A0002E6103D0000EBC6F04D02EC0BCF0200E06
:1013B000BC5FDF0E2E6503D0FF0EBD6F04D02EC0C4
:1013C000BDF0200EBD27200E2F6103D0000EBE6F92
:1013D00004D02FC0BEF0200EBE5FDF0E2F6503D0FD
:1013E000FF0EBF6F04D02FC0BFF0200EBF27030E2B
:1013F000016E7C0E806E830ED56E600ED76EAA0EC7
:10140000D66EF294D58EF2A4FDD7D59E806A830E57
:10141000D56E600ED76EAA0ED66EF294D58EF2A45B
:10142000FDD7D59E012EE5D7D9EC15F0700E806E54
:1014300094EC15F0CEEC15F08BEC01F068EC00F0BC
:10144000200E216103D0000E486F04D021C048F067
:10145000200E485FDF0E216503D0FF0E496F04D0D8
:1014600021C049F0200E4927200E226103D0000E32
:101470004A6F04D022C04AF0200E4A5FDF0E226578
:1014800003D0FF0E4B6F04D022C04BF0200E4B2731
:10149000200E236103D0000E4C6F04D023C04CF00B
:1014A000200E4C5FDF0E236503D0FF0E4D6F04D07E
:1014B00023C04DF0200E4D27200E246103D0000ED6
:1014C000666F04D024C066F0200E665FDF0E2465D0
:1014D00003D0FF0E676F04D024C067F0200E67278B
:1014E000200E256103D0000E686F04D025C068F07F
:1014F000200E685FDF0E256503D0FF0E696F04D0F4
:1015000025C069F0200E6927200E266103D0000E49
:101510006A6F04D026C06AF0200E6A5FDF0E26656F
:1015200003D0FF0E6B6F04D026C06BF0200E6B272C
:10153000200E276103D0000E846F04D027C084F0F2
:10154000200E845FDF0E276503D0FF0E856F04D069
:1015500027C085F0200E8527200E286103D0000EBD
:10156000866F04D028C086F0200E865FDF0E2865C7
:1015700003D0FF0E876F04D028C087F0200E872786
:10158000200E296103D0000E886F04D029C088F096
:10159000200E885FDF0E296503D0FF0E896F04D00F
:1015A00029C089F0200E8927200E2A6103D0000E61
:1015B000A26F04D02AC0A2F0200EA25FDF0E2A651F
:1015C00003D0FF0EA36F04D02AC0A3F0200EA327E0
:1015D000200E2B6103D0000EA46F04D02BC0A4F00A
:1015E000200EA45FDF0E2B6503D0FF0EA56F04D085
:1015F0002BC0A5F0200EA527200E2C6103D0000ED5
:10160000A66F04D02CC0A6F0200EA65FDF0E2C65BE
:1016100003D0FF0EA76F04D02CC0A7F0200EA72781
:10162000200E2D6103D0000EC06F04D02DC0C0F07D
:10163000200EC05FDF0E2D6503D0FF0EC16F04D0FA
:101640002DC0C1F0200EC127200E2E6103D0000E48
:10165000C26F04D02EC0C2F0200EC25FDF0E2E6516
:1016600003D0FF0EC36F04D02EC0C3F0200EC327DB
:10167000200E2F6103D0000EC46F04D02FC0C4F021
:10168000200EC45FDF0E2F6503D0FF0EC56F04D0A0
:101690002FC0C5F0200EC527030E016E700E806EA0
:1016A000830ED56E600ED76EAA0ED66EF294D58ECE
:1016B000F2A4FDD7D59E806A830ED56E600ED76EDC
:1016C000AA0ED66EF294D58EF2A4FDD7D59E012E29
:1016D000E5D7D9EC15F0500E806E94EC15F0AFEC18
:1016E00015F08BEC01F068EC00F0200E216103D0C6
:1016F000000E366F04D021C036F0200E365FDF0EAC
:10170000216503D0FF0E376F04D021C037F0200EC3
:101710003727200E226103D0000E386F04D022C07C
:1017200038F0200E385FDF0E226503D0FF0E396FD0
:1017300004D022C039F0200E3927200E236103D0B7
:10174000000E3A6F04D023C03AF0200E3A5FDF0E4D
:10175000236503D0FF0E3B6F04D023C03BF0200E67
:101760003B27200E246103D0000E546F04D024C008
:1017700054F0200E545FDF0E246503D0FF0E556F2A
:1017800004D024C055F0200E5527200E256103D02B
:10179000000E566F04D025C056F0200E565FDF0EA7
:1017A000256503D0FF0E576F04D025C057F0200EDB
:1017B0005727200E266103D0000E586F04D026C094
:1017C00058F0200E585FDF0E266503D0FF0E596FCC
:1017D00004D026C059F0200E5927200E276103D0CF
:1017E000000E726F04D027C072F0200E725FDF0E01
:1017F000276503D0FF0E736F04D027C073F0200E4F
:101800007327200E286103D0000E746F04D028C007
:1018100074F0200E745FDF0E286503D0FF0E756F25
:1018200004D028C075F0200E7527200E296103D042
:10183000000E766F04D029C076F0200E765FDF0EA2
:10184000296503D0FF0E776F04D029C077F0200EF2
:101850007727200E2A6103D0000E906F04D02AC093
:1018600090F0200E905FDF0E2A6503D0FF0E916F7F
:1018700004D02AC091F0200E9127200E2B6103D0B6
:10188000000E926F04D02BC092F0200E925FDF0EFC
:101890002B6503D0FF0E936F04D02BC093F0200E66
:1018A0009327200E2C6103D0000E946F04D02CC01F
:1018B00094F0200E945FDF0E2C6503D0FF0E956F21
:1018C00004D02CC095F0200E9527200E2D6103D05A
:1018D000000EAE6F04D02DC0AEF0200EAE5FDF0E56
:1018E0002D6503D0FF0EAF6F04D02DC0AFF0200EDA
:1018F000AF27200E2E6103D0000EB06F04D02EC093
:10190000B0F0200EB05FDF0E2E6503D0FF0EB16F7A
:1019100004D02EC0B1F0200EB127200E2F6103D0CD
:10192000000EB26F04D02FC0B2F0200EB25FDF0EF7
:101930002F6503D0FF0EB36F04D02FC0B3F0200E7D
:10194000B327030E016E500E806E830ED56E600EAF
:10195000D76EAA0ED66EF294D58EF2A4FDD7D59E80
:10196000806A830ED56E600ED76EAA0ED66EF29484
:10197000D58EF2A4FDD7D59E012EE5D7D9EC15F072
:101980000980806A1200FA0E216E246E276E2A6E7C
:101990002D6EFA0E226E256E286E2B6E2E6EFA0EAE
:1019A000236E266E296E2C6E2F6E200E216103D0C1
:1019B000000E306F04D021C030F0200E305FDF0EFB
:1019C000216503D0FF0E316F04D021C031F0200E0D
:1019D0003127200E226103D0000E326F04D022C0C6
:1019E00032F0200E325FDF0E226503D0FF0E336F20
:1019F00004D022C033F0200E3327200E236103D001
:101A0000000E346F04D023C034F0200E345FDF0E9C
:101A1000236503D0FF0E356F04D023C035F0200EB0
:101A20003527200E246103D0000E4E6F04D024C051
:101A30004EF0200E4E5FDF0E246503D0FF0E4F6F79
:101A400004D024C04FF0200E4F27200E256103D074
:101A5000000E506F04D025C050F0200E505FDF0EF6
:101A6000256503D0FF0E516F04D025C051F0200E24
:101A70005127200E266103D0000E526F04D026C0DD
:101A800052F0200E525FDF0E266503D0FF0E536F1B
:101A900004D026C053F0200E5327200E276103D018
:101AA000000E6C6F04D027C06CF0200E6C5FDF0E50
:101AB000276503D0FF0E6D6F04D027C06DF0200E98
:101AC0006D27200E286103D0000E6E6F04D028C051
:101AD0006EF0200E6E5FDF0E286503D0FF0E6F6F75
:101AE00004D028C06FF0200E6F27200E296103D08C
:101AF000000E706F04D029C070F0200E705FDF0EF2
:101B0000296503D0FF0E716F04D029C071F0200E3B
:101B10007127200E2A6103D0000E8A6F04D02AC0DC
:101B20008AF0200E8A5FDF0E2A6503D0FF0E8B6FCE
:101B300004D02AC08BF0200E8B27200E2B6103D0FF
:101B4000000E8C6F04D02BC08CF0200E8C5FDF0E4B
:101B50002B6503D0FF0E8D6F04D02BC08DF0200EAF
:101B60008D27200E2C6103D0000E8E6F04D02CC068
:101B70008EF0200E8E5FDF0E2C6503D0FF0E8F6F70
:101B800004D02CC08FF0200E8F27200E2D6103D0A3
:101B9000000EA86F04D02DC0A8F0200EA85FDF0EA5
:101BA0002D6503D0FF0EA96F04D02DC0A9F0200E23
:101BB000A927200E2E6103D0000EAA6F04D02EC0DC
:101BC000AAF0200EAA5FDF0E2E6503D0FF0EAB6FCA
:101BD00004D02EC0ABF0200EAB27200E2F6103D017
:101BE000000EAC6F04D02FC0ACF0200EAC5FDF0E47
:101BF0002F6503D0FF0EAD6F04D02FC0ADF0200EC7
:101C0000AD27080E216E246E276E2A6E2D6E0A0EE9
:101C1000226E256E286E2B6E2E6E0F0E236E266E94
:101C2000296E2C6E2F6E200E216103D0000E486F9E
:101C300004D021C048F0200E485FDF0E216503D09C
:101C4000FF0E496F04D021C049F0200E4927200E15
:101C5000226103D0000E4A6F04D022C04AF0200E49
:101C60004A5FDF0E226503D0FF0E4B6F04D022C007
:101C70004BF0200E4B27200E236103D0000E4C6F3B
:101C800004D023C04CF0200E4C5FDF0E236503D040
:101C9000FF0E4D6F04D023C04DF0200E4D27200EB7
:101CA000246103D0000E666F04D024C066F0200EBD
:101CB000665FDF0E246503D0FF0E676F04D024C07B
:101CC00067F0200E6727200E256103D0000E686F95
:101CD00004D025C068F0200E685FDF0E256503D0B4
:101CE000FF0E696F04D025C069F0200E6927200E11
:101CF000266103D0000E6A6F04D026C06AF0200E61
:101D00006A5FDF0E266503D0FF0E6B6F04D026C01E
:101D10006BF0200E6B27200E276103D0000E846F1E
:101D200004D027C084F0200E845FDF0E276503D027
:101D3000FF0E856F04D027C085F0200E8527200E6A
:101D4000286103D0000E866F04D028C086F0200ED4
:101D5000865FDF0E286503D0FF0E876F04D028C092
:101D600087F0200E8727200E296103D0000E886F90
:101D700004D029C088F0200E885FDF0E296503D0CB
:101D8000FF0E896F04D029C089F0200E8927200E0C
:101D90002A6103D0000EA26F04D02AC0A2F0200E48
:101DA000A25FDF0E2A6503D0FF0EA36F04D02AC006
:101DB000A3F0200EA327200E2B6103D0000EA46FEA
:101DC00004D02BC0A4F0200EA45FDF0E2B6503D03F
:101DD000FF0EA56F04D02BC0A5F0200EA527200E66
:101DE0002C6103D0000EA66F04D02CC0A6F0200EEC
:101DF000A65FDF0E2C6503D0FF0EA76F04D02CC0AA
:101E0000A7F0200EA727200E2D6103D0000EC06F73
:101E100004D02DC0C0F0200EC05FDF0E2D6503D0B2
:101E2000FF0EC16F04D02DC0C1F0200EC127200EBF
:101E30002E6103D0000EC26F04D02EC0C2F0200E5F
:101E4000C25FDF0E2E6503D0FF0EC36F04D02EC01D
:101E5000C3F0200EC327200E2F6103D0000EC46FE5
:101E600004D02FC0C4F0200EC45FDF0E2F6503D056
:101E7000FF0EC56F04D02FC0C5F0200EC527EE0E93
:101E8000216E246E276E2A6E2D6E270E226E256E11
:101E9000286E2B6E2E6E320E236E266E296E2C6EE1
:101EA0002F6E200E216103D0000E366F04D021C0AA
:101EB00036F0200E365FDF0E216503D0FF0E376F40
:101EC00004D021C037F0200E3727200E226103D026
:101ED000000E386F04D022C038F0200E385FDF0EBD
:101EE000226503D0FF0E396F04D022C039F0200ED6
:101EF0003927200E236103D0000E3A6F04D023C08F
:101F00003AF0200E3A5FDF0E236503D0FF0E3B6FE1
:101F100004D023C03BF0200E3B27200E246103D0C9
:101F2000000E546F04D024C054F0200E545FDF0E16
:101F3000246503D0FF0E556F04D024C055F0200E49
:101F40005527200E256103D0000E566F04D025C002
:101F500056F0200E565FDF0E256503D0FF0E576F3B
:101F600004D025C057F0200E5727200E266103D03D
:101F7000000E586F04D026C058F0200E585FDF0EB8
:101F8000266503D0FF0E596F04D026C059F0200EED
:101F90005927200E276103D0000E726F04D027C08E
:101FA00072F0200E725FDF0E276503D0FF0E736F95
:101FB00004D027C073F0200E7327200E286103D0B1
:101FC000000E746F04D028C074F0200E745FDF0E12
:101FD000286503D0FF0E756F04D028C075F0200E61
:101FE0007527200E296103D0000E766F04D029C01A
:101FF00076F0200E765FDF0E296503D0FF0E776F37
:1020000004D029C077F0200E7727200E2A6103D054
:10201000000E906F04D02AC090F0200E905FDF0E6B
:102020002A6503D0FF0E916F04D02AC091F0200ED4
:102030009127200E2B6103D0000E926F04D02BC08D
:1020400092F0200E925FDF0E2B6503D0FF0E936F90
:1020500004D02BC093F0200E9327200E2C6103D0C8
:10206000000E946F04D02CC094F0200E945FDF0E0D
:102070002C6503D0FF0E956F04D02CC095F0200E78
:102080009527200E2D6103D0000EAE6F04D02DC019
:10209000AEF0200EAE5FDF0E2D6503D0FF0EAF6FEA
:1020A00004D02DC0AFF0200EAF27200E2E6103D03C
:1020B000000EB06F04D02EC0B0F0200EB05FDF0E67
:1020C0002E6503D0FF0EB16F04D02EC0B1F0200EEC
:1020D000B127200E2F6103D0000EB26F04D02FC0A5
:1020E000B2F0200EB25FDF0E2F6503D0FF0EB36F8C
:1020F00004D02FC0B3F0200EB327620E216E246EE1
:10210000276E2A6E2D6EE00E226E256E286E2B6EC7
:102110002E6E3F0E236E266E296E2C6E2F6E200EB5
:10212000216103D0000E3C6F04D021C03CF0200E92
:102130003C5FDF0E216503D0FF0E3D6F04D021C050
:102140003DF0200E3D27200E226103D0000E3E6F91
:1021500004D022C03EF0200E3E5FDF0E226503D089
:10216000FF0E3F6F04D022C03FF0200E3F27200E0D
:10217000236103D0000E406F04D023C040F0200E36
:10218000405FDF0E236503D0FF0E416F04D023C0F4
:1021900041F0200E4127200E246103D0000E5A6F1B
:1021A00004D024C05AF0200E5A5FDF0E246503D0FD
:1021B000FF0E5B6F04D024C05BF0200E5B27200E67
:1021C000256103D0000E5C6F04D025C05CF0200EAA
:1021D0005C5FDF0E256503D0FF0E5D6F04D025C068
:1021E0005DF0200E5D27200E266103D0000E5E6F8D
:1021F00004D026C05EF0200E5E5FDF0E266503D0A1
:10220000FF0E5F6F04D026C05FF0200E5F27200E08
:10221000276103D0000E786F04D027C078F0200E1D
:10222000785FDF0E276503D0FF0E796F04D027C0DB
:1022300079F0200E7927200E286103D0000E7A6FE6
:1022400004D028C07AF0200E7A5FDF0E286503D014
:10225000FF0E7B6F04D028C07BF0200E7B27200E62
:10226000296103D0000E7C6F04D029C07CF0200EC1
:102270007C5FDF0E296503D0FF0E7D6F04D029C07F
:102280007DF0200E7D27200E2A6103D0000E966F70
:1022900004D02AC096F0200E965FDF0E2A6503D088
:1022A000FF0E976F04D02AC097F0200E9727200EBC
:1022B0002B6103D0000E986F04D02BC098F0200E35
:1022C000985FDF0E2B6503D0FF0E996F04D02BC0F3
:1022D00099F0200E9927200E2C6103D0000E9A6FE2
:1022E00004D02CC09AF0200E9A5FDF0E2C6503D02C
:1022F000FF0E9B6F04D02CC09BF0200E9B27200E5E
:102300002D6103D0000EB46F04D02DC0B4F0200EA8
:10231000B45FDF0E2D6503D0FF0EB56F04D02DC066
:10232000B5F0200EB527200E2E6103D0000EB66F3B
:1023300004D02EC0B6F0200EB65FDF0E2E6503D09F
:10234000FF0EB76F04D02EC0B7F0200EB727200EB7
:102350002F6103D0000EB86F04D02FC0B8F0200E4C
:10236000B85FDF0E2F6503D0FF0EB96F04D02FC00A
:10237000B9F0200EB9271E0E216E246E276E2A6E2C
:102380002D6E440E226E256E286E2B6E2E6ECC0E98
:10239000236E266E296E2C6E2F6E200E216103D0C7
:1023A000000E426F04D021C042F0200E425FDF0ECB
:1023B000216503D0FF0E436F04D021C043F0200EEF
:1023C0004327200E226103D0000E446F04D022C0A8
:1023D00044F0200E445FDF0E226503D0FF0E456FF0
:1023E00004D022C045F0200E4527200E236103D0E3
:1023F000000E466F04D023C046F0200E465FDF0E6D
:10240000236503D0FF0E476F04D023C047F0200E92
:102410004727200E246103D0000E606F04D024C033
:1024200060F0200E605FDF0E246503D0FF0E616F49
:1024300004D024C061F0200E6127200E256103D056
:10244000000E626F04D025C062F0200E625FDF0EC6
:10245000256503D0FF0E636F04D025C063F0200E06
:102460006327200E266103D0000E646F04D026C0BF
:1024700064F0200E645FDF0E266503D0FF0E656FEB
:1024800004D026C065F0200E6527200E276103D0FA
:10249000000E7E6F04D027C07EF0200E7E5FDF0E20
:1024A000276503D0FF0E7F6F04D027C07FF0200E7A
:1024B0007F27200E286103D0000E806F04D028C033
:1024C00080F0200E805FDF0E286503D0FF0E816F45
:1024D00004D028C081F0200E8127200E296103D06E
:1024E000000E826F04D029C082F0200E825FDF0EC2
:1024F000296503D0FF0E836F04D029C083F0200E1E
:102500008327200E2A6103D0000E9C6F04D02AC0BE
:102510009CF0200E9C5FDF0E2A6503D0FF0E9D6F9E
:1025200004D02AC09DF0200E9D27200E2B6103D0E1
:10253000000E9E6F04D02BC09EF0200E9E5FDF0E1B
:102540002B6503D0FF0E9F6F04D02BC09FF0200E91
:102550009F27200E2C6103D0000EA06F04D02CC04A
:10256000A0F0200EA05FDF0E2C6503D0FF0EA16F40
:1025700004D02CC0A1F0200EA127200E2D6103D085
:10258000000EBA6F04D02DC0BAF0200EBA5FDF0E75
:102590002D6503D0FF0EBB6F04D02DC0BBF0200E05
:1025A000BB27200E2E6103D0000EBC6F04D02EC0BE
:1025B000BCF0200EBC5FDF0E2E6503D0FF0EBD6F9A
:1025C00004D02EC0BDF0200EBD27200E2F6103D0F9
:1025D000000EBE6F04D02FC0BEF0200EBE5FDF0E17
:1025E0002F6503D0FF0EBF6F04D02FC0BFF0200EA9
:1025F000BF2712000550010A59E00550030A56E0B2
:102600000550070A53E005500F0A50E00550100A24
:102610002CE00550180A29E005501C0A26E0055058
:102620001E0A23E00550020A51E00550060A4EE05A
:102630000550080A2AE00550180A27E00550040A48
:1026400055E005500E0A52E00E50000A4FE00E50C1
:10265000010A0BE00E50020A18E00E50040A26E0B0
:102660000E50080A33E042E01200010E0E6E000E1A
:102670000F01676FFA0E0F015E6F000E0F01586FAA
:10268000000E0F01556F00011200020E0E6E000EBB
:102690000F01676FAD0E0F015E6F000E0F01586FD7
:1026A000000E0F01556F000112001200040E0E6E95
:1026B000FA0E0F01676F000E0F015E6F000E0F0123
:1026C000586F000E0F01556F00011200080E0E6EBC
:1026D000AD0E0F01676F000E0F015E6F000E0F0150
:1026E000586F000E0F01556F00011200100E0E6E94
:1026F000BA0E0F01676FBA0E0F015E6F000E0F0169
:10270000586F000E0F01556F00011200000E0E6E83
:10271000000E0F01676F000E0F015E6F000E0F01BC
:10272000586F000E0F01556F00011200E2EC13F01C
:10273000A00E176EF1EC13F0C5BC20EF14F013508F
:10274000176EF1EC13F0C5BC20EF14F01550176EA6
:10275000F1EC13F0C5BC20EF14F0ECEC13F010EC2E
:1027600014F01200146AE2EC13F0A00E176EF1ECF4
:1027700013F0C5BC20EF14F01350176EF1EC13F0FA
:10278000C5BC20EF14F0E7EC13F0A10E176EF1ECCE
:1027900013F0C5BC20EF14F0FAEC13F0142AF00E7D
:1027A000146201D004D00A0E0162DBEF13F00AECD0
:1027B00014F0DFEF13F004EC14F0CCEF13F0ECECBA
:1027C00013F012009E96C580C5B0FED712009E96EB
:1027D000C582C5B2FED712009E96C584C5B4FED789
:1027E0001200C7B0F1EF13F09E961750C96E9EA667
:1027F000FED712009E96C5869EA6FED7C7A0FCD720
:10280000C950EE6E016E1200C59A9E96C5889EA6AE
:10281000FED71200C58A9E96C5889EA6FED71200D6
:10282000E2EC13F0A00E176EF1EC13F0C5BC1CEF38
:1028300014F0ECEC13F01200ECEC13F010EF14F0C9
:102840001200FF0E036EFF0E026E022E25EF14F033
:10285000032E23EF14F0120003EE00F0000E136EAF
:10286000B2EC13F0120003EE00F03C0E136EB2EC6B
:1028700013F0120003EE00F0BA0E136EB2EC13F078
:1028800012000900F5CF15F096EC13F0132A0A0E8A
:102890001562F7D71200EECF15F096EC13F0132A5D
:1028A0000A0E1562F8D71200000EF86E290EF76EA8
:1028B000400EF66E000E136E41EC14F0000EF86E32
:1028C000280EF76EE60EF66E3C0E136E41EC14F019
:1028D000000EF86E290EF76E740EF66EBA0E136EB9
:1028E00041EC14F0120043686F6F736520796F75C7
:1028F00072204D415256206D6F64652E2E2E0D288C
:1029000043296F6C6F75720D285229656665726573
:102910006E63650D284129747461636B0D2853291A
:10292000696D756C61746520726163650D28482955
:102930006F746C6F616420454550524F4D0D0A0015
:102940004A79206B616E206D61617220676C6F2027
:102950004A6573736965206261627920646161729E
:102960002773206765656E20616E646572206565FA
:102970006E0D0A004A4553534943412021210D0A57
:102980003E0ED1EC14F0200ED1EC14F00D0ED1EC73
:1029900014F01200EE50D1EC14F00A0EEF62FAD7E8
:1029A0001200736E72A2FED71200E8EC14F002EE71
:1029B00000F0EE50196E09842050186203D019C03F
:1029C00018F01200410E1862120019C018F012001F
:1029D00002EE00F00FC001F003D0EE50D1EC14F085
:1029E000012EFBD70A0ED1EC14F01200000EF86E87
:1029F000290EF76E400EF66E8BD1000EF86E2A0E81
:102A0000F76E080EF66E84D1506C656173652053C5
:102A1000656C656374206120636F6C6F7220666FF4
:102A20007220746865206D61727620746F20666F05
:102A30006C6C6F770D52202D2073656C6563747319
:102A40002052656420436F6C6F720D47202D2073F8
:102A5000656C6563747320477265656E20436F6CA7
:102A60006F720D42202D2073656C65637473204274
:102A70006C756520436F6C6F720D4B202D20736554
:102A80006C65637420426C61636B20436F6C6F7282
:102A90000D0A000EF86E2A0EF76EA00EF66E38D1F3
:102AA000496E76616C696420636F6C6F7220736528
:102AB0006C656374656420210D0A000EF86E2A0EA1
:102AC000F76EC80EF66E24D14D617276206E6F7768
:102AD0002063616C6962726174696E672E2E2E0DBF
:102AE000506C656173652070757420746865206D25
:102AF000617276206F6E2074686520696E737472DF
:102B0000756374656420636F6C6F7220616E6420FE
:102B100070726573732074686520746F75636820C4
:102B200073656E736F720D0A000EF86E2B0EF76EE2
:102B3000360EF66EEDD063616C6962726174696E17
:102B40006720666F72200D0A000EF86E2B0EF76E6E
:102B5000560EF66EDDD077686974650D0A00000EBA
:102B6000F86E2B0EF76E6C0EF66ED2D07265640D99
:102B70000A00000EF86E2B0EF76E800EF66EC8D0AF
:102B8000677265656E0D0A00000EF86E2B0EF76E0B
:102B9000960EF66EBDD0626C75650D0A000EF86E6D
:102BA0002B0EF76EAA0EF66EB3D0626C61636B0DDE
:102BB0000A00000EF86E2B0EF76EC00EF66EA8D04F
:102BC0007375636365737320210D0D0A000EF86E33
:102BD0002B0EF76EDA0EF66E9BD053696D756C6135
:102BE0007465204D6F646520537461727465642E42
:102BF0002E2E0D0A000EF86E2C0EF76E020EF66EDB
:102C000087D0466F727761726420210D0A00000E32
:102C1000F86E2C0EF76E1C0EF66E7AD04C6566744C
:102C200020210D0A000EF86E2C0EF76E320EF66E95
:102C30006FD0526967687420210D0A00000EF86E8B
:102C40002C0EF76E4A0EF66E63D053746F7020210F
:102C50000D0A000E086209D0000EF86E2C0EF76EF9
:102C6000B20EF66E88EC16F01200010E086209D062
:102C7000000EF86E2C0EF76EC00EF66E88EC16F095
:102C80001200020E086209D0000EF86E2C0EF76ECC
:102C9000CC0EF66E88EC16F01200030E086201D01E
:102CA000000EF86E2C0EF76EDA0EF66E88EC16F04B
:102CB000120041747461636B20426C61636B0D0A96
:102CC00041747461636B205265640D0A41747461D0
:102CD000636B20426C75650D0A0041747461636B0F
:102CE00020477265656E0D0A000EF86E2C0EF76EA9
:102CF000F60EF66E0DD0486F746C6F6164206565DA
:102D000070726F6D20736C6F67616E2E2E2E0D0AC0
:102D10000900F550D1EC14F00A0EF562F9D7120053
:102D2000060E806EFDEC14F0430E196201D0FCD744
:102D3000520E196203D0010E086E17D0470E1962A9
:102D400003D0030E086E11D0420E196203D0030E99
:102D5000086E0BD04B0E196203D0040E086E05D01E
:102D6000550E196E49EC15F0DBD7098220C018F01A
:102D7000F4EF1AF03B0E806E14EC06F020C018F051
:102D8000F4EF1AF04F0E806E29EC16F0410E186227
:102D9000F4EF1AF062EC01F00D6601D0C6EF16F008
:102DA00035EC05F0836E410E1862F4EF1AF009A0BD
:102DB00001D003D014EC06F0FAD709A20FEC05F00D
:102DC00000D098EC01F0410E1862F4EF1AF0DDEF3C
:102DD00016F062EC01F0410E1862F4EF1AF00D6685
:102DE000E6D7F7D7660E806EE6EC15F0530E196243
:102DF00001D03AD0460E196201D0B1D34C0E1962FF
:102E000001D0BBD3520E196201D0C5D3EFD7530EF8
:102E10001862F4EF1AF0EAD76D0E806E74EC16F0BB
:102E20003AEC14F003EE00F0CAEC14F0099409A493
:102E3000FED702EE00F04BEC14F03AEC14F003EE87
:102E400000F0CAEC14F020C018F0F4EF1AF07D0E78
:102E5000806E33EC14F003EE00F0CAEC14F0205056
:102E60001862F4EF1AF0FBD704EE00F068EC00F003
:102E70000001040E076F30C0E8FF216101D004D0CB
:102E800031C0E8FF216501D015D032C0E8FF2261D2
:102E900001D004D033C0E8FF226501D00BD034C08C
:102EA000E8FF236101D004D035C0E8FF236501D0DD
:102EB00001D083D007073CC0E8FF216101D004D0D6
:102EC0003DC0E8FF216501D015D03EC0E8FF22617A
:102ED00001D004D03FC0E8FF226501D00BD040C034
:102EE000E8FF236101D004D041C0E8FF236501D091
:102EF00001D063D0070742C0E8FF216101D004D0B0
:102F000043C0E8FF216501D015D044C0E8FF22612D
:102F100001D004D045C0E8FF226501D00BD046C0E7
:102F2000E8FF236101D004D047C0E8FF236501D04A
:102F300001D043D0070736C0E8FF216101D004D09B
:102F400037C0E8FF216501D015D038C0E8FF226105
:102F500001D004D039C0E8FF226501D00BD03AC0BF
:102F6000E8FF236101D004D03BC0E8FF236501D016
:102F700001D023D0070748C0E8FF216101D004D069
:102F800049C0E8FF216501D015D04AC0E8FF2261A1
:102F900001D004D04BC0E8FF226501D00BD04CC05B
:102FA000E8FF236101D004D04DC0E8FF236501D0C4
:102FB00001D003D0450E076F00D088EC1AF0000155
:102FC000040E076F4EC0E8FF246101D004D04FC04B
:102FD000E8FF246501D015D050C0E8FF256101D07D
:102FE00004D051C0E8FF256501D00BD052C0E8FFE6
:102FF000266101D004D053C0E8FF266501D001D07E
:1030000083D007075AC0E8FF246101D004D05BC019
:10301000E8FF246501D015D05CC0E8FF256101D030
:1030200004D05DC0E8FF256501D00BD05EC0E8FF8D
:10303000266101D004D05FC0E8FF266501D001D031
:1030400063D0070760C0E8FF246101D004D061C0ED
:10305000E8FF246501D015D062C0E8FF256101D0EA
:1030600004D063C0E8FF256501D00BD064C0E8FF41
:10307000266101D004D065C0E8FF266501D001D0EB
:1030800043D0070754C0E8FF246101D004D055C0E5
:10309000E8FF246501D015D056C0E8FF256101D0B6
:1030A00004D057C0E8FF256501D00BD058C0E8FF19
:1030B000266101D004D059C0E8FF266501D001D0B7
:1030C00023D0070766C0E8FF246101D004D067C0A1
:1030D000E8FF246501D015D068C0E8FF256101D064
:1030E00004D069C0E8FF256501D00BD06AC0E8FFB5
:1030F000266101D004D06BC0E8FF266501D001D065
:1031000003D0450E076F00D088EC1AF00001040EC2
:10311000076F6CC0E8FF276101D004D06DC0E8FFE5
:10312000276501D015D06EC0E8FF286101D004D01A
:103130006FC0E8FF286501D00BD070C0E8FF29619F
:1031400001D004D071C0E8FF296501D001D083D03F
:10315000070778C0E8FF276101D004D079C0E8FFF5
:10316000276501D015D07AC0E8FF286101D004D0CE
:103170007BC0E8FF286501D00BD07CC0E8FF296147
:1031800001D004D07DC0E8FF296501D001D063D013
:1031900007077EC0E8FF276101D004D07FC0E8FFA9
:1031A000276501D015D080C0E8FF286101D004D088
:1031B00081C0E8FF286501D00BD082C0E8FF2961FB
:1031C00001D004D083C0E8FF296501D001D043D0ED
:1031D000070772C0E8FF276101D004D073C0E8FF81
:1031E000276501D015D074C0E8FF286101D004D054
:1031F00075C0E8FF286501D00BD076C0E8FF2961D3
:1032000001D004D077C0E8FF296501D001D023D0D8
:10321000070784C0E8FF276101D004D085C0E8FF1C
:10322000276501D015D086C0E8FF286101D004D001
:1032300087C0E8FF286501D00BD088C0E8FF29616E
:1032400001D004D089C0E8FF296501D001D003D0A6
:10325000450E076F00D088EC1AF00001040E076FCE
:103260008AC0E8FF2A6101D004D08BC0E8FF2A653C
:1032700001D015D08CC0E8FF2B6101D004D08DC0E7
:10328000E8FF2B6501D00BD08EC0E8FF2C6101D088
:1032900004D08FC0E8FF2C6501D001D083D0070790
:1032A00096C0E8FF2A6101D004D097C0E8FF2A65E4
:1032B00001D015D098C0E8FF2B6101D004D099C08F
:1032C000E8FF2B6501D00BD09AC0E8FF2C6101D03C
:1032D00004D09BC0E8FF2C6501D001D063D0070764
:1032E0009CC0E8FF2A6101D004D09DC0E8FF2A6598
:1032F00001D015D09EC0E8FF2B6101D004D09FC043
:10330000E8FF2B6501D00BD0A0C0E8FF2C6101D0F5
:1033100004D0A1C0E8FF2C6501D001D043D007073D
:1033200090C0E8FF2A6101D004D091C0E8FF2A656F
:1033300001D015D092C0E8FF2B6101D004D093C01A
:10334000E8FF2B6501D00BD094C0E8FF2C6101D0C1
:1033500004D095C0E8FF2C6501D001D023D0070729
:10336000A2C0E8FF2A6101D004D0A3C0E8FF2A650B
:1033700001D015D0A4C0E8FF2B6101D004D0A5C0B6
:10338000E8FF2B6501D00BD0A6C0E8FF2C6101D06F
:1033900004D0A7C0E8FF2C6501D001D003D0450EB2
:1033A000076F00D088EC1AF00001040E076FA8C068
:1033B000E8FF2D6101D004D0A9C0E8FF2D6501D040
:1033C00015D0AAC0E8FF2E6101D004D0ABC0E8FF41
:1033D0002E6501D00BD0ACC0E8FF2F6101D004D026
:1033E000ADC0E8FF2F6501D001D083D00707B4C07E
:1033F000E8FF2D6101D004D0B5C0E8FF2D6501D0F4
:1034000015D0B6C0E8FF2E6101D004D0B7C0E8FFE8
:103410002E6501D00BD0B8C0E8FF2F6101D004D0D9
:10342000B9C0E8FF2F6501D001D063D00707BAC04B
:10343000E8FF2D6101D004D0BBC0E8FF2D6501D0AD
:1034400015D0BCC0E8FF2E6101D004D0BDC0E8FF9C
:103450002E6501D00BD0BEC0E8FF2F6101D004D093
:10346000BFC0E8FF2F6501D001D043D00707AEC031
:10347000E8FF2D6101D004D0AFC0E8FF2D6501D079
:1034800015D0B0C0E8FF2E6101D004D0B1C0E8FF74
:103490002E6501D00BD0B2C0E8FF2F6101D004D05F
:1034A000B3C0E8FF2F6501D001D023D00707C0C00B
:1034B000E8FF2D6101D004D0C1C0E8FF2D6501D027
:1034C00015D0C2C0E8FF2E6101D004D0C3C0E8FF10
:1034D0002E6501D00BD0C4C0E8FF2F6101D004D00D
:1034E000C5C0E8FF2F6501D001D003D0450E076F9E
:1034F00000D088EC1AF0050E066E04EE00F0EF50D6
:10350000D1EC14F0062EFBD70D0ED1EC14F06ED4D6
:10351000000E076204D04B0EEE6E1200010E076221
:1035200004D0520EEE6E1200020E076204D0420E5C
:10353000EE6ED1EC14F01200030E076204D0470EB9
:10354000EE6ED1EC14F01200040E076204D0570E98
:10355000EE6ED1EC14F01200550EEE6E12000F0E4E
:10356000676601D005D01EEC16F086EC13F021D072
:10357000FAEC15F076EC13F01CD00F01676601D061
:1035800005D01EEC16F086EC13F013D007EC16F005
:1035900056EC13F00ED00F015E6701D005D01EEC83
:1035A00016F086EC13F005D012EC16F035EC13F0A3
:1035B00000D00001530E196E19D4E0EF1AF0FFD7B6
:1035C00054EC14F0FF0E806E81802CEC14F003EEAE
:1035D00000F0CAEC14F0070E806E096A000E086E47
:1035E0004A0E206E410E186E430E186201D090EF05
:1035F00016F0520E186201D0BAEF16F0410E1862A2
:1036000001D0C2EF16F0530E186201D0F2EF16F09F
:10361000480E186201D00CEF17F02050186201D04C
:1036200027EF17F016EC06F00FEC05F07AEC01F03E
:1036300046EC05F0FDD7C3D7806A80808036830EC4
:10364000D56E600ED76EAA0ED66EF294D58EF2A409
:06365000FDD7D59EF3D763
:020000040030CA
:03000100281F3C79
:02000500BA85BA
:060008000FC00FE00F40E5
:00000001FF
