:0C00000010EC00F022EF04F04AEF00F0DA
:0400180046EF00F0BF
:100020000F01806A896A000E386E000E926E0F0111
:10003000816B8A6B200E396F3F0E936F0F01826ABE
:100040008B6AF80E3A6EF80E946E0F01836A8C6A12
:10005000000E3B6E000E956E0F01846A8D6A3C6A3D
:10006000000E966E740ED36E370EC06E000EC16E0B
:100070003D0EC26E9D8D9F8D61896289628BF19E5E
:100080008150F290F286F28E000112000000000012
:1000900000001000F2A0A5EF00F081B854D009666E
:1000A00001D002D009464FD0426605D004D041C0ED
:1000B00083FF426A48D006EC02F032C083FF830E11
:1000C000D56E600ED76EAA0ED66EF294D58EF2A4BF
:1000D000FDD7D59E830ED56E600ED76EAA0ED66E56
:1000E000F294D58EF2A4FDD7D59E830ED56E600E08
:1000F000D76EAA0ED66EF294D58EF2A4FDD7D59EF9
:10010000830ED56E600ED76EAA0ED66EF294D58E83
:10011000F2A4FDD7D59E830ED56E600ED76EAA0EC3
:10012000D66EF294D58EF2A4FDD7D59E830ED56EF1
:10013000600ED76EAA0ED66EF294D58EF2A4FDD7BD
:10014000D59E422A00D08150F2901000A9EC00F018
:100150001200010E096E09C0E8FF83800960FED716
:1001600064EC01F0030E046E010E836E830ED56EF7
:10017000600ED76EAA0ED66EF294D58EF2A4FDD77D
:10018000D59E836A830ED56E600ED76EAA0ED66E8C
:10019000F294D58EF2A4FDD7D59E042EE5D709C0E2
:1001A000E8FF83820964FED764EC01F0030E046E5D
:1001B000020E836E830ED56E600ED76EAA0ED66EBB
:1001C000F294D58EF2A4FDD7D59E836A830ED56EA8
:1001D000600ED76EAA0ED66EF294D58EF2A4FDD71D
:1001E000D59E042EE5D709C0E8FF83840964FED7B5
:1001F00064EC01F0030E046E040E836E830ED56E64
:10020000600ED76EAA0ED66EF294D58EF2A4FDD7EC
:10021000D59E836A830ED56E600ED76EAA0ED66EFB
:10022000F294D58EF2A4FDD7D59E042EE5D709C051
:10023000E8FF83860964FED764EC01F0030E046EC8
:10024000080E836E830ED56E600ED76EAA0ED66E24
:10025000F294D58EF2A4FDD7D59E836A830ED56E17
:10026000600ED76EAA0ED66EF294D58EF2A4FDD78C
:10027000D59E042EE5D709C0E8FF83880964FED720
:1002800064EC01F0030E046E100E836E830ED56EC7
:10029000600ED76EAA0ED66EF294D58EF2A4FDD75C
:1002A000D59E836A830ED56E600ED76EAA0ED66E6B
:1002B000F294D58EF2A4FDD7D59E042EE5D7C3ECDB
:1002C00001F0836A096A120081EC01F08CEC01F004
:1002D00009B208D009B409D009B60AD009B80BD0C0
:1002E00009BA0CD035C03AF0120035C039F012000E
:1002F00035C038F0120035C037F0120035C036F086
:100300001200E0EC01F0F3EC01F006EC02F019EC65
:1003100002F02CEC02F01200356A32C035F0120007
:1003200039C0E8FF3AC004F0045E0442049E04C0F1
:10033000E8FF39C03FF03F2638C0E8FF39C004F07D
:10034000045E0442049E04C0E8FF38C03EF03E262E
:1003500037C0E8FF38C004F0045E0442049E04C0C5
:10036000E8FF37C03DF03D2636C0E8FF37C004F057
:10037000045E0442049E04C0E8FF36C03CF03C2604
:10038000000E3B6E1200CCD7E86A046A39C0E8FF61
:100390003AC004F0045E04C0E8FFE842E89E39C0B9
:1003A0003FF03F26E86A046A38C0E8FF39C004F02D
:1003B000045E04C0E8FF043238C03EF03E2612005E
:1003C0003D0EC26E830ED56EFD0ED76EDD0ED66E5F
:1003D000F294D58EF2A4FDD7D59EC282C2B2FED7CA
:1003E000C4CF30F01200410EC26E830ED56EFD0EEA
:1003F000D76EDD0ED66EF294D58EF2A4FDD7D59EC3
:10040000C282C2B2FED7C4CF31F01200450EC26E16
:10041000830ED56EFD0ED76EDD0ED66EF294D58EA0
:10042000F2A4FDD7D59EC282C2B2FED7C4CF32F0AD
:100430001200490EC26E830ED56EFD0ED76EDD0E14
:10044000D66EF294D58EF2A4FDD7D59EC282C2B2EA
:10045000FED7C4CF33F012004D0EC26E830ED56EA0
:10046000FD0ED76EDD0ED66EF294D58EF2A4FDD7BA
:10047000D59EC282C2B2FED7C4CF34F01200416A08
:100480004180040E0B6201D004D04146E80641A829
:10049000F9D741C083FF1200086A046A81EC01F0B9
:1004A000040E0B6E3FC0E8FF306010D00B063EC05C
:1004B000E8FF30600BD00B063DC0E8FF306006D08F
:1004C0000B063CC0E8FF306001D00B06000E0B624B
:1004D00001D0042A40C0E8FF0B6201D00880040E5E
:1004E0000B6E3FC0E8FF316010D00B063EC0E8FF46
:1004F00031600BD00B063DC0E8FF316006D00B0623
:100500003CC0E8FF316001D00B06000E0B6201D049
:10051000042A40C0E8FF0B6201D00882040E0B6E73
:100520003FC0E8FF326010D00B063EC0E8FF3260EB
:100530000BD00B063DC0E8FF326006D00B063CC076
:10054000E8FF326001D00B06000E0B6201D0042AD6
:1005500040C0E8FF0B6201D00884040E0B6E3FC060
:10056000E8FF336010D00B063EC0E8FF33600BD0CD
:100570000B063DC0E8FF336006D00B063CC0E8FF29
:10058000336001D00B06000E0B6201D0042A40C07C
:10059000E8FF0B6201D00886040E0B6E3FC0E8FF37
:1005A000346010D00B063EC0E8FF34600BD00B0661
:1005B0003DC0E8FF346006D00B063CC0E8FF346065
:1005C00001D00B06000E0B6201D0042A40C0E8FFE8
:1005D0000B6201D00888050E046203D01F0E806EE6
:1005E0001CEF04F0806A08C080FFE0EF03F0120007
:1005F00006EC02F0ABEC03F03FEC02F01200320E1E
:10060000306E190E316E320E326E320E336E0F0EA8
:10061000346E8CEC01F01200FE0E3A6EC00E396E94
:10062000800E386E3F0E376E000E366E90EC01F085
:100630001200FC0E3A6EB90E396E830E386E4C0EF7
:10064000376E110E366EC3EC01F012000CEC03F0A5
:100650002D0E306E590E316E6D0E326E4D0E336EA4
:100660007B0E346E010E406E4CEC02F012000CEC6E
:1006700003F0FF0E306E040E0B6E3FC0E8FF3060DB
:1006800010D00B063EC0E8FF30600BD00B063DC01B
:10069000E8FF306006D00B063CC0E8FF306001D0B8
:1006A0000B063FEC02F00000BF0E306E040E0B6E26
:1006B0003FC0E8FF306010D00B063EC0E8FF30605E
:1006C0000BD00B063DC0E8FF306006D00B063CC0E7
:1006D000E8FF306001D00B063FEC02F000007F0E17
:1006E000306E040E0B6E3FC0E8FF306010D00B067A
:1006F0003EC0E8FF30600BD00B063DC0E8FF306025
:1007000006D00B063CC0E8FF306001D00B063FEC82
:1007100002F00000400E306E040E0B6E3FC0E8FF8A
:10072000306010D00B063EC0E8FF30600BD00B06E7
:100730003DC0E8FF306006D00B063CC0E8FF3060EB
:1007400001D00B063FEC02F00000170E306EABEC50
:1007500003F000001200040E0B6E3FC0E8FF326091
:1007600010D00B063EC0E8FF32600BD00B063DC038
:10077000E8FF326006D00B063CC0E8FF326001D0D3
:100780000B06120000D0450EC26E830ED56EFD0E14
:10079000D76EDD0ED66EF294D58EF2A4FDD7D59E1F
:1007A000070E826E06EC02F0C4CF83FFFBD7E0ECAD
:1007B00001F0C4CF83FF096A098009A2FED7F7D7E9
:1007C0000850100A2AE00850180A27E008501C0AAE
:1007D00024E008501E0A21E00850010A21E00850D8
:1007E000030A1EE00850070A1BE008500F0A18E031
:1007F0000850080A18E008500C0A15E00850020AD0
:1008000015E00850060A12E00850040A12E00850E9
:100810000E0A0FE01FEF04F01200010E8C6E1200A2
:10082000100E8C6E1200020E8C6E1200080E8C6E72
:100830001200040E8C6E1200200E8C6E1200400E00
:100840008C6E1200096A8D6A00000CEC03F081B016
:1008500002D0000E0CD081B202D0010E08D081B4BB
:1008600002D0020E04D081B602D0030E00D0406E3A
:0C0870004CEC02F0ECD700D00000FED7EA
:020000040030CA
:03000100281F3C79
:02000500BB85B9
:060008000FC00FE00F40E5
:00000001FF
