:0C00000010EC00F026EF09F083EF04F094
:040018007FEF04F082
:100020000F01806A896A000E386E000E926E0F0111
:10003000816B8A6B200E396F3F0E936F0F01826ABE
:100040008B6AF80E3A6EF80E946E0F01836A8C6A12
:10005000000E3B6E000E956E0F01846A8D6A3C6A3D
:10006000000E966E740ED36E370EC06E000EC16E0B
:100070003D0EC26E9D8D9F8D61896289628BF19E5E
:100080008150F290F286F28E0001120051EC00F0E5
:1000900072EC00F093EC00F0B4EC00F0D5EC00F062
:1000A00012003D0EC26E830ED56EFD0ED76EDD0EB4
:1000B000D66EF294D58EF2A4FDD7D59E826A828048
:1000C000C282C2B2FED7C4CF21F08236C282C2B28F
:1000D000FED7C4CF23F08236C282C2B2FED7C4CFCD
:1000E00022F01200410EC26E830ED56EFD0ED76E49
:1000F000DD0ED66EF294D58EF2A4FDD7D59E826A1F
:100100008280C282C2B2FED7C4CF24F08236C282BD
:10011000C2B2FED7C4CF26F08236C282C2B2FED7A8
:10012000C4CF25F01200450EC26E830ED56EFD0EB3
:10013000D76EDD0ED66EF294D58EF2A4FDD7D59E85
:10014000826A8280C282C2B2FED7C4CF27F08236D2
:10015000C282C2B2FED7C4CF29F08236C282C2B2F6
:10016000FED7C4CF28F01200490EC26E830ED56EA2
:10017000FD0ED76EDD0ED66EF294D58EF2A4FDD7AD
:10018000D59E826A8280C282C2B2FED7C4CF2AF0D4
:100190008236C282C2B2FED7C4CF2CF08236C2826F
:1001A000C2B2FED7C4CF2BF012004D0EC26E830E2A
:1001B000D56EFD0ED76EDD0ED66EF294D58EF2A4FE
:1001C000FDD7D59E826A8280C282C2B2FED7C4CFDA
:1001D0002DF08236C282C2B2FED7C4CF2FF0823653
:1001E000C282C2B2FED7C4CF2EF01200096A0980C3
:1001F000040E076201D004D00946E80609A8F9D721
:1002000009C083FF1200056A016A46EC00F0040E83
:10021000076E30C0E8FF216001D004D031C0E8FF94
:10022000216401D015D032C0E8FF226001D004D093
:1002300033C0E8FF216401D00BD030C0E8FF236059
:1002400001D004D031C0E8FF216401D001D001D039
:1002500020D007063DC0E8FF216001D004D03EC099
:10026000E8FF216401D015D03FC0E8FF226001D033
:1002700004D040C0E8FF216401D00BD03DC0E8FFAE
:10028000236001D004D03EC0E8FF216401D001D03A
:1002900001D020D0070643C0E8FF216001D004D080
:1002A00044C0E8FF216401D015D045C0E8FF2260BA
:1002B00001D004D046C0E8FF216401D00BD043C078
:1002C000E8FF236001D004D044C0E8FF216401D0DE
:1002D00001D001D020D0070636C0E8FF216001D050
:1002E00004D038C0E8FF216401D015D039C0E8FF40
:1002F000226001D004D03AC0E8FF216401D00BD0C5
:1003000036C0E8FF236001D004D038C0E8FF216484
:1003100001D001D001D020D0070649C0E8FF2160FC
:1003200001D004D04AC0E8FF216401D015D04BC0F1
:10033000E8FF226001D004D04CC0E8FF216401D066
:100340000BD049C0E8FF236001D004D04AC0E8FFC9
:10035000216401D001D001D002D0000E076201D08B
:10036000012A08C0E8FF076201D00580040E076E6D
:1003700030C0E8FF246001D004D031C0E8FF216420
:1003800001D015D032C0E8FF256001D004D033C0C1
:10039000E8FF216401D00BD030C0E8FF266001D017
:1003A00004D031C0E8FF216401D001D001D020D0B9
:1003B00007063DC0E8FF246001D004D03EC0E8FF3E
:1003C000216401D015D03FC0E8FF256001D004D0E2
:1003D00040C0E8FF216401D00BD03DC0E8FF26609B
:1003E00001D004D03EC0E8FF216401D001D001D08B
:1003F00020D0070643C0E8FF246001D004D044C0E9
:10040000E8FF216401D015D045C0E8FF256001D088
:1004100004D046C0E8FF216401D00BD043C0E8FF00
:10042000266001D004D044C0E8FF216401D001D08F
:1004300001D020D0070636C0E8FF246001D004D0E8
:1004400038C0E8FF216401D015D039C0E8FF25602D
:1004500001D004D03AC0E8FF216401D00BD036C0EF
:10046000E8FF266001D004D038C0E8FF216401D045
:1004700001D001D020D0070649C0E8FF246001D098
:1004800004D04AC0E8FF216401D015D04BC0E8FF7A
:10049000256001D004D04CC0E8FF216401D00BD00E
:1004A00049C0E8FF266001D004D04AC0E8FF2164BB
:1004B00001D001D001D002D0000E076201D0012A84
:1004C00008C0E8FF076201D00582040E076E30C045
:1004D000E8FF276001D004D031C0E8FF216401D0DB
:1004E00015D032C0E8FF286001D004D033C0E8FF47
:1004F000216401D00BD030C0E8FF296001D004D0C6
:1005000031C0E8FF216401D001D001D020D007061E
:100510003DC0E8FF276001D004D03EC0E8FF216461
:1005200001D015D03FC0E8FF286001D004D040C002
:10053000E8FF216401D00BD03DC0E8FF296001D065
:1005400004D03EC0E8FF216401D001D001D020D00A
:10055000070643C0E8FF276001D004D044C0E8FF8D
:10056000216401D015D045C0E8FF286001D004D037
:1005700046C0E8FF216401D00BD043C0E8FF2960EA
:1005800001D004D044C0E8FF216401D001D001D0E3
:1005900020D0070636C0E8FF276001D004D038C05D
:1005A000E8FF216401D015D039C0E8FF286001D0F0
:1005B00004D03AC0E8FF216401D00BD036C0E8FF78
:1005C000296001D004D038C0E8FF216401D001D0F7
:1005D00001D020D0070649C0E8FF276001D004D031
:1005E0004AC0E8FF216401D015D04BC0E8FF286065
:1005F00001D004D04CC0E8FF216401D00BD049C029
:10060000E8FF296001D004D04AC0E8FF216401D08E
:1006100001D001D002D0000E076201D0012A08C02B
:10062000E8FF076201D00584040E076E30C0E8FFC2
:100630002A6001D004D031C0E8FF216401D015D078
:1006400032C0E8FF2B6001D004D033C0E8FF216442
:1006500001D00BD030C0E8FF2C6001D004D031C0F5
:10066000E8FF216401D001D001D020D007063DC0B1
:10067000E8FF2A6001D004D03EC0E8FF216401D029
:1006800015D03FC0E8FF2B6001D004D040C0E8FF88
:10069000216401D00BD03DC0E8FF2C6001D004D014
:1006A0003EC0E8FF216401D001D001D020D0070670
:1006B00043C0E8FF2A6001D004D044C0E8FF2164B1
:1006C00001D015D045C0E8FF2B6001D004D046C052
:1006D000E8FF216401D00BD043C0E8FF2C6001D0BB
:1006E00004D044C0E8FF216401D001D001D020D063
:1006F000070636C0E8FF2A6001D004D038C0E8FF02
:10070000216401D015D039C0E8FF2B6001D004D09E
:100710003AC0E8FF216401D00BD036C0E8FF2C605E
:1007200001D004D038C0E8FF216401D001D001D04D
:1007300020D0070649C0E8FF2A6001D004D04AC093
:10074000E8FF216401D015D04BC0E8FF2B6001D039
:1007500004D04CC0E8FF216401D00BD049C0E8FFB1
:100760002C6001D004D04AC0E8FF216401D001D040
:1007700001D002D0000E076201D0012A08C0E8FFB4
:10078000076201D00586040E076E30C0E8FF2D60B9
:1007900001D004D031C0E8FF216401D015D032C0AF
:1007A000E8FF2E6001D004D033C0E8FF216401D0FF
:1007B0000BD030C0E8FF2F6001D004D031C0E8FF7B
:1007C000216401D001D001D020D007063DC0E8FF50
:1007D0002D6001D004D03EC0E8FF216401D015D0C7
:1007E0003FC0E8FF2E6001D004D040C0E8FF216484
:1007F00001D00BD03DC0E8FF2F6001D004D03EC037
:10080000E8FF216401D001D001D020D0070643C009
:10081000E8FF2D6001D004D044C0E8FF216401D07E
:1008200015D045C0E8FF2E6001D004D046C0E8FFD7
:10083000216401D00BD043C0E8FF2F6001D004D069
:1008400044C0E8FF216401D001D001D020D00706C8
:1008500036C0E8FF2D6001D004D038C0E8FF216425
:1008600001D015D039C0E8FF2E6001D004D03AC0C5
:10087000E8FF216401D00BD036C0E8FF2F6001D023
:1008800004D038C0E8FF216401D001D001D020D0CD
:10089000070649C0E8FF2D6001D004D04AC0E8FF38
:1008A000216401D015D04BC0E8FF2E6001D004D0E8
:1008B0004CC0E8FF216401D00BD049C0E8FF2F6095
:1008C00001D004D04AC0E8FF216401D001D001D09A
:1008D00002D0000E076201D0012A08C0E8FF0762BB
:1008E00001D00588050E016203D01F0E806E20EF37
:1008F00009F0806A05C080FFE4EF08F012000000F4
:10090000000000001000F2A0DAEF04F081B850D02F
:10091000066601D002D006824BD00B6605D004D00B
:1009200009C083FF0B6A44D0830ED56E600ED76E6C
:10093000AA0ED66EF294D58EF2A4FDD7D59E830E64
:10094000D56E600ED76EAA0ED66EF294D58EF2A436
:10095000FDD7D59E830ED56E600ED76EAA0ED66ECD
:10096000F294D58EF2A4FDD7D59E830ED56E600E7F
:10097000D76EAA0ED66EF294D58EF2A4FDD7D59E70
:10098000830ED56E600ED76EAA0ED66EF294D58EFB
:10099000F2A4FDD7D59E830ED56E600ED76EAA0E3B
:1009A000D66EF294D58EF2A4FDD7D59E0B2A00D038
:1009B0008150F2901000DEEC04F01200010E066E81
:1009C00006C0E8FF838006A0FED7069246EC00F042
:1009D000016A330E2102F3BEF480F4CFE8FF012652
:1009E000330E2402F3BEF480F4CFE8FF0126330E69
:1009F0002702F3BEF480F4CFE8FF0126330E2A026B
:100A0000F3BEF480F4CFE8FF0126330E2D02F3BECF
:100A1000F480F4CFE8FF0126210E016003D0000E20
:100A2000306E04D001C030F0200E305EDE0E016466
:100A300003D0FF0E316E04D001C031F0200E3126FC
:100A4000016A330E2202F3BEF480F4CFE8FF0126E0
:100A5000330E2502F3BEF480F4CFE8FF0126330EF7
:100A60002802F3BEF480F4CFE8FF0126330E2B02F8
:100A7000F3BEF480F4CFE8FF0126330E2E02F3BE5E
:100A8000F480F4CFE8FF0126210E016003D0000EB0
:100A9000326E04D001C032F0200E325EDE0E0164F0
:100AA00003D0FF0E336E04D001C033F0200E332686
:100AB000016A330E2302F3BEF480F4CFE8FF01266F
:100AC000330E2602F3BEF480F4CFE8FF0126330E86
:100AD0002902F3BEF480F4CFE8FF0126330E2C0286
:100AE000F3BEF480F4CFE8FF0126330E2F02F3BEED
:100AF000F480F4CFE8FF0126210E016003D0000E40
:100B0000346E04D001C034F0200E345EDE0E016479
:100B100003D0FF0E356E04D001C035F0200E35260F
:100B2000030E016E010E836E830ED56E600ED76EBE
:100B3000AA0ED66EF294D58EF2A4FDD7D59E836A06
:100B4000830ED56E600ED76EAA0ED66EF294D58E39
:100B5000F2A4FDD7D59E012EE5D706C0E8FF83821B
:100B600006A0FED7069246EC00F0016A330E210281
:100B7000F3BEF480F4CFE8FF0126330E2402F3BE67
:100B8000F480F4CFE8FF0126330E2702F3BEF48091
:100B9000F4CFE8FF0126330E2A02F3BEF480F4CF2F
:100BA000E8FF0126330E2D02F3BEF480F4CFE8FFF8
:100BB0000126210E016003D0000E3D6E04D001C05D
:100BC0003DF0200E3D5EDE0E016403D0FF0E3E6E52
:100BD00004D001C03EF0200E3E26016A330E2202F0
:100BE000F3BEF480F4CFE8FF0126330E2502F3BEF6
:100BF000F480F4CFE8FF0126330E2802F3BEF48020
:100C0000F4CFE8FF0126330E2B02F3BEF480F4CFBD
:100C1000E8FF0126330E2E02F3BEF480F4CFE8FF86
:100C20000126210E016003D0000E3F6E04D001C0EA
:100C30003FF0200E3F5EDE0E016403D0FF0E406EDB
:100C400004D001C040F0200E4026016A330E23027A
:100C5000F3BEF480F4CFE8FF0126330E2602F3BE84
:100C6000F480F4CFE8FF0126330E2902F3BEF480AE
:100C7000F4CFE8FF0126330E2C02F3BEF480F4CF4C
:100C8000E8FF0126330E2F02F3BEF480F4CFE8FF15
:100C90000126210E016003D0000E416E04D001C078
:100CA00041F0200E415EDE0E016403D0FF0E426E65
:100CB00004D001C042F0200E4226030E016E020E47
:100CC000836E830ED56E600ED76EAA0ED66EF2942A
:100CD000D58EF2A4FDD7D59E836A830ED56E600EA5
:100CE000D76EAA0ED66EF294D58EF2A4FDD7D59EFD
:100CF000012EE5D706C0E8FF838406A0FED7069242
:100D000046EC00F0016A330E2102F3BEF480F4CF0A
:100D1000E8FF0126330E2402F3BEF480F4CFE8FF8F
:100D20000126330E2702F3BEF480F4CFE8FF01263C
:100D3000330E2A02F3BEF480F4CFE8FF0126330E0F
:100D40002D02F3BEF480F4CFE8FF0126210E0160EE
:100D500003D0000E436E04D001C043F0200E435E6A
:100D6000DE0E016403D0FF0E446E04D001C044F0D7
:100D7000200E4426016A330E2202F3BEF480F4CF23
:100D8000E8FF0126330E2502F3BEF480F4CFE8FF1E
:100D90000126330E2802F3BEF480F4CFE8FF0126CB
:100DA000330E2B02F3BEF480F4CFE8FF0126330E9E
:100DB0002E02F3BEF480F4CFE8FF0126210E01607D
:100DC00003D0000E456E04D001C045F0200E455EF4
:100DD000DE0E016403D0FF0E466E04D001C046F063
:100DE000200E4626016A330E2302F3BEF480F4CFB0
:100DF000E8FF0126330E2602F3BEF480F4CFE8FFAD
:100E00000126330E2902F3BEF480F4CFE8FF012659
:100E1000330E2C02F3BEF480F4CFE8FF0126330E2C
:100E20002F02F3BEF480F4CFE8FF0126210E01600B
:100E300003D0000E476E04D001C047F0200E475E7D
:100E4000DE0E016403D0FF0E486E04D001C048F0EE
:100E5000200E4826030E016E040E836E830ED56E9F
:100E6000600ED76EAA0ED66EF294D58EF2A4FDD780
:100E7000D59E836A830ED56E600ED76EAA0ED66E8F
:100E8000F294D58EF2A4FDD7D59E012EE5D706C0EB
:100E9000E8FF838606A0FED7069246EC00F0016AC2
:100EA000330E2102F3BEF480F4CFE8FF0126330EA7
:100EB0002402F3BEF480F4CFE8FF0126330E2702AC
:100EC000F3BEF480F4CFE8FF0126330E2A02F3BE0E
:100ED000F480F4CFE8FF0126330E2D02F3BEF48038
:100EE000F4CFE8FF0126210E016003D0000E366E1C
:100EF00004D001C036F0200E365EDE0E016403D051
:100F0000FF0E386E04D001C038F0200E3826016A7A
:100F1000330E2202F3BEF480F4CFE8FF0126330E35
:100F20002502F3BEF480F4CFE8FF0126330E280239
:100F3000F3BEF480F4CFE8FF0126330E2B02F3BE9C
:100F4000F480F4CFE8FF0126330E2E02F3BEF480C6
:100F5000F4CFE8FF0126210E016003D0000E396EA8
:100F600004D001C039F0200E395EDE0E016403D0DA
:100F7000FF0E3A6E04D001C03AF0200E3A26016A04
:100F8000330E2302F3BEF480F4CFE8FF0126330EC4
:100F90002602F3BEF480F4CFE8FF0126330E2902C7
:100FA000F3BEF480F4CFE8FF0126330E2C02F3BE2B
:100FB000F480F4CFE8FF0126330E2F02F3BEF48055
:100FC000F4CFE8FF0126210E016003D0000E3B6E36
:100FD00004D001C03BF0200E3B5EDE0E016403D066
:100FE000FF0E3C6E04D001C03CF0200E3C26030EE8
:100FF000016E080E836E830ED56E600ED76EAA0E3C
:10100000D66EF294D58EF2A4FDD7D59E836A830E58
:10101000D56E600ED76EAA0ED66EF294D58EF2A45F
:10102000FDD7D59E012EE5D706C0E8FF838806A030
:10103000FED7069246EC00F0016A330E2102F3BEA1
:10104000F480F4CFE8FF0126330E2402F3BEF480CF
:10105000F4CFE8FF0126330E2702F3BEF480F4CF6D
:10106000E8FF0126330E2A02F3BEF480F4CFE8FF36
:101070000126330E2D02F3BEF480F4CFE8FF0126E3
:10108000210E016003D0000E496E04D001C049F06A
:10109000200E495EDE0E016403D0FF0E4A6E04D0BE
:1010A00001C04AF0200E4A26016A330E2202F3BE26
:1010B000F480F4CFE8FF0126330E2502F3BEF4805E
:1010C000F4CFE8FF0126330E2802F3BEF480F4CFFC
:1010D000E8FF0126330E2B02F3BEF480F4CFE8FFC5
:1010E0000126330E2E02F3BEF480F4CFE8FF012672
:1010F000210E016003D0000E4B6E04D001C04BF0F6
:10110000200E4B5EDE0E016403D0FF0E4C6E04D049
:1011100001C04CF0200E4C26016A330E2302F3BEB0
:10112000F480F4CFE8FF0126330E2602F3BEF480EC
:10113000F4CFE8FF0126330E2902F3BEF480F4CF8A
:10114000E8FF0126330E2C02F3BEF480F4CFE8FF53
:101150000126330E2F02F3BEF480F4CFE8FF012600
:10116000210E016003D0000E4D6E04D001C04DF081
:10117000200E4D5EDE0E016403D0FF0E4E6E04D0D5
:1011800001C04EF0200E4E26030E016E100E836E2F
:10119000830ED56E600ED76EAA0ED66EF294D58EE3
:1011A000F2A4FDD7D59E836A830ED56E600ED76EEE
:1011B000AA0ED66EF294D58EF2A4FDD7D59E012E3E
:1011C000E5D7836A066A12000550100A2AE0055026
:1011D000180A27E005501C0A24E005501E0A21E0E9
:1011E0000550010A21E00550030A1EE00550070AD8
:1011F0001BE005500F0A18E00550080A18E00550DA
:101200000C0A15E00550020A15E00550060A12E026
:101210000550040A12E005500E0A0FE023EF09F012
:101220001200010E8C6E1200100E8C6E1200020E57
:101230008C6E1200080E8C6E1200040E8C6E120062
:10124000200E8C6E1200400E8C6E1200066A8D6AA3
:10125000DBEC04F081B002D0000E0CD081B202D0E1
:10126000010E08D081B402D0020E04D081B602D0A3
:10127000030E00D0086E03EC01F0ECD700D00000A4
:02128000FED797
:020000040030CA
:03000100281F3C79
:02000500BB85B9
:060008000FC00FE00F40E5
:00000001FF
