:0C00000010EC00F0B9EF09F03BEF05F048
:0400180037EF05F0C9
:100020000F01806A896A000E386E000E926E0F0111
:10003000816B8A6B200E396F3F0E936F0F01826ABE
:100040008B6AF80E3A6EF80E946E0F01836A8C6A12
:10005000000E3B6E000E956E0F01846A8D6A3C6A3D
:10006000000E966E740ED36E2D0EC06E000EC16E15
:100070003D0EC26E9D8D9F8D61896289628BF19E5E
:100080008150F290F286F28E0001120051EC00F0E5
:1000900076EC00F09BEC00F0C0EC00F0E5EC00F03A
:1000A00012003D0EC26E830ED56EFD0ED76EDD0EB4
:1000B000D66EF294D58EF2A4FDD7D59E060E826E32
:1000C000C282C2B2FED7C4CF21F0050E826EC282B8
:1000D000C2B2FED7C4CF22F0030E826EC282C2B279
:1000E000FED7C4CF23F0000E826E1200410EC26E06
:1000F000830ED56EFD0ED76EDD0ED66EF294D58EC4
:10010000F2A4FDD7D59E060E826EC282C2B2FED781
:10011000C4CF24F0050E826EC282C2B2FED7C4CF15
:1001200025F0030E826EC282C2B2FED7C4CF26F083
:10013000000E826E1200450EC26E830ED56EFD0E4D
:10014000D76EDD0ED66EF294D58EF2A4FDD7D59E75
:10015000060E826EC282C2B2FED7C4CF27F0050E51
:10016000826EC282C2B2FED7C4CF28F0030E826E66
:10017000C282C2B2FED7C4CF29F0000E826E120036
:10018000490EC26E830ED56EFD0ED76EDD0ED66E95
:10019000F294D58EF2A4FDD7D59E060E826EC28251
:1001A000C2B2FED7C4CF2AF0050E826EC282C2B29E
:1001B000FED7C4CF2BF0030E826EC282C2B2FED72E
:1001C000C4CF2CF0000E826E12004D0EC26E830E54
:1001D000D56EFD0ED76EDD0ED66EF294D58EF2A4DE
:1001E000FDD7D59E060E826EC282C2B2FED7C4CFA4
:1001F0002DF0050E826EC282C2B2FED7C4CF2EF0A1
:10020000030E826EC282C2B2FED7C4CF2FF0000EA0
:10021000826E1200096A0980040E076201D004D0C0
:100220000946E80609A8F9D709C083FF1200056A44
:10023000016A46EC00F0040E076E30C0E8FF216052
:1002400001D004D031C0E8FF216401D015D032C004
:10025000E8FF226001D004D033C0E8FF226401D05F
:100260000BD034C0E8FF236001D004D035C0E8FFD4
:10027000236401D001D0A0D007063CC0E8FF216074
:1002800001D004D03DC0E8FF216401D015D03EC0AC
:10029000E8FF226001D004D03FC0E8FF226401D013
:1002A0000BD040C0E8FF236001D004D041C0E8FF7C
:1002B000236401D001D0A0D0070642C0E8FF21602E
:1002C00001D004D043C0E8FF216401D015D044C060
:1002D000E8FF226001D004D045C0E8FF226401D0CD
:1002E0000BD046C0E8FF236001D004D047C0E8FF30
:1002F000236401D001D0A0D0070636C0E8FF2160FA
:1003000001D004D037C0E8FF216401D015D038C037
:10031000E8FF226001D004D039C0E8FF226401D098
:100320000BD03AC0E8FF236001D004D03BC0E8FF07
:10033000236401D001D0A0D0070648C0E8FF2160A7
:1003400001D004D049C0E8FF216401D015D04AC0D3
:10035000E8FF226001D004D04BC0E8FF226401D046
:100360000BD04CC0E8FF236001D004D04DC0E8FFA3
:10037000236401D001D0A0D0000E076201D0012A71
:1003800008C0E8FF076201D00580040E076E30C088
:10039000E8FF246001D004D031C0E8FF246401D01C
:1003A00015D032C0E8FF256001D004D033C0E8FF8B
:1003B000256401D00BD034C0E8FF266001D004D002
:1003C00035C0E8FF266401D001D0A0D007063CC0AC
:1003D000E8FF246001D004D03DC0E8FF246401D0D0
:1003E00015D03EC0E8FF256001D004D03FC0E8FF33
:1003F000256401D00BD040C0E8FF266001D004D0B6
:1004000041C0E8FF266401D001D0A0D0070642C059
:10041000E8FF246001D004D043C0E8FF246401D089
:1004200015D044C0E8FF256001D004D045C0E8FFE6
:10043000256401D00BD046C0E8FF266001D004D06F
:1004400047C0E8FF266401D001D0A0D0070636C01F
:10045000E8FF246001D004D037C0E8FF246401D055
:1004600015D038C0E8FF256001D004D039C0E8FFBE
:10047000256401D00BD03AC0E8FF266001D004D03B
:100480003BC0E8FF266401D001D0A0D0070648C0D9
:10049000E8FF246001D004D049C0E8FF246401D003
:1004A00015D04AC0E8FF256001D004D04BC0E8FF5A
:1004B000256401D00BD04CC0E8FF266001D004D0E9
:1004C0004DC0E8FF266401D001D0A0D0000E076225
:1004D00001D0012A08C0E8FF076201D00582040E9E
:1004E000076E30C0E8FF276001D004D031C0E8FFBC
:1004F000276401D015D032C0E8FF286001D004D0B5
:1005000033C0E8FF286401D00BD034C0E8FF296075
:1005100001D004D035C0E8FF296401D001D0A0D0BB
:1005200007063CC0E8FF276001D004D03DC0E8FFCB
:10053000276401D015D03EC0E8FF286001D004D068
:100540003FC0E8FF286401D00BD040C0E8FF29601D
:1005500001D004D041C0E8FF296401D001D0A0D06F
:10056000070642C0E8FF276001D004D043C0E8FF7F
:10057000276401D015D044C0E8FF286001D004D022
:1005800045C0E8FF286401D00BD046C0E8FF2960D1
:1005900001D004D047C0E8FF296401D001D0A0D029
:1005A000070636C0E8FF276001D004D037C0E8FF57
:1005B000276401D015D038C0E8FF286001D004D0EE
:1005C00039C0E8FF286401D00BD03AC0E8FF2960A9
:1005D00001D004D03BC0E8FF296401D001D0A0D0F5
:1005E000070648C0E8FF276001D004D049C0E8FFF3
:1005F000276401D015D04AC0E8FF286001D004D09C
:100600004BC0E8FF286401D00BD04CC0E8FF296044
:1006100001D004D04DC0E8FF296401D001D0A0D0A2
:10062000000E076201D0012A08C0E8FF076201D06E
:100630000584040E076E30C0E8FF2A6001D004D0A4
:1006400031C0E8FF2A6401D015D032C0E8FF2B602A
:1006500001D004D033C0E8FF2B6401D00BD034C0EC
:10066000E8FF2C6001D004D035C0E8FF2C6401D035
:1006700001D0A0D007063CC0E8FF2A6001D004D01A
:100680003DC0E8FF2A6401D015D03EC0E8FF2B60D2
:1006900001D004D03FC0E8FF2B6401D00BD040C094
:1006A000E8FF2C6001D004D041C0E8FF2C6401D0E9
:1006B00001D0A0D0070642C0E8FF2A6001D004D0D4
:1006C00043C0E8FF2A6401D015D044C0E8FF2B6086
:1006D00001D004D045C0E8FF2B6401D00BD046C048
:1006E000E8FF2C6001D004D047C0E8FF2C6401D0A3
:1006F00001D0A0D0070636C0E8FF2A6001D004D0A0
:1007000037C0E8FF2A6401D015D038C0E8FF2B605D
:1007100001D004D039C0E8FF2B6401D00BD03AC01F
:10072000E8FF2C6001D004D03BC0E8FF2C6401D06E
:1007300001D0A0D0070648C0E8FF2A6001D004D04D
:1007400049C0E8FF2A6401D015D04AC0E8FF2B60F9
:1007500001D004D04BC0E8FF2B6401D00BD04CC0BB
:10076000E8FF2C6001D004D04DC0E8FF2C6401D01C
:1007700001D0A0D0000E076201D0012A08C0E8FF16
:10078000076201D00586040E076E30C0E8FF2D60B9
:1007900001D004D031C0E8FF2D6401D015D032C0A3
:1007A000E8FF2E6001D004D033C0E8FF2E6401D0F2
:1007B0000BD034C0E8FF2F6001D004D035C0E8FF73
:1007C0002F6401D001D0A0D007063CC0E8FF2D6007
:1007D00001D004D03DC0E8FF2D6401D015D03EC04B
:1007E000E8FF2E6001D004D03FC0E8FF2E6401D0A6
:1007F0000BD040C0E8FF2F6001D004D041C0E8FF1B
:100800002F6401D001D0A0D0070642C0E8FF2D60C0
:1008100001D004D043C0E8FF2D6401D015D044C0FE
:10082000E8FF2E6001D004D045C0E8FF2E6401D05F
:100830000BD046C0E8FF2F6001D004D047C0E8FFCE
:100840002F6401D001D0A0D0070636C0E8FF2D608C
:1008500001D004D037C0E8FF2D6401D015D038C0D6
:10086000E8FF2E6001D004D039C0E8FF2E6401D02B
:100870000BD03AC0E8FF2F6001D004D03BC0E8FFA6
:100880002F6401D001D0A0D0070648C0E8FF2D603A
:1008900001D004D049C0E8FF2D6401D015D04AC072
:1008A000E8FF2E6001D004D04BC0E8FF2E6401D0D9
:1008B0000BD04CC0E8FF2F6001D004D04DC0E8FF42
:1008C0002F6401D001D0A0D0000E076201D0012A10
:1008D00008C0E8FF076201D00588050E016203D059
:1008E0001F0E806EB3EF09F0806A05C080FF77EFBE
:1008F00009F0120081B002D0000E0CD081B202D0FB
:10090000010E08D081B402D0020E04D081B602D00C
:10091000030E00D0086E17EC01F0ECD7E5EC00F008
:10092000040E076E040E076E30C0E8FF2D6001D084
:1009300004D031C0E8FF2D6401D015D032C0E8FFEB
:100940002E6001D004D033C0E8FF2E6401D00BD05C
:1009500034C0E8FF2F6001D004D035C0E8FF2F6419
:1009600001D001D081D007063CC0E8FF2D6001D046
:1009700004D03DC0E8FF2D6401D015D03EC0E8FF93
:100980002E6001D004D03FC0E8FF2E6401D00BD010
:1009900040C0E8FF2F6001D004D041C0E8FF2F64C1
:1009A00001D001D061D0070642C0E8FF2D6001D020
:1009B00004D043C0E8FF2D6401D015D044C0E8FF47
:1009C0002E6001D004D045C0E8FF2E6401D00BD0CA
:1009D00046C0E8FF2F6001D004D047C0E8FF2F6475
:1009E00001D001D041D0070636C0E8FF2D6001D00C
:1009F00004D037C0E8FF2D6401D015D038C0E8FF1F
:100A00002E6001D004D039C0E8FF2E6401D00BD095
:100A10003AC0E8FF2F6001D004D03BC0E8FF2F644C
:100A200001D001D021D0070648C0E8FF2D6001D0D9
:100A300004D049C0E8FF2D6401D015D04AC0E8FFBA
:100A40002E6001D004D04BC0E8FF2E6401D00BD043
:100A50004CC0E8FF2F6001D004D04DC0E8FF2F64E8
:100A600001D001D001D05AD70AEC01F057D70000CD
:100A7000000000001000F2A092EF05F081A850D015
:100A8000066601D002D006824BD00B6605D004D09A
:100A900009C083FF0B6A44D0830ED56E600ED76EFB
:100AA000AA0ED66EF294D58EF2A4FDD7D59E830EF3
:100AB000D56E600ED76EAA0ED66EF294D58EF2A4C5
:100AC000FDD7D59E830ED56E600ED76EAA0ED66E5C
:100AD000F294D58EF2A4FDD7D59E830ED56E600E0E
:100AE000D76EAA0ED66EF294D58EF2A4FDD7D59EFF
:100AF000830ED56E600ED76EAA0ED66EF294D58E8A
:100B0000F2A4FDD7D59E830ED56E600ED76EAA0EC9
:100B1000D66EF294D58EF2A4FDD7D59E0B2A00D0C6
:100B20008150F290100096EC05F01200010E066E56
:100B300006C0E8FF838006A2FED7069246EC00F0CE
:100B40002DC001F0100E016003D0000E306E04D0F5
:100B500001C030F0100E305EEF0E016403D0FF0EC6
:100B6000316E04D001C031F0100E31262EC001F0DC
:100B7000100E016003D0000E326E04D001C032F0BE
:100B8000100E325EEF0E016403D0FF0E336E04D000
:100B900001C033F0100E33262FC001F0100E01609B
:100BA00003D0000E346E04D001C034F0100E345E59
:100BB000EF0E016403D0FF0E356E04D001C035F096
:100BC000100E3526030E016E010E836E830ED56E58
:100BD000600ED76EAA0ED66EF294D58EF2A4FDD713
:100BE000D59E836A830ED56E600ED76EAA0ED66E22
:100BF000F294D58EF2A4FDD7D59E012EE5D706C07E
:100C0000E8FF838206A2FED7069246EC00F02DC0D4
:100C100001F0100E016003D0000E3C6E04D001C044
:100C20003CF0100E3C5EEF0E016403D0FF0E3D6EF3
:100C300004D001C03DF0100E3D262EC001F0100E74
:100C4000016003D0000E3E6E04D001C03EF0100ED5
:100C50003E5EEF0E016403D0FF0E3F6E04D001C074
:100C60003FF0100E3F262FC001F0100E016003D0A0
:100C7000000E406E04D001C040F0100E405EEF0E3A
:100C8000016403D0FF0E416E04D001C041F0100E8C
:100C90004126030E016E020E836E830ED56E600E2A
:100CA000D76EAA0ED66EF294D58EF2A4FDD7D59E3D
:100CB000836A830ED56E600ED76EAA0ED66EF2943E
:100CC000D58EF2A4FDD7D59E012EE5D706C0E8FF4C
:100CD000838406A2FED7069246EC00F02DC001F0F8
:100CE000100E016003D0000E426E04D001C042F02D
:100CF000100E425EEF0E016403D0FF0E436E04D06F
:100D000001C043F0100E43262EC001F0100E01600A
:100D100003D0000E446E04D001C044F0100E445EB7
:100D2000EF0E016403D0FF0E456E04D001C045F004
:100D3000100E45262FC001F0100E016003D0000EEA
:100D4000466E04D001C046F0100E465EEF0E016400
:100D500003D0FF0E476E04D001C047F0100E4726A7
:100D6000030E016E040E836E830ED56E600ED76E79
:100D7000AA0ED66EF294D58EF2A4FDD7D59E836AC4
:100D8000830ED56E600ED76EAA0ED66EF294D58EF7
:100D9000F2A4FDD7D59E012EE5D706C0E8FF8388D3
:100DA00006A2FED7069246EC00F02DC001F0100E10
:100DB000016003D0000E486E04D001C048F0100E50
:100DC000485EEF0E016403D0FF0E496E04D001C0EF
:100DD00049F0100E49262EC001F0100E016003D01C
:100DE000000E4A6E04D001C04AF0100E4A5EEF0EAB
:100DF000016403D0FF0E4B6E04D001C04BF0100E07
:100E00004B262FC001F0100E016003D0000E4C6E77
:100E100004D001C04CF0100E4C5EEF0E016403D004
:100E2000FF0E4D6E04D001C04DF0100E4D26030E86
:100E3000016E100E836E830ED56E600ED76EAA0EF5
:100E4000D66EF294D58EF2A4FDD7D59E836A830E1A
:100E5000D56E600ED76EAA0ED66EF294D58EF2A421
:100E6000FDD7D59E012EE5D706C0E8FF838606A2F2
:100E7000FED7069246EC00F02DC001F0100E016086
:100E800003D0000E366E04D001C036F0100E365E70
:100E9000EF0E016403D0FF0E376E04D001C037F0AF
:100EA000100E37262EC001F0100E016003D0000E88
:100EB000386E04D001C038F0100E385EEF0E0164B9
:100EC00003D0FF0E396E04D001C039F0100E392660
:100ED0002FC001F0100E016003D0000E3A6E04D056
:100EE00001C03AF0100E3A5EEF0E016403D0FF0E1F
:100EF0003B6E04D001C03BF0100E3B26030E016E8A
:100F0000080E836E830ED56E600ED76EAA0ED66E57
:100F1000F294D58EF2A4FDD7D59E836A830ED56E4A
:100F2000600ED76EAA0ED66EF294D58EF2A4FDD7BF
:100F3000D59E012EE5D7836A066A1200FA0E216E4D
:100F4000246E276E2A6E2D6EFA0E226E256E286E86
:100F50002B6E2E6EFA0E236E266E296E2C6E2F6E61
:100F60002DC001F0100E016003D0000E306E04D0D1
:100F700001C030F0100E305EEF0E016403D0FF0EA2
:100F8000316E04D001C031F0100E31262EC001F0B8
:100F9000100E016003D0000E326E04D001C032F09A
:100FA000100E325EEF0E016403D0FF0E336E04D0DC
:100FB00001C033F0100E33262FC001F0100E016077
:100FC00003D0000E346E04D001C034F0100E345E35
:100FD000EF0E016403D0FF0E356E04D001C035F072
:100FE000100E3526080E216E246E276E2A6E2D6E89
:100FF0000A0E226E256E286E2B6E2E6E0F0E236E3D
:10100000266E296E2C6E2F6E2DC001F0100E016021
:1010100003D0000E486E04D001C048F0100E485EA8
:10102000EF0E016403D0FF0E496E04D001C049F0F9
:10103000100E49262EC001F0100E016003D0000EE4
:101040004A6E04D001C04AF0100E4A5EEF0E0164F1
:1010500003D0FF0E4B6E04D001C04BF0100E4B2698
:101060002FC001F0100E016003D0000E4C6E04D0B2
:1010700001C04CF0100E4C5EEF0E016403D0FF0E69
:101080004D6E04D001C04DF0100E4D26EE0E216EB7
:10109000246E276E2A6E2D6E270E226E256E286E08
:1010A0002B6E2E6E320E236E266E296E2C6E2F6ED8
:1010B0002DC001F0100E016003D0000E366E04D07A
:1010C00001C036F0100E365EEF0E016403D0FF0E45
:1010D000376E04D001C037F0100E37262EC001F055
:1010E000100E016003D0000E386E04D001C038F03D
:1010F000100E385EEF0E016403D0FF0E396E04D07F
:1011000001C039F0100E39262FC001F0100E016019
:1011100003D0000E3A6E04D001C03AF0100E3A5ED1
:10112000EF0E016403D0FF0E3B6E04D001C03BF014
:10113000100E3B26620E216E246E276E2A6E2D6ED7
:10114000E00E226E256E286E2B6E2E6E3F0E236EE5
:10115000266E296E2C6E2F6E2DC001F0100E0160D0
:1011600003D0000E3C6E04D001C03CF0100E3C5E7B
:10117000EF0E016403D0FF0E3D6E04D001C03DF0C0
:10118000100E3D262EC001F0100E016003D0000E9F
:101190003E6E04D001C03EF0100E3E5EEF0E0164C4
:1011A00003D0FF0E3F6E04D001C03FF0100E3F266B
:1011B0002FC001F0100E016003D0000E406E04D06D
:1011C00001C040F0100E405EEF0E016403D0FF0E30
:1011D000416E04D001C041F0100E41261E0E216E5A
:1011E000246E276E2A6E2D6E440E226E256E286E9A
:1011F0002B6E2E6ECC0E236E266E296E2C6E2F6EED
:101200002DC001F0100E016003D0000E426E04D01C
:1012100001C042F0100E425EEF0E016403D0FF0EDB
:10122000436E04D001C043F0100E43262EC001F0DF
:10123000100E016003D0000E446E04D001C044F0D3
:10124000100E445EEF0E016403D0FF0E456E04D015
:1012500001C045F0100E45262FC001F0100E0160B0
:1012600003D0000E466E04D001C046F0100E465E5C
:10127000EF0E016403D0FF0E476E04D001C047F0AB
:10128000100E47261200E5EC00F02DC083FF830E00
:10129000D56E600ED76EAA0ED66EF294D58EF2A4DD
:1012A000FDD7D59E2EC083FF830ED56E600ED76E00
:1012B000AA0ED66EF294D58EF2A4FDD7D59E2FC07D
:1012C00083FF830ED56E600ED76EAA0ED66EF29493
:1012D000D58EF2A4FDD7D59E836AD5D751EC00F008
:1012E000C4CF83FF066A068006A2FED7F7D7055053
:1012F000100A2AE00550180A27E005501C0A24E0CD
:1013000005501E0A21E00550010A21E00550030A9C
:101310001EE00550070A1BE005500F0A18E00550B3
:10132000080A18E005500C0A15E00550020A15E0FD
:101330000550060A12E00550040A12E005500E0A94
:101340000FE0B6EF09F01200010E8C6E1200100EC5
:101350008C6E1200020E8C6E1200080E8C6E120043
:10136000040E8C6E1200200E8C6E1200400E8C6EDD
:10137000120096EC05F08EEC04F000D00000FED7D1
:020000040030CA
:03000100281F3C79
:02000500BB85B9
:060008000FC00FE00F40E5
:00000001FF
