:0C00000010EC00F0DDEF12F03BEF05F01B
:0400180037EF05F0C9
:100020000F01806A896A000E386E000E926E0F0111
:10003000816B8A6B200E396F3F0E936F0F01826ABE
:100040008B6AF80E3A6EF80E946E0F01836A8C6A12
:10005000000E3B6E000E956E0F01846A8D6A3C6A3D
:10006000000E966E740ED36E3E0EC06E000EC16E04
:100070003D0EC26E9D8D9F8D61896289628BF19E5E
:100080008150F290F286F28E0001120051EC00F0E5
:1000900076EC00F09BEC00F0C0EC00F0E5EC00F03A
:1000A00012003D0EC26E830ED56EFD0ED76EDD0EB4
:1000B000D66EF294D58EF2A4FDD7D59E060E826E32
:1000C000C282C2B2FED7C4CF21F0050E826EC282B8
:1000D000C2B2FED7C4CF22F0030E826EC282C2B279
:1000E000FED7C4CF23F0000E826E1200410EC26E06
:1000F000830ED56EFD0ED76EDD0ED66EF294D58EC4
:10010000F2A4FDD7D59E060E826EC282C2B2FED781
:10011000C4CF24F0050E826EC282C2B2FED7C4CF15
:1001200025F0030E826EC282C2B2FED7C4CF26F083
:10013000000E826E1200450EC26E830ED56EFD0E4D
:10014000D76EDD0ED66EF294D58EF2A4FDD7D59E75
:10015000060E826EC282C2B2FED7C4CF27F0050E51
:10016000826EC282C2B2FED7C4CF28F0030E826E66
:10017000C282C2B2FED7C4CF29F0000E826E120036
:10018000490EC26E830ED56EFD0ED76EDD0ED66E95
:10019000F294D58EF2A4FDD7D59E060E826EC28251
:1001A000C2B2FED7C4CF2AF0050E826EC282C2B29E
:1001B000FED7C4CF2BF0030E826EC282C2B2FED72E
:1001C000C4CF2CF0000E826E12004D0EC26E830E54
:1001D000D56EFD0ED76EDD0ED66EF294D58EF2A4DE
:1001E000FDD7D59E060E826EC282C2B2FED7C4CFA4
:1001F0002DF0050E826EC282C2B2FED7C4CF2EF0A1
:10020000030E826EC282C2B2FED7C4CF2FF0000EA0
:10021000826E1200096A0980040E076201D004D0C0
:100220000946E80609A8F9D709C083FF1200056A44
:10023000016A46EC00F0040E076E30C0E8FF216052
:1002400001D004D031C0E8FF216401D015D032C004
:10025000E8FF226001D004D033C0E8FF226401D05F
:100260000BD034C0E8FF236001D004D035C0E8FFD4
:10027000236401D001D080D007063CC0E8FF216094
:1002800001D004D03DC0E8FF216401D015D03EC0AC
:10029000E8FF226001D004D03FC0E8FF226401D013
:1002A0000BD040C0E8FF236001D004D041C0E8FF7C
:1002B000236401D001D060D0070642C0E8FF21606E
:1002C00001D004D043C0E8FF216401D015D044C060
:1002D000E8FF226001D004D045C0E8FF226401D0CD
:1002E0000BD046C0E8FF236001D004D047C0E8FF30
:1002F000236401D001D040D0070636C0E8FF21605A
:1003000001D004D037C0E8FF216401D015D038C037
:10031000E8FF226001D004D039C0E8FF226401D098
:100320000BD03AC0E8FF236001D004D03BC0E8FF07
:10033000236401D001D020D0070648C0E8FF216027
:1003400001D004D049C0E8FF216401D015D04AC0D3
:10035000E8FF226001D004D04BC0E8FF226401D046
:100360000BD04CC0E8FF236001D004D04DC0E8FFA3
:10037000236401D001D000D0000E076201D0012A11
:1003800008C0E8FF076201D00580040E076E4EC06A
:10039000E8FF246001D004D04FC0E8FF246401D0FE
:1003A00015D050C0E8FF256001D004D051C0E8FF4F
:1003B000256401D00BD052C0E8FF266001D004D0E4
:1003C00053C0E8FF266401D001D080D007065AC090
:1003D000E8FF246001D004D05BC0E8FF246401D0B2
:1003E00015D05CC0E8FF256001D004D05DC0E8FFF7
:1003F000256401D00BD05EC0E8FF266001D004D098
:100400005FC0E8FF266401D001D060D0070660C05D
:10041000E8FF246001D004D061C0E8FF246401D06B
:1004200015D062C0E8FF256001D004D063C0E8FFAA
:10043000256401D00BD064C0E8FF266001D004D051
:1004400065C0E8FF266401D001D040D0070654C043
:10045000E8FF246001D004D055C0E8FF246401D037
:1004600015D056C0E8FF256001D004D057C0E8FF82
:10047000256401D00BD058C0E8FF266001D004D01D
:1004800059C0E8FF266401D001D020D0070666C01D
:10049000E8FF246001D004D067C0E8FF246401D0E5
:1004A00015D068C0E8FF256001D004D069C0E8FF1E
:1004B000256401D00BD06AC0E8FF266001D004D0CB
:1004C0006BC0E8FF266401D001D000D0000E0762A7
:1004D00001D0012A08C0E8FF076201D00582040E9E
:1004E000076E6CC0E8FF276001D004D06DC0E8FF44
:1004F000276401D015D06EC0E8FF286001D004D079
:100500006FC0E8FF286401D00BD070C0E8FF2960FD
:1005100001D004D071C0E8FF296401D001D080D09F
:10052000070678C0E8FF276001D004D079C0E8FF53
:10053000276401D015D07AC0E8FF286001D004D02C
:100540007BC0E8FF286401D00BD07CC0E8FF2960A5
:1005500001D004D07DC0E8FF296401D001D060D073
:1005600007067EC0E8FF276001D004D07FC0E8FF07
:10057000276401D015D080C0E8FF286001D004D0E6
:1005800081C0E8FF286401D00BD082C0E8FF296059
:1005900001D004D083C0E8FF296401D001D040D04D
:1005A000070672C0E8FF276001D004D073C0E8FFDF
:1005B000276401D015D074C0E8FF286001D004D0B2
:1005C00075C0E8FF286401D00BD076C0E8FF296031
:1005D00001D004D077C0E8FF296401D001D020D039
:1005E000070684C0E8FF276001D004D085C0E8FF7B
:1005F000276401D015D086C0E8FF286001D004D060
:1006000087C0E8FF286401D00BD088C0E8FF2960CC
:1006100001D004D089C0E8FF296401D001D000D006
:10062000000E076201D0012A08C0E8FF076201D06E
:100630000584040E076E8AC0E8FF2A6001D004D04A
:100640008BC0E8FF2A6401D015D08CC0E8FF2B6076
:1006500001D004D08DC0E8FF2B6401D00BD08EC038
:10066000E8FF2C6001D004D08FC0E8FF2C6401D0DB
:1006700001D080D0070696C0E8FF2A6001D004D0E0
:1006800097C0E8FF2A6401D015D098C0E8FF2B601E
:1006900001D004D099C0E8FF2B6401D00BD09AC0E0
:1006A000E8FF2C6001D004D09BC0E8FF2C6401D08F
:1006B00001D060D007069CC0E8FF2A6001D004D0BA
:1006C0009DC0E8FF2A6401D015D09EC0E8FF2B60D2
:1006D00001D004D09FC0E8FF2B6401D00BD0A0C094
:1006E000E8FF2C6001D004D0A1C0E8FF2C6401D049
:1006F00001D040D0070690C0E8FF2A6001D004D0A6
:1007000091C0E8FF2A6401D015D092C0E8FF2B60A9
:1007100001D004D093C0E8FF2B6401D00BD094C06B
:10072000E8FF2C6001D004D095C0E8FF2C6401D014
:1007300001D020D00706A2C0E8FF2A6001D004D073
:10074000A3C0E8FF2A6401D015D0A4C0E8FF2B6045
:1007500001D004D0A5C0E8FF2B6401D00BD0A6C007
:10076000E8FF2C6001D004D0A7C0E8FF2C6401D0C2
:1007700001D000D0000E076201D0012A08C0E8FFB6
:10078000076201D00586040E076EA8C0E8FF2D6041
:1007900001D004D0A9C0E8FF2D6401D015D0AAC0B3
:1007A000E8FF2E6001D004D0ABC0E8FF2E6401D07A
:1007B0000BD0ACC0E8FF2F6001D004D0ADC0E8FF83
:1007C0002F6401D001D080D00706B4C0E8FF2D60AF
:1007D00001D004D0B5C0E8FF2D6401D015D0B6C05B
:1007E000E8FF2E6001D004D0B7C0E8FF2E6401D02E
:1007F0000BD0B8C0E8FF2F6001D004D0B9C0E8FF2B
:100800002F6401D001D060D00706BAC0E8FF2D6088
:1008100001D004D0BBC0E8FF2D6401D015D0BCC00E
:10082000E8FF2E6001D004D0BDC0E8FF2E6401D0E7
:100830000BD0BEC0E8FF2F6001D004D0BFC0E8FFDE
:100840002F6401D001D040D00706AEC0E8FF2D6074
:1008500001D004D0AFC0E8FF2D6401D015D0B0C0E6
:10086000E8FF2E6001D004D0B1C0E8FF2E6401D0B3
:100870000BD0B2C0E8FF2F6001D004D0B3C0E8FFB6
:100880002F6401D001D020D00706C0C0E8FF2D6042
:1008900001D004D0C1C0E8FF2D6401D015D0C2C082
:1008A000E8FF2E6001D004D0C3C0E8FF2E6401D061
:1008B0000BD0C4C0E8FF2F6001D004D0C5C0E8FF52
:1008C0002F6401D001D000D0000E076201D0012AB0
:1008D00008C0E8FF076201D00588050E016203D059
:1008E0001F0E806ED7EF12F0806A05C080FF9BEF6D
:1008F00012F0120081B002D0000E0DD081B202D0F1
:10090000010E09D081B402D0020E05D081B602D00A
:10091000030E01D0020E086E17EC01F0EBD71200A7
:10092000E5EC00F0040E076EA8C0E8FF2D6001D0D2
:1009300004D0A9C0E8FF2D6401D015D0AAC0E8FFFB
:100940002E6001D004D0ABC0E8FF2E6401D00BD0E4
:10095000ACC0E8FF2F6001D004D0ADC0E8FF2F6429
:1009600001D001D081D00706B4C0E8FF2D6001D0CE
:1009700004D0B5C0E8FF2D6401D015D0B6C0E8FFA3
:100980002E6001D004D0B7C0E8FF2E6401D00BD098
:10099000B8C0E8FF2F6001D004D0B9C0E8FF2F64D1
:1009A00001D001D061D00706BAC0E8FF2D6001D0A8
:1009B00004D0BBC0E8FF2D6401D015D0BCC0E8FF57
:1009C0002E6001D004D0BDC0E8FF2E6401D00BD052
:1009D000BEC0E8FF2F6001D004D0BFC0E8FF2F6485
:1009E00001D001D041D00706AEC0E8FF2D6001D094
:1009F00004D0AFC0E8FF2D6401D015D0B0C0E8FF2F
:100A00002E6001D004D0B1C0E8FF2E6401D00BD01D
:100A1000B2C0E8FF2F6001D004D0B3C0E8FF2F645C
:100A200001D001D021D00706C0C0E8FF2D6001D061
:100A300004D0C1C0E8FF2D6401D015D0C2C0E8FFCA
:100A40002E6001D004D0C3C0E8FF2E6401D00BD0CB
:100A5000C4C0E8FF2F6001D004D0C5C0E8FF2F64F8
:100A600001D001D001D05CD70AEC01F059D70000C9
:100A7000000000001000F2A092EF05F081A850D015
:100A8000066601D002D006824BD00B6605D004D09A
:100A900009C083FF0B6A44D0830ED56E600ED76EFB
:100AA000AA0ED66EF294D58EF2A4FDD7D59E830EF3
:100AB000D56E600ED76EAA0ED66EF294D58EF2A4C5
:100AC000FDD7D59E830ED56E600ED76EAA0ED66E5C
:100AD000F294D58EF2A4FDD7D59E830ED56E600E0E
:100AE000D76EAA0ED66EF294D58EF2A4FDD7D59EFF
:100AF000830ED56E600ED76EAA0ED66EF294D58E8A
:100B0000F2A4FDD7D59E830ED56E600ED76EAA0EC9
:100B1000D66EF294D58EF2A4FDD7D59E0B2A00D0C6
:100B20008150F290100096EC05F01200010E066E56
:100B300006C0E8FF838006A2FED7069246EC00F0CE
:100B4000100E216003D0000E306E04D021C030F0B2
:100B5000100E305EEF0E216403D0FF0E316E04D014
:100B600021C031F0100E3126100E226003D0000E8D
:100B7000326E04D022C032F0100E325EEF0E2264CC
:100B800003D0FF0E336E04D022C033F0100E332694
:100B9000100E236003D0000E346E04D023C034F056
:100BA000100E345EEF0E236403D0FF0E356E04D0BA
:100BB00023C035F0100E3526100E246003D0000E31
:100BC0004E6E04D024C04EF0100E4E5EEF0E246424
:100BD00003D0FF0E4F6E04D024C04FF0100E4F26EE
:100BE000100E256003D0000E506E04D025C050F0CA
:100BF000100E505EEF0E256403D0FF0E516E04D030
:100C000025C051F0100E5126100E266003D0000EA4
:100C1000526E04D026C052F0100E525EEF0E2664C3
:100C200003D0FF0E536E04D026C053F0100E53268F
:100C3000100E276003D0000E6C6E04D027C06CF03D
:100C4000100E6C5EEF0E276403D0FF0E6D6E04D0A5
:100C500027C06DF0100E6D26100E286003D0000E18
:100C60006E6E04D028C06EF0100E6E5EEF0E28641B
:100C700003D0FF0E6F6E04D028C06FF0100E6F26E9
:100C8000100E296003D0000E706E04D029C070F0E1
:100C9000100E705EEF0E296403D0FF0E716E04D04B
:100CA00029C071F0100E7126100E2A6003D0000EBC
:100CB0008A6E04D02AC08AF0100E8A5EEF0E2A6473
:100CC00003D0FF0E8B6E04D02AC08BF0100E8B2643
:100CD000100E2B6003D0000E8C6E04D02BC08CF055
:100CE000100E8C5EEF0E2B6403D0FF0E8D6E04D0C1
:100CF0002BC08DF0100E8D26100E2C6003D0000E30
:100D00008E6E04D02CC08EF0100E8E5EEF0E2C6412
:100D100003D0FF0E8F6E04D02CC08FF0100E8F26E4
:100D2000100E2D6003D0000EA86E04D02DC0A8F0C8
:100D3000100EA85EEF0E2D6403D0FF0EA96E04D036
:100D40002DC0A9F0100EA926100E2E6003D0000EA3
:100D5000AA6E04D02EC0AAF0100EAA5EEF0E2E646A
:100D600003D0FF0EAB6E04D02EC0ABF0100EAB263E
:100D7000100E2F6003D0000EAC6E04D02FC0ACF06C
:100D8000100EAC5EEF0E2F6403D0FF0EAD6E04D0DC
:100D90002FC0ADF0100EAD26030E016E010E836E56
:100DA000830ED56E600ED76EAA0ED66EF294D58ED7
:100DB000F2A4FDD7D59E836A830ED56E600ED76EE2
:100DC000AA0ED66EF294D58EF2A4FDD7D59E012E32
:100DD000E5D706C0E8FF838206A2FED7069246EC5E
:100DE00000F0100E216003D0000E3C6E04D021C034
:100DF0003CF0100E3C5EEF0E216403D0FF0E3D6E02
:100E000004D021C03DF0100E3D26100E226003D00C
:100E1000000E3E6E04D022C03EF0100E3E5EEF0E7D
:100E2000226403D0FF0E3F6E04D022C03FF0100EAC
:100E30003F26100E236003D0000E406E04D023C066
:100E400040F0100E405EEF0E236403D0FF0E416EA3
:100E500004D023C041F0100E4126100E246003D0B0
:100E6000000E5A6E04D024C05AF0100E5A5EEF0ED7
:100E7000246403D0FF0E5B6E04D024C05BF0100E20
:100E80005B26100E256003D0000E5C6E04D025C0DA
:100E90005CF0100E5C5EEF0E256403D0FF0E5D6EFD
:100EA00004D025C05DF0100E5D26100E266003D024
:100EB000000E5E6E04D026C05EF0100E5E5EEF0E79
:100EC000266403D0FF0E5F6E04D026C05FF0100EC4
:100ED0005F26100E276003D0000E786E04D027C066
:100EE00078F0100E785EEF0E276403D0FF0E796E57
:100EF00004D027C079F0100E7926100E286003D098
:100F0000000E7A6E04D028C07AF0100E7A5EEF0ED2
:100F1000286403D0FF0E7B6E04D028C07BF0100E37
:100F20007B26100E296003D0000E7C6E04D029C0F1
:100F30007CF0100E7C5EEF0E296403D0FF0E7D6EF8
:100F400004D029C07DF0100E7D26100E2A6003D03B
:100F5000000E966E04D02AC096F0100E965EEF0E2C
:100F60002A6403D0FF0E976E04D02AC097F0100EAB
:100F70009726100E2B6003D0000E986E04D02BC065
:100F800098F0100E985EEF0E2B6403D0FF0E996E52
:100F900004D02BC099F0100E9926100E2C6003D0AF
:100FA000000E9A6E04D02CC09AF0100E9A5EEF0ECE
:100FB0002C6403D0FF0E9B6E04D02CC09BF0100E4F
:100FC0009B26100E2D6003D0000EB46E04D02DC0F1
:100FD000B4F0100EB45EEF0E2D6403D0FF0EB56EAC
:100FE00004D02DC0B5F0100EB526100E2E6003D023
:100FF000000EB66E04D02EC0B6F0100EB65EEF0E28
:101000002E6403D0FF0EB76E04D02EC0B7F0100EC2
:10101000B726100E2F6003D0000EB86E04D02FC07C
:10102000B8F0100EB85EEF0E2F6403D0FF0EB96E4D
:1010300004D02FC0B9F0100EB926030E016E020EB7
:10104000836E830ED56E600ED76EAA0ED66EF294A6
:10105000D58EF2A4FDD7D59E836A830ED56E600E21
:10106000D76EAA0ED66EF294D58EF2A4FDD7D59E79
:10107000012EE5D706C0E8FF838406A2FED70692BC
:1010800046EC00F0100E216003D0000E426E04D03A
:1010900021C042F0100E425EEF0E216403D0FF0E1D
:1010A000436E04D021C043F0100E4326100E226080
:1010B00003D0000E446E04D022C044F0100E445EF3
:1010C000EF0E226403D0FF0E456E04D022C045F01F
:1010D000100E4526100E236003D0000E466E04D07D
:1010E00023C046F0100E465EEF0E236403D0FF0EC1
:1010F000476E04D023C047F0100E4726100E246020
:1011000003D0000E606E04D024C060F0100E605E4C
:10111000EF0E246403D0FF0E616E04D024C061F092
:10112000100E6126100E256003D0000E626E04D0F2
:1011300025C062F0100E625EEF0E256403D0FF0E34
:10114000636E04D025C063F0100E6326100E266077
:1011500003D0000E646E04D026C064F0100E645EEE
:10116000EF0E266403D0FF0E656E04D026C065F036
:10117000100E6526100E276003D0000E7E6E04D080
:1011800027C07EF0100E7E5EEF0E276403D0FF0EA8
:101190007F6E04D027C07FF0100E7F26100E2860CF
:1011A00003D0000E806E04D028C080F0100E805E48
:1011B000EF0E286403D0FF0E816E04D028C081F0AA
:1011C000100E8126100E296003D0000E826E04D00E
:1011D00029C082F0100E825EEF0E296403D0FF0E4C
:1011E000836E04D029C083F0100E8326100E2A606F
:1011F00003D0000E9C6E04D02AC09CF0100E9C5EA2
:10120000EF0E2A6403D0FF0E9D6E04D02AC09DF01D
:10121000100E9D26100E2B6003D0000E9E6E04D083
:101220002BC09EF0100E9E5EEF0E2B6403D0FF0EBF
:101230009F6E04D02BC09FF0100E9F26100E2C60C6
:1012400003D0000EA06E04D02CC0A0F0100EA05E43
:10125000EF0E2C6403D0FF0EA16E04D02CC0A1F0C1
:10126000100EA126100E2D6003D0000EBA6E04D011
:101270002DC0BAF0100EBA5EEF0E2D6403D0FF0E33
:10128000BB6E04D02DC0BBF0100EBB26100E2E601E
:1012900003D0000EBC6E04D02EC0BCF0100EBC5E9D
:1012A000EF0E2E6403D0FF0EBD6E04D02EC0BDF035
:1012B000100EBD26100E2F6003D0000EBE6E04D09F
:1012C0002FC0BEF0100EBE5EEF0E2F6403D0FF0ED7
:1012D000BF6E04D02FC0BFF0100EBF26030E016EEC
:1012E000040E836E830ED56E600ED76EAA0ED66E78
:1012F000F294D58EF2A4FDD7D59E836A830ED56E67
:10130000600ED76EAA0ED66EF294D58EF2A4FDD7DB
:10131000D59E012EE5D706C0E8FF838806A2FED73A
:10132000069246EC00F0100E216003D0000E486ECD
:1013300004D021C048F0100E485EEF0E216403D0A7
:10134000FF0E496E04D021C049F0100E4926100E40
:10135000226003D0000E4A6E04D022C04AF0100E64
:101360004A5EEF0E226403D0FF0E4B6E04D022C003
:101370004BF0100E4B26100E236003D0000E4C6E67
:1013800004D023C04CF0100E4C5EEF0E236403D04B
:10139000FF0E4D6E04D023C04DF0100E4D26100EE2
:1013A000246003D0000E666E04D024C066F0100ED8
:1013B000665EEF0E246403D0FF0E676E04D024C077
:1013C00067F0100E6726100E256003D0000E686EC1
:1013D00004D025C068F0100E685EEF0E256403D0BF
:1013E000FF0E696E04D025C069F0100E6926100E3C
:1013F000266003D0000E6A6E04D026C06AF0100E7C
:101400006A5EEF0E266403D0FF0E6B6E04D026C01A
:101410006BF0100E6B26100E276003D0000E846E4A
:1014200004D027C084F0100E845EEF0E276403D032
:10143000FF0E856E04D027C085F0100E8526100E95
:10144000286003D0000E866E04D028C086F0100EEF
:10145000865EEF0E286403D0FF0E876E04D028C08E
:1014600087F0100E8726100E296003D0000E886EBC
:1014700004D029C088F0100E885EEF0E296403D0D6
:10148000FF0E896E04D029C089F0100E8926100E37
:101490002A6003D0000EA26E04D02AC0A2F0100E63
:1014A000A25EEF0E2A6403D0FF0EA36E04D02AC002
:1014B000A3F0100EA326100E2B6003D0000EA46E16
:1014C00004D02BC0A4F0100EA45EEF0E2B6403D04A
:1014D000FF0EA56E04D02BC0A5F0100EA526100E91
:1014E0002C6003D0000EA66E04D02CC0A6F0100E07
:1014F000A65EEF0E2C6403D0FF0EA76E04D02CC0A6
:10150000A7F0100EA726100E2D6003D0000EC06E9F
:1015100004D02DC0C0F0100EC05EEF0E2D6403D0BD
:10152000FF0EC16E04D02DC0C1F0100EC126100EEA
:101530002E6003D0000EC26E04D02EC0C2F0100E7A
:10154000C25EEF0E2E6403D0FF0EC36E04D02EC019
:10155000C3F0100EC326100E2F6003D0000EC46E11
:1015600004D02FC0C4F0100EC45EEF0E2F6403D061
:10157000FF0EC56E04D02FC0C5F0100EC526030E99
:10158000016E100E836E830ED56E600ED76EAA0E9E
:10159000D66EF294D58EF2A4FDD7D59E836A830EC3
:1015A000D56E600ED76EAA0ED66EF294D58EF2A4CA
:1015B000FDD7D59E012EE5D706C0E8FF838606A29B
:1015C000FED7069246EC00F0100E216003D0000E0C
:1015D000366E04D021C036F0100E365EEF0E216458
:1015E00003D0FF0E376E04D021C037F0100E37261F
:1015F000100E226003D0000E386E04D022C038F0E6
:10160000100E385EEF0E226403D0FF0E396E04D048
:1016100022C039F0100E3926100E236003D0000EC0
:101620003A6E04D023C03AF0100E3A5EEF0E2364F7
:1016300003D0FF0E3B6E04D023C03BF0100E3B26C0
:10164000100E246003D0000E546E04D024C054F059
:10165000100E545EEF0E246403D0FF0E556E04D0BE
:1016600024C055F0100E5526100E256003D0000E34
:10167000566E04D025C056F0100E565EEF0E25644F
:1016800003D0FF0E576E04D025C057F0100E57261A
:10169000100E266003D0000E586E04D026C058F0FD
:1016A000100E585EEF0E266403D0FF0E596E04D064
:1016B00026C059F0100E5926100E276003D0000ED8
:1016C000726E04D027C072F0100E725EEF0E2764A7
:1016D00003D0FF0E736E04D027C073F0100E732674
:1016E000100E286003D0000E746E04D028C074F071
:1016F000100E745EEF0E286403D0FF0E756E04D0DA
:1017000028C075F0100E7526100E296003D0000E4B
:10171000766E04D029C076F0100E765EEF0E296446
:1017200003D0FF0E776E04D029C077F0100E772615
:10173000100E2A6003D0000E906E04D02AC090F0E4
:10174000100E905EEF0E2A6403D0FF0E916E04D04F
:101750002AC091F0100E9126100E2B6003D0000EBF
:10176000926E04D02BC092F0100E925EEF0E2B649E
:1017700003D0FF0E936E04D02BC093F0100E93266F
:10178000100E2C6003D0000E946E04D02CC094F088
:10179000100E945EEF0E2C6403D0FF0E956E04D0F5
:1017A0002CC095F0100E9526100E2D6003D0000E63
:1017B000AE6E04D02DC0AEF0100EAE5EEF0E2D64F6
:1017C00003D0FF0EAF6E04D02DC0AFF0100EAF26C9
:1017D000100E2E6003D0000EB06E04D02EC0B0F0FC
:1017E000100EB05EEF0E2E6403D0FF0EB16E04D06B
:1017F0002EC0B1F0100EB126100E2F6003D0000ED7
:10180000B26E04D02FC0B2F0100EB25EEF0E2F6495
:1018100003D0FF0EB36E04D02FC0B3F0100EB3266A
:10182000030E016E080E836E830ED56E600ED76EAA
:10183000AA0ED66EF294D58EF2A4FDD7D59E836AF9
:10184000830ED56E600ED76EAA0ED66EF294D58E2C
:10185000F2A4FDD7D59E012EE5D7836A066A120051
:10186000FA0E216E246E276E2A6E2D6EFA0E226EEF
:10187000256E286E2B6E2E6EFA0E236E266E296E46
:101880002C6E2F6E100E216003D0000E306E04D02F
:1018900021C030F0100E305EEF0E216403D0FF0E39
:1018A000316E04D021C031F0100E3126100E2260AE
:1018B00003D0000E326E04D022C032F0100E325E21
:1018C000EF0E226403D0FF0E336E04D022C033F03B
:1018D000100E3326100E236003D0000E346E04D099
:1018E00023C034F0100E345EEF0E236403D0FF0EDD
:1018F000356E04D023C035F0100E3526100E24604E
:1019000003D0000E4E6E04D024C04EF0100E4E5E7A
:10191000EF0E246403D0FF0E4F6E04D024C04FF0AE
:10192000100E4F26100E256003D0000E506E04D00E
:1019300025C050F0100E505EEF0E256403D0FF0E50
:10194000516E04D025C051F0100E5126100E2660A5
:1019500003D0000E526E04D026C052F0100E525E1C
:10196000EF0E266403D0FF0E536E04D026C053F052
:10197000100E5326100E276003D0000E6C6E04D09C
:1019800027C06CF0100E6C5EEF0E276403D0FF0EC4
:101990006D6E04D027C06DF0100E6D26100E2860FD
:1019A00003D0000E6E6E04D028C06EF0100E6E5E76
:1019B000EF0E286403D0FF0E6F6E04D028C06FF0C6
:1019C000100E6F26100E296003D0000E706E04D02A
:1019D00029C070F0100E705EEF0E296403D0FF0E68
:1019E000716E04D029C071F0100E7126100E2A609D
:1019F00003D0000E8A6E04D02AC08AF0100E8A5ED0
:101A0000EF0E2A6403D0FF0E8B6E04D02AC08BF039
:101A1000100E8B26100E2B6003D0000E8C6E04D09F
:101A20002BC08CF0100E8C5EEF0E2B6403D0FF0EDB
:101A30008D6E04D02BC08DF0100E8D26100E2C60F4
:101A400003D0000E8E6E04D02CC08EF0100E8E5E71
:101A5000EF0E2C6403D0FF0E8F6E04D02CC08FF0DD
:101A6000100E8F26100E2D6003D0000EA86E04D02D
:101A70002DC0A8F0100EA85EEF0E2D6403D0FF0E4F
:101A8000A96E04D02DC0A9F0100EA926100E2E604C
:101A900003D0000EAA6E04D02EC0AAF0100EAA5ECB
:101AA000EF0E2E6403D0FF0EAB6E04D02EC0ABF051
:101AB000100EAB26100E2F6003D0000EAC6E04D0BB
:101AC0002FC0ACF0100EAC5EEF0E2F6403D0FF0EF3
:101AD000AD6E04D02FC0ADF0100EAD26080E216EF5
:101AE000246E276E2A6E2D6E0A0E226E256E286ECB
:101AF0002B6E2E6E0F0E236E266E296E2C6E2F6EA1
:101B0000100E216003D0000E486E04D021C048F0B2
:101B1000100E485EEF0E216403D0FF0E496E04D014
:101B200021C049F0100E4926100E226003D0000E8D
:101B30004A6E04D022C04AF0100E4A5EEF0E2264B4
:101B400003D0FF0E4B6E04D022C04BF0100E4B267C
:101B5000100E236003D0000E4C6E04D023C04CF056
:101B6000100E4C5EEF0E236403D0FF0E4D6E04D0BA
:101B700023C04DF0100E4D26100E246003D0000E31
:101B8000666E04D024C066F0100E665EEF0E24640C
:101B900003D0FF0E676E04D024C067F0100E6726D6
:101BA000100E256003D0000E686E04D025C068F0CA
:101BB000100E685EEF0E256403D0FF0E696E04D030
:101BC00025C069F0100E6926100E266003D0000EA5
:101BD0006A6E04D026C06AF0100E6A5EEF0E2664AC
:101BE00003D0FF0E6B6E04D026C06BF0100E6B2678
:101BF000100E276003D0000E846E04D027C084F03E
:101C0000100E845EEF0E276403D0FF0E856E04D0A5
:101C100027C085F0100E8526100E286003D0000E18
:101C2000866E04D028C086F0100E865EEF0E286403
:101C300003D0FF0E876E04D028C087F0100E8726D1
:101C4000100E296003D0000E886E04D029C088F0E1
:101C5000100E885EEF0E296403D0FF0E896E04D04B
:101C600029C089F0100E8926100E2A6003D0000EBC
:101C7000A26E04D02AC0A2F0100EA25EEF0E2A645B
:101C800003D0FF0EA36E04D02AC0A3F0100EA3262B
:101C9000100E2B6003D0000EA46E04D02BC0A4F055
:101CA000100EA45EEF0E2B6403D0FF0EA56E04D0C1
:101CB0002BC0A5F0100EA526100E2C6003D0000E30
:101CC000A66E04D02CC0A6F0100EA65EEF0E2C64FB
:101CD00003D0FF0EA76E04D02CC0A7F0100EA726CD
:101CE000100E2D6003D0000EC06E04D02DC0C0F0C9
:101CF000100EC05EEF0E2D6403D0FF0EC16E04D037
:101D00002DC0C1F0100EC126100E2E6003D0000EA3
:101D1000C26E04D02EC0C2F0100EC25EEF0E2E6452
:101D200003D0FF0EC36E04D02EC0C3F0100EC32626
:101D3000100E2F6003D0000EC46E04D02FC0C4F06C
:101D4000100EC45EEF0E2F6403D0FF0EC56E04D0DC
:101D50002FC0C5F0100EC526EE0E216E246E276E24
:101D60002A6E2D6E270E226E256E286E2B6E2E6E1D
:101D7000320E236E266E296E2C6E2F6E100E216091
:101D800003D0000E366E04D021C036F0100E365E41
:101D9000EF0E216403D0FF0E376E04D021C037F060
:101DA000100E3726100E226003D0000E386E04D0BD
:101DB00022C038F0100E385EEF0E226403D0FF0E02
:101DC000396E04D022C039F0100E3926100E23606F
:101DD00003D0000E3A6E04D023C03AF0100E3A5EE3
:101DE000EF0E236403D0FF0E3B6E04D023C03BF004
:101DF000100E3B26100E246003D0000E546E04D04B
:101E000024C054F0100E545EEF0E246403D0FF0E75
:101E1000556E04D024C055F0100E5526100E2560C6
:101E200003D0000E566E04D025C056F0100E565E3C
:101E3000EF0E256403D0FF0E576E04D025C057F077
:101E4000100E5726100E266003D0000E586E04D0D8
:101E500026C058F0100E585EEF0E266403D0FF0E19
:101E6000596E04D026C059F0100E5926100E276066
:101E700003D0000E726E04D027C072F0100E725E96
:101E8000EF0E276403D0FF0E736E04D027C073F0EB
:101E9000100E7326100E286003D0000E746E04D04E
:101EA00028C074F0100E745EEF0E286403D0FF0E8D
:101EB000756E04D028C075F0100E7526100E2960BE
:101EC00003D0000E766E04D029C076F0100E765E38
:101ED000EF0E296403D0FF0E776E04D029C077F08F
:101EE000100E7726100E2A6003D0000E906E04D0DC
:101EF0002AC090F0100E905EEF0E2A6403D0FF0E01
:101F0000916E04D02AC091F0100E9126100E2B6015
:101F100003D0000E926E04D02BC092F0100E925E91
:101F2000EF0E2B6403D0FF0E936E04D02BC093F002
:101F3000100E9326100E2C6003D0000E946E04D069
:101F40002CC094F0100E945EEF0E2C6403D0FF0EA4
:101F5000956E04D02CC095F0100E9526100E2D60B5
:101F600003D0000EAE6E04D02DC0AEF0100EAE5EEB
:101F7000EF0E2D6403D0FF0EAF6E04D02DC0AFF076
:101F8000100EAF26100E2E6003D0000EB06E04D0DF
:101F90002EC0B0F0100EB05EEF0E2E6403D0FF0E18
:101FA000B16E04D02EC0B1F0100EB126100E2F600D
:101FB00003D0000EB26E04D02FC0B2F0100EB25E8D
:101FC000EF0E2F6403D0FF0EB36E04D02FC0B3F01A
:101FD000100EB326620E216E246E276E2A6E2D6EB1
:101FE000E00E226E256E286E2B6E2E6E3F0E236E37
:101FF000266E296E2C6E2F6E100E216003D0000EFF
:102000003C6E04D021C03CF0100E3C5EEF0E21640B
:1020100003D0FF0E3D6E04D021C03DF0100E3D26D2
:10202000100E226003D0000E3E6E04D022C03EF09F
:10203000100E3E5EEF0E226403D0FF0E3F6E04D002
:1020400022C03FF0100E3F26100E236003D0000E7A
:10205000406E04D023C040F0100E405EEF0E2364AB
:1020600003D0FF0E416E04D023C041F0100E412674
:10207000100E246003D0000E5A6E04D024C05AF013
:10208000100E5A5EEF0E246403D0FF0E5B6E04D078
:1020900024C05BF0100E5B26100E256003D0000EEE
:1020A0005C6E04D025C05CF0100E5C5EEF0E256403
:1020B00003D0FF0E5D6E04D025C05DF0100E5D26CE
:1020C000100E266003D0000E5E6E04D026C05EF0B7
:1020D000100E5E5EEF0E266403D0FF0E5F6E04D01E
:1020E00026C05FF0100E5F26100E276003D0000E92
:1020F000786E04D027C078F0100E785EEF0E27645B
:1021000003D0FF0E796E04D027C079F0100E792627
:10211000100E286003D0000E7A6E04D028C07AF02A
:10212000100E7A5EEF0E286403D0FF0E7B6E04D093
:1021300028C07BF0100E7B26100E296003D0000E05
:102140007C6E04D029C07CF0100E7C5EEF0E2964FA
:1021500003D0FF0E7D6E04D029C07DF0100E7D26C9
:10216000100E2A6003D0000E966E04D02AC096F09E
:10217000100E965EEF0E2A6403D0FF0E976E04D009
:102180002AC097F0100E9726100E2B6003D0000E79
:10219000986E04D02BC098F0100E985EEF0E2B6452
:1021A00003D0FF0E996E04D02BC099F0100E992623
:1021B000100E2C6003D0000E9A6E04D02CC09AF042
:1021C000100E9A5EEF0E2C6403D0FF0E9B6E04D0AF
:1021D0002CC09BF0100E9B26100E2D6003D0000E1D
:1021E000B46E04D02DC0B4F0100EB45EEF0E2D64AA
:1021F00003D0FF0EB56E04D02DC0B5F0100EB5267D
:10220000100E2E6003D0000EB66E04D02EC0B6F0B5
:10221000100EB65EEF0E2E6403D0FF0EB76E04D024
:102220002EC0B7F0100EB726100E2F6003D0000E90
:10223000B86E04D02FC0B8F0100EB85EEF0E2F6449
:1022400003D0FF0EB96E04D02FC0B9F0100EB9261E
:102250001E0E216E246E276E2A6E2D6E440E226E87
:10226000256E286E2B6E2E6ECC0E236E266E296E7A
:102270002C6E2F6E100E216003D0000E426E04D023
:1022800021C042F0100E425EEF0E216403D0FF0E1B
:10229000436E04D021C043F0100E4326100E22607E
:1022A00003D0000E446E04D022C044F0100E445EF1
:1022B000EF0E226403D0FF0E456E04D022C045F01D
:1022C000100E4526100E236003D0000E466E04D07B
:1022D00023C046F0100E465EEF0E236403D0FF0EBF
:1022E000476E04D023C047F0100E4726100E24601E
:1022F00003D0000E606E04D024C060F0100E605E4B
:10230000EF0E246403D0FF0E616E04D024C061F090
:10231000100E6126100E256003D0000E626E04D0F0
:1023200025C062F0100E625EEF0E256403D0FF0E32
:10233000636E04D025C063F0100E6326100E266075
:1023400003D0000E646E04D026C064F0100E645EEC
:10235000EF0E266403D0FF0E656E04D026C065F034
:10236000100E6526100E276003D0000E7E6E04D07E
:1023700027C07EF0100E7E5EEF0E276403D0FF0EA6
:102380007F6E04D027C07FF0100E7F26100E2860CD
:1023900003D0000E806E04D028C080F0100E805E46
:1023A000EF0E286403D0FF0E816E04D028C081F0A8
:1023B000100E8126100E296003D0000E826E04D00C
:1023C00029C082F0100E825EEF0E296403D0FF0E4A
:1023D000836E04D029C083F0100E8326100E2A606D
:1023E00003D0000E9C6E04D02AC09CF0100E9C5EA0
:1023F000EF0E2A6403D0FF0E9D6E04D02AC09DF01C
:10240000100E9D26100E2B6003D0000E9E6E04D081
:102410002BC09EF0100E9E5EEF0E2B6403D0FF0EBD
:102420009F6E04D02BC09FF0100E9F26100E2C60C4
:1024300003D0000EA06E04D02CC0A0F0100EA05E41
:10244000EF0E2C6403D0FF0EA16E04D02CC0A1F0BF
:10245000100EA126100E2D6003D0000EBA6E04D00F
:102460002DC0BAF0100EBA5EEF0E2D6403D0FF0E31
:10247000BB6E04D02DC0BBF0100EBB26100E2E601C
:1024800003D0000EBC6E04D02EC0BCF0100EBC5E9B
:10249000EF0E2E6403D0FF0EBD6E04D02EC0BDF033
:1024A000100EBD26100E2F6003D0000EBE6E04D09D
:1024B0002FC0BEF0100EBE5EEF0E2F6403D0FF0ED5
:1024C000BF6E04D02FC0BFF0100EBF261200E5EC87
:1024D00000F02DC083FF830ED56E600ED76EAA0E5E
:1024E000D66EF294D58EF2A4FDD7D59E2EC083FF72
:1024F000830ED56E600ED76EAA0ED66EF294D58E70
:10250000F2A4FDD7D59E2FC083FF830ED56E600E3B
:10251000D76EAA0ED66EF294D58EF2A4FDD7D59EB4
:10252000836AD5D751EC00F0C4CF83FF066A0680DA
:1025300006A2FED7F7D70550100A2AE00550180A60
:1025400027E005501C0A24E005501E0A21E0055032
:10255000010A21E00550030A1EE00550070A1BE0AE
:1025600005500F0A18E00550080A18E005500C0A3B
:1025700015E00550020A15E00550060A12E0055064
:10258000040A12E005500E0A0FE0DAEF12F0120012
:10259000010E8C6E1200100E8C6E1200020E8C6EEC
:1025A0001200080E8C6E1200040E8C6E1200200EAB
:1025B0008C6E1200400E8C6E120093EC05F07AECDB
:0825C00004F000D00000FED77A
:020000040030CA
:03000100281F3C79
:02000500BB85B9
:060008000FC00FE00F40E5
:00000001FF
