:0C00000010EC00F0DEEF12F03BEF05F01A
:0400180037EF05F0C9
:100020000F01806A896A000E386E000E926E0F0111
:10003000816B8A6B200E396F3F0E936F0F01826ABE
:100040008B6AF80E3A6EF80E946E0F01836A8C6A12
:10005000000E3B6E000E956E0F01846A8D6A3C6A3D
:10006000000E966E740ED36E3E0EC06E000EC16E04
:100070003D0EC26E9D8D9F8D61896289628BF19E5E
:100080008150F290F286F28E0001120051EC00F0E5
:1000900076EC00F09BEC00F0C0EC00F0E5EC00F03A
:1000A00012003D0EC26E830ED56EFD0ED76EDD0EB4
:1000B000D66EF294D58EF2A4FDD7D59E060E826E32
:1000C000C282C2B2FED7C4CF21F0050E826EC282B8
:1000D000C2B2FED7C4CF22F0030E826EC282C2B279
:1000E000FED7C4CF23F0000E826E1200410EC26E06
:1000F000830ED56EFD0ED76EDD0ED66EF294D58EC4
:10010000F2A4FDD7D59E060E826EC282C2B2FED781
:10011000C4CF24F0050E826EC282C2B2FED7C4CF15
:1001200025F0030E826EC282C2B2FED7C4CF26F083
:10013000000E826E1200450EC26E830ED56EFD0E4D
:10014000D76EDD0ED66EF294D58EF2A4FDD7D59E75
:10015000060E826EC282C2B2FED7C4CF27F0050E51
:10016000826EC282C2B2FED7C4CF28F0030E826E66
:10017000C282C2B2FED7C4CF29F0000E826E120036
:10018000490EC26E830ED56EFD0ED76EDD0ED66E95
:10019000F294D58EF2A4FDD7D59E060E826EC28251
:1001A000C2B2FED7C4CF2AF0050E826EC282C2B29E
:1001B000FED7C4CF2BF0030E826EC282C2B2FED72E
:1001C000C4CF2CF0000E826E12004D0EC26E830E54
:1001D000D56EFD0ED76EDD0ED66EF294D58EF2A4DE
:1001E000FDD7D59E060E826EC282C2B2FED7C4CFA4
:1001F0002DF0050E826EC282C2B2FED7C4CF2EF0A1
:10020000030E826EC282C2B2FED7C4CF2FF0000EA0
:10021000826E1200096A0980040E076201D004D0C0
:100220000946E80609A8F9D709C083FF1200056A44
:10023000016A46EC00F0040E076F30C1E8FF21614F
:1002400001D004D031C1E8FF216501D015D032C101
:10025000E8FF226101D004D033C1E8FF226501D05C
:100260000BD034C1E8FF236101D004D035C1E8FFD1
:10027000236501D001D080D007073CC1E8FF216190
:1002800001D004D03DC1E8FF216501D015D03EC1A9
:10029000E8FF226101D004D03FC1E8FF226501D010
:1002A0000BD040C1E8FF236101D004D041C1E8FF79
:1002B000236501D001D060D0070742C1E8FF21616A
:1002C00001D004D043C1E8FF216501D015D044C15D
:1002D000E8FF226101D004D045C1E8FF226501D0CA
:1002E0000BD046C1E8FF236101D004D047C1E8FF2D
:1002F000236501D001D040D0070736C1E8FF216156
:1003000001D004D037C1E8FF216501D015D038C134
:10031000E8FF226101D004D039C1E8FF226501D095
:100320000BD03AC1E8FF236101D004D03BC1E8FF04
:10033000236501D001D020D0070748C1E8FF216123
:1003400001D004D049C1E8FF216501D015D04AC1D0
:10035000E8FF226101D004D04BC1E8FF226501D043
:100360000BD04CC1E8FF236101D004D04DC1E8FFA0
:10037000236501D001D000D0000E076201D0012A10
:1003800008C0E8FF076201D00580040E076F4EC069
:10039000E8FF246101D004D04FC0E8FF246501D0FC
:1003A00015D050C0E8FF256101D004D051C0E8FF4E
:1003B000256501D00BD052C0E8FF266101D004D0E2
:1003C00053C0E8FF266501D001D080D007075AC08E
:1003D000E8FF246101D004D05BC0E8FF246501D0B0
:1003E00015D05CC0E8FF256101D004D05DC0E8FFF6
:1003F000256501D00BD05EC0E8FF266101D004D096
:100400005FC0E8FF266501D001D060D0070760C05B
:10041000E8FF246101D004D061C0E8FF246501D069
:1004200015D062C0E8FF256101D004D063C0E8FFA9
:10043000256501D00BD064C0E8FF266101D004D04F
:1004400065C0E8FF266501D001D040D0070754C041
:10045000E8FF246101D004D055C0E8FF246501D035
:1004600015D056C0E8FF256101D004D057C0E8FF81
:10047000256501D00BD058C0E8FF266101D004D01B
:1004800059C0E8FF266501D001D020D0070766C01B
:10049000E8FF246101D004D067C0E8FF246501D0E3
:1004A00015D068C0E8FF256101D004D069C0E8FF1D
:1004B000256501D00BD06AC0E8FF266101D004D0C9
:1004C0006BC0E8FF266501D001D000D0000E0762A6
:1004D00001D0012A08C0E8FF076201D00582040E9E
:1004E000076F6CC0E8FF276101D004D06DC0E8FF42
:1004F000276501D015D06EC0E8FF286101D004D077
:100500006FC0E8FF286501D00BD070C0E8FF2961FB
:1005100001D004D071C0E8FF296501D001D080D09E
:10052000070778C0E8FF276101D004D079C0E8FF51
:10053000276501D015D07AC0E8FF286101D004D02A
:100540007BC0E8FF286501D00BD07CC0E8FF2961A3
:1005500001D004D07DC0E8FF296501D001D060D072
:1005600007077EC0E8FF276101D004D07FC0E8FF05
:10057000276501D015D080C0E8FF286101D004D0E4
:1005800081C0E8FF286501D00BD082C0E8FF296157
:1005900001D004D083C0E8FF296501D001D040D04C
:1005A000070772C0E8FF276101D004D073C0E8FFDD
:1005B000276501D015D074C0E8FF286101D004D0B0
:1005C00075C0E8FF286501D00BD076C0E8FF29612F
:1005D00001D004D077C0E8FF296501D001D020D038
:1005E000070784C0E8FF276101D004D085C0E8FF79
:1005F000276501D015D086C0E8FF286101D004D05E
:1006000087C0E8FF286501D00BD088C0E8FF2961CA
:1006100001D004D089C0E8FF296501D001D000D005
:10062000000E076201D0012A08C0E8FF076201D06E
:100630000584040E076F8AC0E8FF2A6101D004D048
:100640008BC0E8FF2A6501D015D08CC0E8FF2B6174
:1006500001D004D08DC0E8FF2B6501D00BD08EC037
:10066000E8FF2C6101D004D08FC0E8FF2C6501D0D9
:1006700001D080D0070796C0E8FF2A6101D004D0DE
:1006800097C0E8FF2A6501D015D098C0E8FF2B611C
:1006900001D004D099C0E8FF2B6501D00BD09AC0DF
:1006A000E8FF2C6101D004D09BC0E8FF2C6501D08D
:1006B00001D060D007079CC0E8FF2A6101D004D0B8
:1006C0009DC0E8FF2A6501D015D09EC0E8FF2B61D0
:1006D00001D004D09FC0E8FF2B6501D00BD0A0C093
:1006E000E8FF2C6101D004D0A1C0E8FF2C6501D047
:1006F00001D040D0070790C0E8FF2A6101D004D0A4
:1007000091C0E8FF2A6501D015D092C0E8FF2B61A7
:1007100001D004D093C0E8FF2B6501D00BD094C06A
:10072000E8FF2C6101D004D095C0E8FF2C6501D012
:1007300001D020D00707A2C0E8FF2A6101D004D071
:10074000A3C0E8FF2A6501D015D0A4C0E8FF2B6143
:1007500001D004D0A5C0E8FF2B6501D00BD0A6C006
:10076000E8FF2C6101D004D0A7C0E8FF2C6501D0C0
:1007700001D000D0000E076201D0012A08C0E8FFB6
:10078000076201D00586040E076FA8C0E8FF2D613F
:1007900001D004D0A9C0E8FF2D6501D015D0AAC0B2
:1007A000E8FF2E6101D004D0ABC0E8FF2E6501D078
:1007B0000BD0ACC0E8FF2F6101D004D0ADC0E8FF82
:1007C0002F6501D001D080D00707B4C0E8FF2D61AC
:1007D00001D004D0B5C0E8FF2D6501D015D0B6C05A
:1007E000E8FF2E6101D004D0B7C0E8FF2E6501D02C
:1007F0000BD0B8C0E8FF2F6101D004D0B9C0E8FF2A
:100800002F6501D001D060D00707BAC0E8FF2D6185
:1008100001D004D0BBC0E8FF2D6501D015D0BCC00D
:10082000E8FF2E6101D004D0BDC0E8FF2E6501D0E5
:100830000BD0BEC0E8FF2F6101D004D0BFC0E8FFDD
:100840002F6501D001D040D00707AEC0E8FF2D6171
:1008500001D004D0AFC0E8FF2D6501D015D0B0C0E5
:10086000E8FF2E6101D004D0B1C0E8FF2E6501D0B1
:100870000BD0B2C0E8FF2F6101D004D0B3C0E8FFB5
:100880002F6501D001D020D00707C0C0E8FF2D613F
:1008900001D004D0C1C0E8FF2D6501D015D0C2C081
:1008A000E8FF2E6101D004D0C3C0E8FF2E6501D05F
:1008B0000BD0C4C0E8FF2F6101D004D0C5C0E8FF51
:1008C0002F6501D001D000D0000E076201D0012AAF
:1008D00008C0E8FF076201D00588050E016203D059
:1008E0001F0E806ED8EF12F0806A05C080FF9CEF6B
:1008F00012F0120081B002D0000E0DD081B202D0F1
:10090000010E09D081B402D0020E05D081B602D00A
:10091000030E01D0020E086E17EC01F0EBD71200A7
:1009200076EC00F0040E076F4EC0E8FF246101D0A2
:1009300004D04FC0E8FF246501D015D050C0E8FFB7
:10094000256101D004D051C0E8FF256501D00BD04E
:1009500052C0E8FF266101D004D053C0E8FF2665ED
:1009600001D001D081D007075AC0E8FF246101D02F
:1009700004D05BC0E8FF246501D015D05CC0E8FF5F
:10098000256101D004D05DC0E8FF256501D00BD002
:100990005EC0E8FF266101D004D05FC0E8FF266595
:1009A00001D001D061D0070760C0E8FF246101D009
:1009B00004D061C0E8FF246501D015D062C0E8FF13
:1009C000256101D004D063C0E8FF256501D00BD0BC
:1009D00064C0E8FF266101D004D065C0E8FF266549
:1009E00001D001D041D0070754C0E8FF246101D0F5
:1009F00004D055C0E8FF246501D015D056C0E8FFEB
:100A0000256101D004D057C0E8FF256501D00BD087
:100A100058C0E8FF266101D004D059C0E8FF266520
:100A200001D001D021D0070766C0E8FF246101D0C2
:100A300004D067C0E8FF246501D015D068C0E8FF86
:100A4000256101D004D069C0E8FF256501D00BD035
:100A50006AC0E8FF266101D004D06BC0E8FF2665BC
:100A600001D001D001D05CD70AEC01F059D70000C9
:100A7000000000001000F2A092EF05F081A850D015
:100A8000066601D002D006824BD00B6605D004D09A
:100A900009C083FF0B6A44D0830ED56E600ED76EFB
:100AA000AA0ED66EF294D58EF2A4FDD7D59E830EF3
:100AB000D56E600ED76EAA0ED66EF294D58EF2A4C5
:100AC000FDD7D59E830ED56E600ED76EAA0ED66E5C
:100AD000F294D58EF2A4FDD7D59E830ED56E600E0E
:100AE000D76EAA0ED66EF294D58EF2A4FDD7D59EFF
:100AF000830ED56E600ED76EAA0ED66EF294D58E8A
:100B0000F2A4FDD7D59E830ED56E600ED76EAA0EC9
:100B1000D66EF294D58EF2A4FDD7D59E0B2A00D0C6
:100B20008150F290100096EC05F01200836A066A7C
:100B3000068006C0E8FF838006A2FED7069246EC38
:100B400000F0100E216103D0000E306F04D021C0E0
:100B500030F1100E305FEF0E216503D0FF0E316FC4
:100B600004D021C031F1100E3127100E226103D0C4
:100B7000000E326F04D022C032F1100E325FEF0E41
:100B8000226503D0FF0E336F04D022C033F1100E64
:100B90003327100E236103D0000E346F04D023C01E
:100BA00034F1100E345FEF0E236503D0FF0E356F66
:100BB00004D023C035F1100E3527100E246103D068
:100BC000000E4E6F04D024C04EF0100E4E5FEF0E9C
:100BD000246503D0FF0E4F6F04D024C04FF0100ED9
:100BE0004F27100E256103D0000E506F04D025C092
:100BF00050F0100E505FEF0E256503D0FF0E516FC1
:100C000004D025C051F0100E5127100E266103D0DC
:100C1000000E526F04D026C052F0100E525FEF0E3D
:100C2000266503D0FF0E536F04D026C053F0100E7C
:100C30005327100E276103D0000E6C6F04D027C01D
:100C40006CF0100E6C5FEF0E276503D0FF0E6D6F1A
:100C500004D027C06DF0100E6D27100E286103D050
:100C6000000E6E6F04D028C06EF0100E6E5FEF0E97
:100C7000286503D0FF0E6F6F04D028C06FF0100EF0
:100C80006F27100E296103D0000E706F04D029C0A9
:100C900070F0100E705FEF0E296503D0FF0E716FBC
:100CA00004D029C071F0100E7127100E2A6103D0F4
:100CB000000E8A6F04D02AC08AF0100E8A5FEF0EF1
:100CC0002A6503D0FF0E8B6F04D02AC08BF0100E64
:100CD0008B27100E2B6103D0000E8C6F04D02BC01D
:100CE0008CF0100E8C5FEF0E2B6503D0FF0E8D6F16
:100CF00004D02BC08DF0100E8D27100E2C6103D068
:100D0000000E8E6F04D02CC08EF0100E8E5FEF0E92
:100D10002C6503D0FF0E8F6F04D02CC08FF0100E07
:100D20008F27100E2D6103D0000EA86F04D02DC0A8
:100D3000A8F0100EA85FEF0E2D6503D0FF0EA96F6F
:100D400004D02DC0A9F0100EA927100E2E6103D0DB
:100D5000000EAA6F04D02EC0AAF0100EAA5FEF0EEC
:100D60002E6503D0FF0EAB6F04D02EC0ABF0100E7B
:100D7000AB27100E2F6103D0000EAC6F04D02FC034
:100D8000ACF0100EAC5FEF0E2F6503D0FF0EAD6F11
:100D900004D02FC0ADF0100EAD27030E016E010E72
:100DA000836E830ED56E600ED76EAA0ED66EF29449
:100DB000D58EF2A4FDD7D59E836A830ED56E600EC4
:100DC000D76EAA0ED66EF294D58EF2A4FDD7D59E1C
:100DD000012EE5D706C0E8FF838206A2FED7069261
:100DE00046EC00F0100E216103D0000E3C6F04D0E1
:100DF00021C03CF1100E3C5FEF0E216503D0FF0EC9
:100E00003D6F04D021C03DF1100E3D27100E226130
:100E100003D0000E3E6F04D022C03EF1100E3E5FA4
:100E2000EF0E226503D0FF0E3F6F04D022C03FF1CA
:100E3000100E3F27100E236103D0000E406F04D028
:100E400023C040F1100E405FEF0E236503D0FF0E6C
:100E5000416F04D023C041F1100E4127100E2461D0
:100E600003D0000E5A6F04D024C05AF0100E5A5FFF
:100E7000EF0E246503D0FF0E5B6F04D024C05BF03F
:100E8000100E5B27100E256103D0000E5C6F04D09E
:100E900025C05CF0100E5C5FEF0E256503D0FF0EE1
:100EA0005D6F04D025C05DF0100E5D27100E266129
:100EB00003D0000E5E6F04D026C05EF0100E5E5FA1
:100EC000EF0E266503D0FF0E5F6F04D026C05FF0E3
:100ED000100E5F27100E276103D0000E786F04D02C
:100EE00027C078F0100E785FEF0E276503D0FF0E55
:100EF000796F04D027C079F0100E7927100E286181
:100F000003D0000E7A6F04D028C07AF0100E7A5FFA
:100F1000EF0E286503D0FF0E7B6F04D028C07BF056
:100F2000100E7B27100E296103D0000E7C6F04D0B9
:100F300029C07CF0100E7C5FEF0E296503D0FF0EF8
:100F40007D6F04D029C07DF0100E7D27100E2A6120
:100F500003D0000E966F04D02AC096F0100E965F54
:100F6000EF0E2A6503D0FF0E976F04D02AC097F0CA
:100F7000100E9727100E2B6103D0000E986F04D02F
:100F80002BC098F0100E985FEF0E2B6503D0FF0E6C
:100F9000996F04D02BC099F0100E9927100E2C6178
:100FA00003D0000E9A6F04D02CC09AF0100E9A5FF6
:100FB000EF0E2C6503D0FF0E9B6F04D02CC09BF06E
:100FC000100E9B27100E2D6103D0000EB46F04D0BD
:100FD0002DC0B4F0100EB45FEF0E2D6503D0FF0EE0
:100FE000B56F04D02DC0B5F0100EB527100E2E61D0
:100FF00003D0000EB66F04D02EC0B6F0100EB65F50
:10100000EF0E2E6503D0FF0EB76F04D02EC0B7F0E1
:10101000100EB727100E2F6103D0000EB86F04D04A
:101020002FC0B8F0100EB85FEF0E2F6503D0FF0E83
:10103000B96F04D02FC0B9F0100EB927030E016E9E
:10104000020E836E830ED56E600ED76EAA0ED66E1C
:10105000F294D58EF2A4FDD7D59E836A830ED56E09
:10106000600ED76EAA0ED66EF294D58EF2A4FDD77E
:10107000D59E012EE5D706C0E8FF838406A2FED7E1
:10108000069246EC00F0100E216103D0000E426F74
:1010900004D021C042F1100E425FEF0E216503D053
:1010A000FF0E436F04D021C043F1100E4327100EF2
:1010B000226103D0000E446F04D022C044F1100E10
:1010C000445FEF0E226503D0FF0E456F04D022C0AF
:1010D00045F1100E4527100E236103D0000E466F18
:1010E00004D023C046F1100E465FEF0E236503D0F7
:1010F000FF0E476F04D023C047F1100E4727100E94
:10110000246103D0000E606F04D024C060F0100E84
:10111000605FEF0E246503D0FF0E616F04D024C022
:1011200061F0100E6127100E256103D0000E626F72
:1011300004D025C062F0100E625FEF0E256503D06B
:10114000FF0E636F04D025C063F0100E6327100EEE
:10115000266103D0000E646F04D026C064F0100E28
:10116000645FEF0E266503D0FF0E656F04D026C0C6
:1011700065F0100E6527100E276103D0000E7E6FFC
:1011800004D027C07EF0100E7E5FEF0E276503D0DF
:10119000FF0E7F6F04D027C07FF0100E7F27100E48
:1011A000286103D0000E806F04D028C080F0100E9C
:1011B000805FEF0E286503D0FF0E816F04D028C03A
:1011C00081F0100E8127100E296103D0000E826F6E
:1011D00004D029C082F0100E825FEF0E296503D083
:1011E000FF0E836F04D029C083F0100E8327100EEA
:1011F0002A6103D0000E9C6F04D02AC09CF0100E10
:101200009C5FEF0E2A6503D0FF0E9D6F04D02AC0AD
:101210009DF0100E9D27100E2B6103D0000E9E6FC7
:1012200004D02BC09EF0100E9E5FEF0E2B6503D0F6
:10123000FF0E9F6F04D02BC09FF0100E9F27100E43
:101240002C6103D0000EA06F04D02CC0A0F0100EB3
:10125000A05FEF0E2C6503D0FF0EA16F04D02CC051
:10126000A1F0100EA127100E2D6103D0000EBA6F51
:1012700004D02DC0BAF0100EBA5FEF0E2D6503D06A
:10128000FF0EBB6F04D02DC0BBF0100EBB27100E9D
:101290002E6103D0000EBC6F04D02EC0BCF0100E27
:1012A000BC5FEF0E2E6503D0FF0EBD6F04D02EC0C5
:1012B000BDF0100EBD27100E2F6103D0000EBE6FC3
:1012C00004D02FC0BEF0100EBE5FEF0E2F6503D00E
:1012D000FF0EBF6F04D02FC0BFF0100EBF27030E4C
:1012E000016E040E836E830ED56E600ED76EAA0E4D
:1012F000D66EF294D58EF2A4FDD7D59E836A830E66
:10130000D56E600ED76EAA0ED66EF294D58EF2A46C
:10131000FDD7D59E012EE5D706C0E8FF838606A23D
:10132000FED7069246EC00F0100E216103D0000EAD
:10133000486F04D021C048F1100E485FEF0E2165C0
:1013400003D0FF0E496F04D021C049F1100E492788
:10135000100E226103D0000E4A6F04D022C04AF161
:10136000100E4A5FEF0E226503D0FF0E4B6F04D0C4
:1013700022C04BF1100E4B27100E236103D0000E3C
:101380004C6F04D023C04CF1100E4C5FEF0E236560
:1013900003D0FF0E4D6F04D023C04DF1100E4D272A
:1013A000100E246103D0000E666F04D024C066F0D6
:1013B000100E665FEF0E246503D0FF0E676F04D03A
:1013C00024C067F0100E6727100E256103D0000EB1
:1013D000686F04D025C068F0100E685FEF0E2565B9
:1013E00003D0FF0E696F04D025C069F0100E692785
:1013F000100E266103D0000E6A6F04D026C06AF07A
:10140000100E6A5FEF0E266503D0FF0E6B6F04D0DF
:1014100026C06BF0100E6B27100E276103D0000E54
:10142000846F04D027C084F0100E845FEF0E276510
:1014300003D0FF0E856F04D027C085F0100E8527DE
:10144000100E286103D0000E866F04D028C086F0ED
:10145000100E865FEF0E286503D0FF0E876F04D055
:1014600028C087F0100E8727100E296103D0000EC8
:10147000886F04D029C088F0100E885FEF0E2965B0
:1014800003D0FF0E896F04D029C089F0100E892780
:10149000100E2A6103D0000EA26F04D02AC0A2F061
:1014A000100EA25FEF0E2A6503D0FF0EA36F04D0CB
:1014B0002AC0A3F0100EA327100E2B6103D0000E3C
:1014C000A46F04D02BC0A4F0100EA45FEF0E2B6508
:1014D00003D0FF0EA56F04D02BC0A5F0100EA527DA
:1014E000100E2C6103D0000EA66F04D02CC0A6F005
:1014F000100EA65FEF0E2C6503D0FF0EA76F04D071
:101500002CC0A7F0100EA727100E2D6103D0000EDF
:10151000C06F04D02DC0C0F0100EC05FEF0E2D655F
:1015200003D0FF0EC16F04D02DC0C1F0100EC12733
:10153000100E2E6103D0000EC26F04D02EC0C2F078
:10154000100EC25FEF0E2E6503D0FF0EC36F04D0E6
:101550002EC0C3F0100EC327100E2F6103D0000E53
:10156000C46F04D02FC0C4F0100EC45FEF0E2F65FF
:1015700003D0FF0EC56F04D02FC0C5F0100EC527D5
:10158000030E016E080E836E830ED56E600ED76E4D
:10159000AA0ED66EF294D58EF2A4FDD7D59E836A9C
:1015A000830ED56E600ED76EAA0ED66EF294D58ECF
:1015B000F2A4FDD7D59E012EE5D706C0E8FF8388AB
:1015C00006A2FED7069246EC00F0100E216103D071
:1015D000000E366F04D021C036F1100E365FEF0ECC
:1015E000216503D0FF0E376F04D021C037F1100EF4
:1015F0003727100E226103D0000E386F04D022C0AE
:1016000038F1100E385FEF0E226503D0FF0E396FF0
:1016100004D022C039F1100E3927100E236103D0F7
:10162000000E3A6F04D023C03AF1100E3A5FEF0E6D
:10163000236503D0FF0E3B6F04D023C03BF1100E97
:101640003B27100E246103D0000E546F04D024C039
:1016500054F0100E545FEF0E246503D0FF0E556F4B
:1016600004D024C055F0100E5527100E256103D06C
:10167000000E566F04D025C056F0100E565FEF0EC8
:10168000256503D0FF0E576F04D025C057F0100E0C
:101690005727100E266103D0000E586F04D026C0C5
:1016A00058F0100E585FEF0E266503D0FF0E596FED
:1016B00004D026C059F0100E5927100E276103D010
:1016C000000E726F04D027C072F0100E725FEF0E22
:1016D000276503D0FF0E736F04D027C073F0100E80
:1016E0007327100E286103D0000E746F04D028C039
:1016F00074F0100E745FEF0E286503D0FF0E756F47
:1017000004D028C075F0100E7527100E296103D083
:10171000000E766F04D029C076F0100E765FEF0EC3
:10172000296503D0FF0E776F04D029C077F0100E23
:101730007727100E2A6103D0000E906F04D02AC0C4
:1017400090F0100E905FEF0E2A6503D0FF0E916FA0
:1017500004D02AC091F0100E9127100E2B6103D0F7
:10176000000E926F04D02BC092F0100E925FEF0E1D
:101770002B6503D0FF0E936F04D02BC093F0100E97
:101780009327100E2C6103D0000E946F04D02CC050
:1017900094F0100E945FEF0E2C6503D0FF0E956F42
:1017A00004D02CC095F0100E9527100E2D6103D09B
:1017B000000EAE6F04D02DC0AEF0100EAE5FEF0E77
:1017C0002D6503D0FF0EAF6F04D02DC0AFF0100E0B
:1017D000AF27100E2E6103D0000EB06F04D02EC0C4
:1017E000B0F0100EB05FEF0E2E6503D0FF0EB16F9C
:1017F00004D02EC0B1F0100EB127100E2F6103D00F
:10180000000EB26F04D02FC0B2F0100EB25FEF0E18
:101810002F6503D0FF0EB36F04D02FC0B3F0100EAE
:10182000B327030E016E100E836E830ED56E600E0D
:10183000D76EAA0ED66EF294D58EF2A4FDD7D59EA1
:10184000836A830ED56E600ED76EAA0ED66EF294A2
:10185000D58EF2A4FDD7D59E012EE5D7836A066A00
:101860001200FA0E216E246E276E2A6E2D6EFA0E6D
:10187000226E256E286E2B6E2E6EFA0E236E266E4D
:10188000296E2C6E2F6E100E216103D0000E306F6A
:1018900004D021C030F1100E305FEF0E216503D06F
:1018A000FF0E316F04D021C031F1100E3127100E20
:1018B000226103D0000E326F04D022C032F1100E2C
:1018C000325FEF0E226503D0FF0E336F04D022C0CB
:1018D00033F1100E3327100E236103D0000E346F46
:1018E00004D023C034F1100E345FEF0E236503D013
:1018F000FF0E356F04D023C035F1100E3527100EC2
:10190000246103D0000E4E6F04D024C04EF0100EA0
:101910004E5FEF0E246503D0FF0E4F6F04D024C03E
:101920004FF0100E4F27100E256103D0000E506FA0
:1019300004D025C050F0100E505FEF0E256503D087
:10194000FF0E516F04D025C051F0100E5127100E1C
:10195000266103D0000E526F04D026C052F0100E44
:10196000525FEF0E266503D0FF0E536F04D026C0E2
:1019700053F0100E5327100E276103D0000E6C6F2A
:1019800004D027C06CF0100E6C5FEF0E276503D0FB
:10199000FF0E6D6F04D027C06DF0100E6D27100E76
:1019A000286103D0000E6E6F04D028C06EF0100EB8
:1019B0006E5FEF0E286503D0FF0E6F6F04D028C056
:1019C0006FF0100E6F27100E296103D0000E706F9C
:1019D00004D029C070F0100E705FEF0E296503D09F
:1019E000FF0E716F04D029C071F0100E7127100E18
:1019F0002A6103D0000E8A6F04D02AC08AF0100E2C
:101A00008A5FEF0E2A6503D0FF0E8B6F04D02AC0C9
:101A10008BF0100E8B27100E2B6103D0000E8C6FF5
:101A200004D02BC08CF0100E8C5FEF0E2B6503D012
:101A3000FF0E8D6F04D02BC08DF0100E8D27100E71
:101A40002C6103D0000E8E6F04D02CC08EF0100ECF
:101A50008E5FEF0E2C6503D0FF0E8F6F04D02CC06D
:101A60008FF0100E8F27100E2D6103D0000EA86F7F
:101A700004D02DC0A8F0100EA85FEF0E2D6503D086
:101A8000FF0EA96F04D02DC0A9F0100EA927100ECB
:101A90002E6103D0000EAA6F04D02EC0AAF0100E43
:101AA000AA5FEF0E2E6503D0FF0EAB6F04D02EC0E1
:101AB000ABF0100EAB27100E2F6103D0000EAC6FF1
:101AC00004D02FC0ACF0100EAC5FEF0E2F6503D02A
:101AD000FF0EAD6F04D02FC0ADF0100EAD27080E75
:101AE000216E246E276E2A6E2D6E0A0E226E256ED2
:101AF000286E2B6E2E6E0F0E236E266E296E2C6EA8
:101B00002F6E100E216103D0000E486F04D021C04B
:101B100048F1100E485FEF0E216503D0FF0E496FAC
:101B200004D021C049F1100E4927100E226103D0C4
:101B3000000E4A6F04D022C04AF1100E4A5FEF0E29
:101B4000226503D0FF0E4B6F04D022C04BF1100E64
:101B50004B27100E236103D0000E4C6F04D023C01E
:101B60004CF1100E4C5FEF0E236503D0FF0E4D6F4E
:101B700004D023C04DF1100E4D27100E246103D068
:101B8000000E666F04D024C066F0100E665FEF0E84
:101B9000246503D0FF0E676F04D024C067F0100ED9
:101BA0006727100E256103D0000E686F04D025C092
:101BB00068F0100E685FEF0E256503D0FF0E696FA9
:101BC00004D025C069F0100E6927100E266103D0DD
:101BD000000E6A6F04D026C06AF0100E6A5FEF0E26
:101BE000266503D0FF0E6B6F04D026C06BF0100E7D
:101BF0006B27100E276103D0000E846F04D027C01E
:101C000084F0100E845FEF0E276503D0FF0E856F02
:101C100004D027C085F0100E8527100E286103D050
:101C2000000E866F04D028C086F0100E865FEF0E7F
:101C3000286503D0FF0E876F04D028C087F0100EF0
:101C40008727100E296103D0000E886F04D029C0A9
:101C500088F0100E885FEF0E296503D0FF0E896FA4
:101C600004D029C089F0100E8927100E2A6103D0F4
:101C7000000EA26F04D02AC0A2F0100EA25FEF0ED9
:101C80002A6503D0FF0EA36F04D02AC0A3F0100E64
:101C9000A327100E2B6103D0000EA46F04D02BC01D
:101CA000A4F0100EA45FEF0E2B6503D0FF0EA56FFE
:101CB00004D02BC0A5F0100EA527100E2C6103D068
:101CC000000EA66F04D02CC0A6F0100EA65FEF0E7B
:101CD0002C6503D0FF0EA76F04D02CC0A7F0100E08
:101CE000A727100E2D6103D0000EC06F04D02DC0A9
:101CF000C0F0100EC05FEF0E2D6503D0FF0EC16F58
:101D000004D02DC0C1F0100EC127100E2E6103D0DB
:101D1000000EC26F04D02EC0C2F0100EC25FEF0ED4
:101D20002E6503D0FF0EC36F04D02EC0C3F0100E7B
:101D3000C327100E2F6103D0000EC46F04D02FC034
:101D4000C4F0100EC45FEF0E2F6503D0FF0EC56FF9
:101D500004D02FC0C5F0100EC527EE0E216E246EE4
:101D6000276E2A6E2D6E270E226E256E286E2B6E24
:101D70002E6E320E236E266E296E2C6E2F6E100E76
:101D8000216103D0000E366F04D021C036F1100E51
:101D9000365FEF0E216503D0FF0E376F04D021C0F0
:101DA00037F1100E3727100E226103D0000E386F66
:101DB00004D022C038F1100E385FEF0E226503D038
:101DC000FF0E396F04D022C039F1100E3927100EE2
:101DD000236103D0000E3A6F04D023C03AF1100EF5
:101DE0003A5FEF0E236503D0FF0E3B6F04D023C094
:101DF0003BF1100E3B27100E246103D0000E546FF0
:101E000004D024C054F0100E545FEF0E246503D0AC
:101E1000FF0E556F04D024C055F0100E5527100E3C
:101E2000256103D0000E566F04D025C056F0100E69
:101E3000565FEF0E256503D0FF0E576F04D025C007
:101E400057F0100E5727100E266103D0000E586F62
:101E500004D026C058F0100E585FEF0E266503D050
:101E6000FF0E596F04D026C059F0100E5927100EDE
:101E7000276103D0000E726F04D027C072F0100EDD
:101E8000725FEF0E276503D0FF0E736F04D027C07B
:101E900073F0100E7327100E286103D0000E746FBC
:101EA00004D028C074F0100E745FEF0E286503D0C4
:101EB000FF0E756F04D028C075F0100E7527100E38
:101EC000296103D0000E766F04D029C076F0100E81
:101ED000765FEF0E296503D0FF0E776F04D029C01F
:101EE00077F0100E7727100E2A6103D0000E906F46
:101EF00004D02AC090F0100E905FEF0E2A6503D038
:101F0000FF0E916F04D02AC091F0100E9127100E91
:101F10002B6103D0000E926F04D02BC092F0100EF4
:101F2000925FEF0E2B6503D0FF0E936F04D02BC092
:101F300093F0100E9327100E2C6103D0000E946FB7
:101F400004D02CC094F0100E945FEF0E2C6503D0DB
:101F5000FF0E956F04D02CC095F0100E9527100E33
:101F60002D6103D0000EAE6F04D02DC0AEF0100E68
:101F7000AE5FEF0E2D6503D0FF0EAF6F04D02DC006
:101F8000AFF0100EAF27100E2E6103D0000EB06F11
:101F900004D02EC0B0F0100EB05FEF0E2E6503D04F
:101FA000FF0EB16F04D02EC0B1F0100EB127100E8D
:101FB0002F6103D0000EB26F04D02FC0B2F0100E0C
:101FC000B25FEF0E2F6503D0FF0EB36F04D02FC0AA
:101FD000B3F0100EB327620E216E246E276E2A6EA8
:101FE0002D6EE00E226E256E286E2B6E2E6E3F0E2D
:101FF000236E266E296E2C6E2F6E100E216103D07B
:10200000000E3C6F04D021C03CF1100E3C5FEF0E7F
:10201000216503D0FF0E3D6F04D021C03DF1100EAD
:102020003D27100E226103D0000E3E6F04D022C067
:102030003EF1100E3E5FEF0E226503D0FF0E3F6FA4
:1020400004D022C03FF1100E3F27100E236103D0B1
:10205000000E406F04D023C040F1100E405FEF0E21
:10206000236503D0FF0E416F04D023C041F1100E51
:102070004127100E246103D0000E5A6F04D024C0F3
:102080005AF0100E5A5FEF0E246503D0FF0E5B6FFF
:1020900004D024C05BF0100E5B27100E256103D026
:1020A000000E5C6F04D025C05CF0100E5C5FEF0E7C
:1020B000256503D0FF0E5D6F04D025C05DF0100EC6
:1020C0005D27100E266103D0000E5E6F04D026C07F
:1020D0005EF0100E5E5FEF0E266503D0FF0E5F6FA1
:1020E00004D026C05FF0100E5F27100E276103D0CA
:1020F000000E786F04D027C078F0100E785FEF0ED6
:10210000276503D0FF0E796F04D027C079F0100E39
:102110007927100E286103D0000E7A6F04D028C0F2
:102120007AF0100E7A5FEF0E286503D0FF0E7B6FFA
:1021300004D028C07BF0100E7B27100E296103D03D
:10214000000E7C6F04D029C07CF0100E7C5FEF0E77
:10215000296503D0FF0E7D6F04D029C07DF0100EDD
:102160007D27100E2A6103D0000E966F04D02AC07E
:1021700096F0100E965FEF0E2A6503D0FF0E976F54
:1021800004D02AC097F0100E9727100E2B6103D0B1
:10219000000E986F04D02BC098F0100E985FEF0ED1
:1021A0002B6503D0FF0E996F04D02BC099F0100E51
:1021B0009927100E2C6103D0000E9A6F04D02CC00A
:1021C0009AF0100E9A5FEF0E2C6503D0FF0E9B6FF6
:1021D00004D02CC09BF0100E9B27100E2D6103D055
:1021E000000EB46F04D02DC0B4F0100EB45FEF0E2B
:1021F0002D6503D0FF0EB56F04D02DC0B5F0100EC5
:10220000B527100E2E6103D0000EB66F04D02EC07D
:10221000B6F0100EB65FEF0E2E6503D0FF0EB76F4F
:1022200004D02EC0B7F0100EB727100E2F6103D0C8
:10223000000EB86F04D02FC0B8F0100EB85FEF0ECC
:102240002F6503D0FF0EB96F04D02FC0B9F0100E68
:10225000B9271E0E216E246E276E2A6E2D6E440E37
:10226000226E256E286E2B6E2E6ECC0E236E266E81
:10227000296E2C6E2F6E100E216103D0000E426F5E
:1022800004D021C042F1100E425FEF0E216503D051
:10229000FF0E436F04D021C043F1100E4327100EF0
:1022A000226103D0000E446F04D022C044F1100E0E
:1022B000445FEF0E226503D0FF0E456F04D022C0AD
:1022C00045F1100E4527100E236103D0000E466F16
:1022D00004D023C046F1100E465FEF0E236503D0F5
:1022E000FF0E476F04D023C047F1100E4727100E92
:1022F000246103D0000E606F04D024C060F0100E83
:10230000605FEF0E246503D0FF0E616F04D024C020
:1023100061F0100E6127100E256103D0000E626F70
:1023200004D025C062F0100E625FEF0E256503D069
:10233000FF0E636F04D025C063F0100E6327100EEC
:10234000266103D0000E646F04D026C064F0100E26
:10235000645FEF0E266503D0FF0E656F04D026C0C4
:1023600065F0100E6527100E276103D0000E7E6FFA
:1023700004D027C07EF0100E7E5FEF0E276503D0DD
:10238000FF0E7F6F04D027C07FF0100E7F27100E46
:10239000286103D0000E806F04D028C080F0100E9A
:1023A000805FEF0E286503D0FF0E816F04D028C038
:1023B00081F0100E8127100E296103D0000E826F6C
:1023C00004D029C082F0100E825FEF0E296503D081
:1023D000FF0E836F04D029C083F0100E8327100EE8
:1023E0002A6103D0000E9C6F04D02AC09CF0100E0E
:1023F0009C5FEF0E2A6503D0FF0E9D6F04D02AC0AC
:102400009DF0100E9D27100E2B6103D0000E9E6FC5
:1024100004D02BC09EF0100E9E5FEF0E2B6503D0F4
:10242000FF0E9F6F04D02BC09FF0100E9F27100E41
:102430002C6103D0000EA06F04D02CC0A0F0100EB1
:10244000A05FEF0E2C6503D0FF0EA16F04D02CC04F
:10245000A1F0100EA127100E2D6103D0000EBA6F4F
:1024600004D02DC0BAF0100EBA5FEF0E2D6503D068
:10247000FF0EBB6F04D02DC0BBF0100EBB27100E9B
:102480002E6103D0000EBC6F04D02EC0BCF0100E25
:10249000BC5FEF0E2E6503D0FF0EBD6F04D02EC0C3
:1024A000BDF0100EBD27100E2F6103D0000EBE6FC1
:1024B00004D02FC0BEF0100EBE5FEF0E2F6503D00C
:1024C000FF0EBF6F04D02FC0BFF0100EBF27120049
:1024D000E5EC00F02DC083FF830ED56E600ED76E45
:1024E000AA0ED66EF294D58EF2A4FDD7D59E2EC03C
:1024F00083FF830ED56E600ED76EAA0ED66EF29451
:10250000D58EF2A4FDD7D59E2FC083FF830ED56E46
:10251000600ED76EAA0ED66EF294D58EF2A4FDD7B9
:10252000D59E836AD5D751EC00F0C4CF83FF066AED
:10253000068006A2FED7F7D70552100A2AE00552F8
:10254000180A27E005521C0A24E005521E0A21E061
:102550000552010A21E00552030A1EE00552070A4E
:102560001BE005520F0A18E00552080A18E0055250
:102570000C0A15E00552020A15E00552060A12E09F
:102580000552040A12E005520E0A0FE0DBEF12F0CA
:102590001200010E8C6E1200100E8C6E1200020ED4
:1025A0008C6E1200080E8C6E1200040E8C6E1200DF
:1025B000200E8C6E1200400E8C6E120096EC05F010
:0A25C00090EC04F000D00000FED7FC
:020000040030CA
:03000100281F3C79
:02000500BB85B9
:060008000FC00FE00F40E5
:00000001FF
