:0C00000010EC00F0F9EF12F04BEF05F0EF
:0400180047EF05F0B9
:100020000F01806A896A000E386E000E926E0F0111
:10003000816B8A6B200E396F3F0E936F0F01826ABE
:100040008B6AF80E3A6EF80E946E0F01836A8C6A12
:10005000000E3B6E000E956E0F01846A8D6A3C6A3D
:10006000000E966E740ED36E3E0EC06E000EC16E04
:100070003D0EC26E9D8D9F8D61896289628BF19E5E
:100080008150F290F286F28E0001120051EC00F0E5
:1000900076EC00F09BEC00F0C0EC00F0E5EC00F03A
:1000A00012003D0EC26E830ED56EFD0ED76EDD0EB4
:1000B000D66EF294D58EF2A4FDD7D59E060E826E32
:1000C000C282C2B2FED7C4CF21F0050E826EC282B8
:1000D000C2B2FED7C4CF22F0030E826EC282C2B279
:1000E000FED7C4CF23F0000E826E1200410EC26E06
:1000F000830ED56EFD0ED76EDD0ED66EF294D58EC4
:10010000F2A4FDD7D59E060E826EC282C2B2FED781
:10011000C4CF24F0050E826EC282C2B2FED7C4CF15
:1001200025F0030E826EC282C2B2FED7C4CF26F083
:10013000000E826E1200450EC26E830ED56EFD0E4D
:10014000D76EDD0ED66EF294D58EF2A4FDD7D59E75
:10015000060E826EC282C2B2FED7C4CF27F0050E51
:10016000826EC282C2B2FED7C4CF28F0030E826E66
:10017000C282C2B2FED7C4CF29F0000E826E120036
:10018000490EC26E830ED56EFD0ED76EDD0ED66E95
:10019000F294D58EF2A4FDD7D59E060E826EC28251
:1001A000C2B2FED7C4CF2AF0050E826EC282C2B29E
:1001B000FED7C4CF2BF0030E826EC282C2B2FED72E
:1001C000C4CF2CF0000E826E12004D0EC26E830E54
:1001D000D56EFD0ED76EDD0ED66EF294D58EF2A4DE
:1001E000FDD7D59E060E826EC282C2B2FED7C4CFA4
:1001F0002DF0050E826EC282C2B2FED7C4CF2EF0A1
:10020000030E826EC282C2B2FED7C4CF2FF0000EA0
:10021000826E1200096A0980040E076201D004D0C0
:100220000946E80609A8F9D709C083FF1200056A44
:10023000016A46EC00F0040E076F30C0E8FF216150
:1002400001D004D031C0E8FF216501D015D032C003
:10025000E8FF226101D004D033C0E8FF226501D05D
:100260000BD034C0E8FF236101D004D035C0E8FFD3
:10027000236501D001D083D007073CC0E8FF21618E
:1002800001D004D03DC0E8FF216501D015D03EC0AB
:10029000E8FF226101D004D03FC0E8FF226501D011
:1002A0000BD040C0E8FF236101D004D041C0E8FF7B
:1002B000236501D001D063D0070742C0E8FF216168
:1002C00001D004D043C0E8FF216501D015D044C05F
:1002D000E8FF226101D004D045C0E8FF226501D0CB
:1002E0000BD046C0E8FF236101D004D047C0E8FF2F
:1002F000236501D001D043D0070736C0E8FF216154
:1003000001D004D037C0E8FF216501D015D038C036
:10031000E8FF226101D004D039C0E8FF226501D096
:100320000BD03AC0E8FF236101D004D03BC0E8FF06
:10033000236501D001D023D0070748C0E8FF216121
:1003400001D004D049C0E8FF216501D015D04AC0D2
:10035000E8FF226101D004D04BC0E8FF226501D044
:100360000BD04CC0E8FF236101D004D04DC0E8FFA2
:10037000236501D001D003D0450E076F00D0000ED9
:10038000076201D0012A08C0E8FF076201D0058694
:10039000040E076F4EC0E8FF246101D004D04FC0A7
:1003A000E8FF246501D015D050C0E8FF256101D0D9
:1003B00004D051C0E8FF256501D00BD052C0E8FF42
:1003C000266101D004D053C0E8FF266501D001D0DA
:1003D00083D007075AC0E8FF246101D004D05BC076
:1003E000E8FF246501D015D05CC0E8FF256101D08D
:1003F00004D05DC0E8FF256501D00BD05EC0E8FFEA
:10040000266101D004D05FC0E8FF266501D001D08D
:1004100063D0070760C0E8FF246101D004D061C049
:10042000E8FF246501D015D062C0E8FF256101D046
:1004300004D063C0E8FF256501D00BD064C0E8FF9D
:10044000266101D004D065C0E8FF266501D001D047
:1004500043D0070754C0E8FF246101D004D055C041
:10046000E8FF246501D015D056C0E8FF256101D012
:1004700004D057C0E8FF256501D00BD058C0E8FF75
:10048000266101D004D059C0E8FF266501D001D013
:1004900023D0070766C0E8FF246101D004D067C0FD
:1004A000E8FF246501D015D068C0E8FF256101D0C0
:1004B00004D069C0E8FF256501D00BD06AC0E8FF11
:1004C000266101D004D06BC0E8FF266501D001D0C1
:1004D00003D0450E076F00D0000E076201D0012A3D
:1004E00008C0E8FF076201D00588040E076F6CC0E2
:1004F000E8FF276101D004D06DC0E8FF276501D077
:1005000015D06EC0E8FF286101D004D06FC0E8FFAD
:10051000286501D00BD070C0E8FF296101D004D05C
:1005200071C0E8FF296501D001D083D0070778C0EA
:10053000E8FF276101D004D079C0E8FF276501D02A
:1005400015D07AC0E8FF286101D004D07BC0E8FF55
:10055000286501D00BD07CC0E8FF296101D004D010
:100560007DC0E8FF296501D001D063D007077EC0B8
:10057000E8FF276101D004D07FC0E8FF276501D0E4
:1005800015D080C0E8FF286101D004D081C0E8FF09
:10059000286501D00BD082C0E8FF296101D004D0CA
:1005A00083C0E8FF296501D001D043D0070772C09E
:1005B000E8FF276101D004D073C0E8FF276501D0B0
:1005C00015D074C0E8FF286101D004D075C0E8FFE1
:1005D000286501D00BD076C0E8FF296101D004D096
:1005E00077C0E8FF296501D001D023D0070784C078
:1005F000E8FF276101D004D085C0E8FF276501D05E
:1006000015D086C0E8FF286101D004D087C0E8FF7C
:10061000286501D00BD088C0E8FF296101D004D043
:1006200089C0E8FF296501D001D003D0450E076FCE
:1006300000D0000E076201D0012A08C0E8FF07625F
:1006400001D0058A040E076F8AC0E8FF2A6101D035
:1006500004D08BC0E8FF2A6501D015D08CC0E8FF1C
:100660002B6101D004D08DC0E8FF2B6501D00BD0E9
:100670008EC0E8FF2C6101D004D08FC0E8FF2C654C
:1006800001D001D083D0070796C0E8FF2A6101D0CE
:1006900004D097C0E8FF2A6501D015D098C0E8FFC4
:1006A0002B6101D004D099C0E8FF2B6501D00BD09D
:1006B0009AC0E8FF2C6101D004D09BC0E8FF2C65F4
:1006C00001D001D063D007079CC0E8FF2A6101D0A8
:1006D00004D09DC0E8FF2A6501D015D09EC0E8FF78
:1006E0002B6101D004D09FC0E8FF2B6501D00BD057
:1006F000A0C0E8FF2C6101D004D0A1C0E8FF2C65A8
:1007000001D001D043D0070790C0E8FF2A6101D093
:1007100004D091C0E8FF2A6501D015D092C0E8FF4F
:100720002B6101D004D093C0E8FF2B6501D00BD022
:1007300094C0E8FF2C6101D004D095C0E8FF2C657F
:1007400001D001D023D00707A2C0E8FF2A6101D061
:1007500004D0A3C0E8FF2A6501D015D0A4C0E8FFEB
:100760002B6101D004D0A5C0E8FF2B6501D00BD0D0
:10077000A6C0E8FF2C6101D004D0A7C0E8FF2C651B
:1007800001D001D003D0450E076F00D0000E0762E4
:1007900001D0012A08C0E8FF076201D0058C040ED1
:1007A000076FA8C0E8FF2D6101D004D0A9C0E8FF01
:1007B0002D6501D015D0AAC0E8FF2E6101D004D06C
:1007C000ABC0E8FF2E6501D00BD0ACC0E8FF2F61B5
:1007D00001D004D0ADC0E8FF2F6501D001D083D097
:1007E0000707B4C0E8FF2D6101D004D0B5C0E8FF11
:1007F0002D6501D015D0B6C0E8FF2E6101D004D020
:10080000B7C0E8FF2E6501D00BD0B8C0E8FF2F615C
:1008100001D004D0B9C0E8FF2F6501D001D063D06A
:100820000707BAC0E8FF2D6101D004D0BBC0E8FFC4
:100830002D6501D015D0BCC0E8FF2E6101D004D0D9
:10084000BDC0E8FF2E6501D00BD0BEC0E8FF2F6110
:1008500001D004D0BFC0E8FF2F6501D001D043D044
:100860000707AEC0E8FF2D6101D004D0AFC0E8FF9C
:100870002D6501D015D0B0C0E8FF2E6101D004D0A5
:10088000B1C0E8FF2E6501D00BD0B2C0E8FF2F61E8
:1008900001D004D0B3C0E8FF2F6501D001D023D030
:1008A0000707C0C0E8FF2D6101D004D0C1C0E8FF38
:1008B0002D6501D015D0C2C0E8FF2E6101D004D053
:1008C000C3C0E8FF2E6501D00BD0C4C0E8FF2F6184
:1008D00001D004D0C5C0E8FF2F6501D001D003D0FE
:1008E000450E076F00D0000E076201D0012A08C034
:1008F000E8FF076201D0058E050E016203D0F80EF5
:10090000806EF3EF12F0806A05C080FFB7EC12F042
:10091000120081A001D0000C81A201D0010C81A4A1
:1009200001D0020C81A601D0030C000C89EC04F06C
:10093000086E17EC01F0FAD7120051EC00F0040E2B
:10094000076F30C0E8FF216101D004D031C0E8FF5B
:10095000216501D015D032C0E8FF226101D004D05A
:1009600033C0E8FF226501D00BD034C0E8FF23611B
:1009700001D004D035C0E8FF236501D001D084D078
:1009800007073CC0E8FF216101D004D03DC0E8FF6B
:10099000216501D015D03EC0E8FF226101D004D00E
:1009A0003FC0E8FF226501D00BD040C0E8FF2361C3
:1009B00001D004D041C0E8FF236501D001D064D04C
:1009C000070742C0E8FF216101D004D043C0E8FF1F
:1009D000216501D015D044C0E8FF226101D004D0C8
:1009E00045C0E8FF226501D00BD046C0E8FF236177
:1009F00001D004D047C0E8FF236501D001D044D026
:100A0000070736C0E8FF216101D004D037C0E8FFF6
:100A1000216501D015D038C0E8FF226101D004D093
:100A200039C0E8FF226501D00BD03AC0E8FF23614E
:100A300001D004D03BC0E8FF236501D001D024D011
:100A4000070748C0E8FF216101D004D049C0E8FF92
:100A5000216501D015D04AC0E8FF226101D004D041
:100A60004BC0E8FF226501D00BD04CC0E8FF2361EA
:100A700001D004D04DC0E8FF236501D001D004D0DF
:100A8000450E076F01D059D70AEC01F056D7000088
:100A9000000000001000F2A0ADEF05F081A85BD0CF
:100AA000066601D00DD00682830ED56E600ED76E1D
:100AB000AA0ED66EF294D58EF2A4FDD7D59E4BD059
:100AC0000B6605D004D009C083FF0B6A44D0830EA7
:100AD000D56E600ED76EAA0ED66EF294D58EF2A4A5
:100AE000FDD7D59E830ED56E600ED76EAA0ED66E3C
:100AF000F294D58EF2A4FDD7D59E830ED56E600EEE
:100B0000D76EAA0ED66EF294D58EF2A4FDD7D59EDE
:100B1000830ED56E600ED76EAA0ED66EF294D58E69
:100B2000F2A4FDD7D59E830ED56E600ED76EAA0EA9
:100B3000D66EF294D58EF2A4FDD7D59E830ED56ED7
:100B4000600ED76EAA0ED66EF294D58EF2A4FDD7A3
:100B5000D59E0B2A00D08150F2901000B1EC05F028
:100B60001200836A066A068006C0E8FF838006A238
:100B7000FED7069246EC00F0200E216103D0000E55
:100B8000306F04D021C030F0200E305FDF0E2165C1
:100B900003D0FF0E316F04D021C031F0200E312779
:100BA000200E226103D0000E326F04D022C032F03A
:100BB000200E325FDF0E226503D0FF0E336F04D0AC
:100BC00022C033F0200E3327200E236103D0000E05
:100BD000346F04D023C034F0200E345FDF0E236561
:100BE00003D0FF0E356F04D023C035F0200E35271B
:100BF000200E246103D0000E4E6F04D024C04EF0AE
:100C0000200E4E5FDF0E246503D0FF0E4F6F04D021
:100C100024C04FF0200E4F27200E256103D0000E78
:100C2000506F04D025C050F0200E505FDF0E2565B8
:100C300003D0FF0E516F04D025C051F0200E512774
:100C4000200E266103D0000E526F04D026C052F051
:100C5000200E525FDF0E266503D0FF0E536F04D0C7
:100C600026C053F0200E5327200E276103D0000E1C
:100C70006C6F04D027C06CF0200E6C5FDF0E276510
:100C800003D0FF0E6D6F04D027C06DF0200E6D27CE
:100C9000200E286103D0000E6E6F04D028C06EF0C5
:100CA000200E6E5FDF0E286503D0FF0E6F6F04D03D
:100CB00028C06FF0200E6F27200E296103D0000E90
:100CC000706F04D029C070F0200E705FDF0E2965B0
:100CD00003D0FF0E716F04D029C071F0200E712770
:100CE000200E2A6103D0000E8A6F04D02AC08AF039
:100CF000200E8A5FDF0E2A6503D0FF0E8B6F04D0B3
:100D00002AC08BF0200E8B27200E2B6103D0000E03
:100D10008C6F04D02BC08CF0200E8C5FDF0E2B6507
:100D200003D0FF0E8D6F04D02BC08DF0200E8D27C9
:100D3000200E2C6103D0000E8E6F04D02CC08EF0DC
:100D4000200E8E5FDF0E2C6503D0FF0E8F6F04D058
:100D50002CC08FF0200E8F27200E2D6103D0000EA7
:100D6000A86F04D02DC0A8F0200EA85FDF0E2D655F
:100D700003D0FF0EA96F04D02DC0A9F0200EA92723
:100D8000200E2E6103D0000EAA6F04D02EC0AAF050
:100D9000200EAA5FDF0E2E6503D0FF0EAB6F04D0CE
:100DA0002EC0ABF0200EAB27200E2F6103D0000E1B
:100DB000AC6F04D02FC0ACF0200EAC5FDF0E2F65FF
:100DC00003D0FF0EAD6F04D02FC0ADF0200EAD27C5
:100DD000030E016E010E836E830ED56E600ED76E0C
:100DE000AA0ED66EF294D58EF2A4FDD7D59E836A54
:100DF000830ED56E600ED76EAA0ED66EF294D58E87
:100E0000F2A4FDD7D59E012EE5D706C0E8FF838268
:100E100006A2FED7069246EC00F0200E216103D018
:100E2000000E3C6F04D021C03CF0200E3C5FDF0E72
:100E3000216503D0FF0E3D6F04D021C03DF0200E90
:100E40003D27200E226103D0000E3E6F04D022C049
:100E50003EF0200E3E5FDF0E226503D0FF0E3F6F97
:100E600004D022C03FF0200E3F27200E236103D084
:100E7000000E406F04D023C040F0200E405FDF0E14
:100E8000236503D0FF0E416F04D023C041F0200E34
:100E90004127200E246103D0000E5A6F04D024C0D5
:100EA0005AF0200E5A5FDF0E246503D0FF0E5B6FF1
:100EB00004D024C05BF0200E5B27200E256103D0F8
:100EC000000E5C6F04D025C05CF0200E5C5FDF0E6E
:100ED000256503D0FF0E5D6F04D025C05DF0200EA8
:100EE0005D27200E266103D0000E5E6F04D026C061
:100EF0005EF0200E5E5FDF0E266503D0FF0E5F6F93
:100F000004D026C05FF0200E5F27200E276103D09B
:100F1000000E786F04D027C078F0200E785FDF0EC7
:100F2000276503D0FF0E796F04D027C079F0200E1B
:100F30007927200E286103D0000E7A6F04D028C0D4
:100F40007AF0200E7A5FDF0E286503D0FF0E7B6FEC
:100F500004D028C07BF0200E7B27200E296103D00F
:100F6000000E7C6F04D029C07CF0200E7C5FDF0E69
:100F7000296503D0FF0E7D6F04D029C07DF0200EBF
:100F80007D27200E2A6103D0000E966F04D02AC060
:100F900096F0200E965FDF0E2A6503D0FF0E976F46
:100FA00004D02AC097F0200E9727200E2B6103D083
:100FB000000E986F04D02BC098F0200E985FDF0EC3
:100FC0002B6503D0FF0E996F04D02BC099F0200E33
:100FD0009927200E2C6103D0000E9A6F04D02CC0EC
:100FE0009AF0200E9A5FDF0E2C6503D0FF0E9B6FE8
:100FF00004D02CC09BF0200E9B27200E2D6103D027
:10100000000EB46F04D02DC0B4F0200EB45FDF0E1C
:101010002D6503D0FF0EB56F04D02DC0B5F0200EA6
:10102000B527200E2E6103D0000EB66F04D02EC05F
:10103000B6F0200EB65FDF0E2E6503D0FF0EB76F41
:1010400004D02EC0B7F0200EB727200E2F6103D09A
:10105000000EB86F04D02FC0B8F0200EB85FDF0EBE
:101060002F6503D0FF0EB96F04D02FC0B9F0200E4A
:10107000B927030E016E020E836E830ED56E600ECD
:10108000D76EAA0ED66EF294D58EF2A4FDD7D59E59
:10109000836A830ED56E600ED76EAA0ED66EF2945A
:1010A000D58EF2A4FDD7D59E012EE5D706C0E8FF68
:1010B000838406A2FED7069246EC00F0200E216142
:1010C00003D0000E426F04D021C042F0200E425FD8
:1010D000DF0E216503D0FF0E436F04D021C043F023
:1010E000200E4327200E226103D0000E446F04D04F
:1010F00022C044F0200E445FDF0E226503D0FF0EB5
:10110000456F04D022C045F0200E4527200E2361F4
:1011100003D0000E466F04D023C046F0200E465F79
:10112000DF0E236503D0FF0E476F04D023C047F0C6
:10113000200E4727200E246103D0000E606F04D0DC
:1011400024C060F0200E605FDF0E246503D0FF0E28
:10115000616F04D024C061F0200E6127200E25614C
:1011600003D0000E626F04D025C062F0200E625FD3
:10117000DF0E256503D0FF0E636F04D025C063F03A
:10118000200E6327200E266103D0000E646F04D06A
:1011900026C064F0200E645FDF0E266503D0FF0ECC
:1011A000656F04D026C065F0200E6527200E2761EC
:1011B00003D0000E7E6F04D027C07EF0200E7E5F2D
:1011C000DF0E276503D0FF0E7F6F04D027C07FF0AE
:1011D000200E7F27200E286103D0000E806F04D0E0
:1011E00028C080F0200E805FDF0E286503D0FF0E40
:1011F000816F04D028C081F0200E8127200E296144
:1012000003D0000E826F04D029C082F0200E825FCE
:10121000DF0E296503D0FF0E836F04D029C083F051
:10122000200E8327200E2A6103D0000E9C6F04D06D
:101230002AC09CF0200E9C5FDF0E2A6503D0FF0EB3
:101240009D6F04D02AC09DF0200E9D27200E2B619B
:1012500003D0000E9E6F04D02BC09EF0200E9E5F28
:10126000DF0E2B6503D0FF0E9F6F04D02BC09FF0C5
:10127000200E9F27200E2C6103D0000EA06F04D0FB
:101280002CC0A0F0200EA05FDF0E2C6503D0FF0E57
:10129000A16F04D02CC0A1F0200EA127200E2D613B
:1012A00003D0000EBA6F04D02DC0BAF0200EBA5F82
:1012B000DF0E2D6503D0FF0EBB6F04D02DC0BBF039
:1012C000200EBB27200E2E6103D0000EBC6F04D071
:1012D0002EC0BCF0200EBC5FDF0E2E6503D0FF0ECB
:1012E000BD6F04D02EC0BDF0200EBD27200E2F6193
:1012F00003D0000EBE6F04D02FC0BEF0200EBE5F24
:10130000DF0E2F6503D0FF0EBF6F04D02FC0BFF0DC
:10131000200EBF27030E016E040E836E830ED56E62
:10132000600ED76EAA0ED66EF294D58EF2A4FDD7BB
:10133000D59E836A830ED56E600ED76EAA0ED66ECA
:10134000F294D58EF2A4FDD7D59E012EE5D706C026
:10135000E8FF838806A2FED7069246EC00F0200E36
:10136000216103D0000E486F04D021C048F0200E48
:10137000485FDF0E216503D0FF0E496F04D021C006
:1013800049F0200E4927200E226103D0000E4A6F3B
:1013900004D022C04AF0200E4A5FDF0E226503D03F
:1013A000FF0E4B6F04D022C04BF0200E4B27200EB7
:1013B000236103D0000E4C6F04D023C04CF0200EEC
:1013C0004C5FDF0E236503D0FF0E4D6F04D023C0AA
:1013D0004DF0200E4D27200E246103D0000E666FC5
:1013E00004D024C066F0200E665FDF0E246503D0B3
:1013F000FF0E676F04D024C067F0200E6727200E11
:10140000256103D0000E686F04D025C068F0200E5F
:10141000685FDF0E256503D0FF0E696F04D025C01D
:1014200069F0200E6927200E266103D0000E6A6F36
:1014300004D026C06AF0200E6A5FDF0E266503D056
:10144000FF0E6B6F04D026C06BF0200E6B27200EB2
:10145000276103D0000E846F04D027C084F0200ED3
:10146000845FDF0E276503D0FF0E856F04D027C091
:1014700085F0200E8527200E286103D0000E866F90
:1014800004D028C086F0200E865FDF0E286503D0CA
:10149000FF0E876F04D028C087F0200E8727200E0C
:1014A000296103D0000E886F04D029C088F0200E77
:1014B000885FDF0E296503D0FF0E896F04D029C035
:1014C00089F0200E8927200E2A6103D0000EA26F1A
:1014D00004D02AC0A2F0200EA25FDF0E2A6503D03E
:1014E000FF0EA36F04D02AC0A3F0200EA327200E66
:1014F0002B6103D0000EA46F04D02BC0A4F0200EEB
:10150000A45FDF0E2B6503D0FF0EA56F04D02BC0A8
:10151000A5F0200EA527200E2C6103D0000EA66F8B
:1015200004D02CC0A6F0200EA65FDF0E2C6503D0E1
:10153000FF0EA76F04D02CC0A7F0200EA727200E07
:101540002D6103D0000EC06F04D02DC0C0F0200E5E
:10155000C05FDF0E2D6503D0FF0EC16F04D02DC01C
:10156000C1F0200EC127200E2E6103D0000EC26FE5
:1015700004D02EC0C2F0200EC25FDF0E2E6503D055
:10158000FF0EC36F04D02EC0C3F0200EC327200E61
:101590002F6103D0000EC46F04D02FC0C4F0200E02
:1015A000C45FDF0E2F6503D0FF0EC56F04D02FC0C0
:1015B000C5F0200EC527030E016E100E836E830E3C
:1015C000D56E600ED76EAA0ED66EF294D58EF2A4AA
:1015D000FDD7D59E836A830ED56E600ED76EAA0E98
:1015E000D66EF294D58EF2A4FDD7D59E012EE5D706
:1015F00006C0E8FF838606A2FED7069246EC00F0FE
:10160000200E216103D0000E366F04D021C036F0C9
:10161000200E365FDF0E216503D0FF0E376F04D03A
:1016200021C037F0200E3727200E226103D0000E94
:10163000386F04D022C038F0200E385FDF0E2265EC
:1016400003D0FF0E396F04D022C039F0200E3927A5
:10165000200E236103D0000E3A6F04D023C03AF06D
:10166000200E3A5FDF0E236503D0FF0E3B6F04D0E0
:1016700023C03BF0200E3B27200E246103D0000E38
:10168000546F04D024C054F0200E545FDF0E246544
:1016900003D0FF0E556F04D024C055F0200E5527FF
:1016A000200E256103D0000E566F04D025C056F0E1
:1016B000200E565FDF0E256503D0FF0E576F04D056
:1016C00025C057F0200E5727200E266103D0000EAC
:1016D000586F04D026C058F0200E585FDF0E2665E4
:1016E00003D0FF0E596F04D026C059F0200E5927A1
:1016F000200E276103D0000E726F04D027C072F055
:10170000200E725FDF0E276503D0FF0E736F04D0CB
:1017100027C073F0200E7327200E286103D0000E1F
:10172000746F04D028C074F0200E745FDF0E28653B
:1017300003D0FF0E756F04D028C075F0200E7527FA
:10174000200E296103D0000E766F04D029C076F0F8
:10175000200E765FDF0E296503D0FF0E776F04D071
:1017600029C077F0200E7727200E2A6103D0000EC3
:10177000906F04D02AC090F0200E905FDF0E2A6593
:1017800003D0FF0E916F04D02AC091F0200E912754
:10179000200E2B6103D0000E926F04D02BC092F06C
:1017A000200E925FDF0E2B6503D0FF0E936F04D0E7
:1017B0002BC093F0200E9327200E2C6103D0000E37
:1017C000946F04D02CC094F0200E945FDF0E2C6533
:1017D00003D0FF0E956F04D02CC095F0200E9527F6
:1017E000200E2D6103D0000EAE6F04D02DC0AEF0E0
:1017F000200EAE5FDF0E2D6503D0FF0EAF6F04D05D
:101800002DC0AFF0200EAF27200E2E6103D0000EAA
:10181000B06F04D02EC0B0F0200EB05FDF0E2E658A
:1018200003D0FF0EB16F04D02EC0B1F0200EB1274F
:10183000200E2F6103D0000EB26F04D02FC0B2F083
:10184000200EB25FDF0E2F6503D0FF0EB36F04D002
:101850002FC0B3F0200EB327030E016E080E836E67
:10186000830ED56E600ED76EAA0ED66EF294D58E0C
:10187000F2A4FDD7D59E836A830ED56E600ED76E17
:10188000AA0ED66EF294D58EF2A4FDD7D59E012E67
:10189000E5D7836A066A1200FA0E216E246E276E5F
:1018A0002A6E2D6EFA0E226E256E286E2B6E2E6E0F
:1018B000FA0E236E266E296E2C6E2F6E200E21617D
:1018C00003D0000E306F04D021C030F0200E305F06
:1018D000DF0E216503D0FF0E316F04D021C031F03F
:1018E000200E3127200E226103D0000E326F04D06B
:1018F00022C032F0200E325FDF0E226503D0FF0ED1
:10190000336F04D022C033F0200E3327200E236122
:1019100003D0000E346F04D023C034F0200E345FA7
:10192000DF0E236503D0FF0E356F04D023C035F0E2
:10193000200E3527200E246103D0000E4E6F04D0F8
:1019400024C04EF0200E4E5FDF0E246503D0FF0E44
:101950004F6F04D024C04FF0200E4F27200E25617A
:1019600003D0000E506F04D025C050F0200E505F01
:10197000DF0E256503D0FF0E516F04D025C051F056
:10198000200E5127200E266103D0000E526F04D086
:1019900026C052F0200E525FDF0E266503D0FF0EE8
:1019A000536F04D026C053F0200E5327200E27611A
:1019B00003D0000E6C6F04D027C06CF0200E6C5F5B
:1019C000DF0E276503D0FF0E6D6F04D027C06DF0CA
:1019D000200E6D27200E286103D0000E6E6F04D0FC
:1019E00028C06EF0200E6E5FDF0E286503D0FF0E5C
:1019F0006F6F04D028C06FF0200E6F27200E296172
:101A000003D0000E706F04D029C070F0200E705FFC
:101A1000DF0E296503D0FF0E716F04D029C071F06D
:101A2000200E7127200E2A6103D0000E8A6F04D089
:101A30002AC08AF0200E8A5FDF0E2A6503D0FF0ECF
:101A40008B6F04D02AC08BF0200E8B27200E2B61C9
:101A500003D0000E8C6F04D02BC08CF0200E8C5F56
:101A6000DF0E2B6503D0FF0E8D6F04D02BC08DF0E1
:101A7000200E8D27200E2C6103D0000E8E6F04D017
:101A80002CC08EF0200E8E5FDF0E2C6503D0FF0E73
:101A90008F6F04D02CC08FF0200E8F27200E2D6169
:101AA00003D0000EA86F04D02DC0A8F0200EA85FB0
:101AB000DF0E2D6503D0FF0EA96F04D02DC0A9F055
:101AC000200EA927200E2E6103D0000EAA6F04D08D
:101AD0002EC0AAF0200EAA5FDF0E2E6503D0FF0EE7
:101AE000AB6F04D02EC0ABF0200EAB27200E2F61C1
:101AF00003D0000EAC6F04D02FC0ACF0200EAC5F52
:101B0000DF0E2F6503D0FF0EAD6F04D02FC0ADF0F8
:101B1000200EAD27080E216E246E276E2A6E2D6EC4
:101B20000A0E226E256E286E2B6E2E6E0F0E236E01
:101B3000266E296E2C6E2F6E200E216103D0000EB2
:101B4000486F04D021C048F0200E485FDF0E2165A9
:101B500003D0FF0E496F04D021C049F0200E492761
:101B6000200E226103D0000E4A6F04D022C04AF03A
:101B7000200E4A5FDF0E226503D0FF0E4B6F04D0AC
:101B800022C04BF0200E4B27200E236103D0000E05
:101B90004C6F04D023C04CF0200E4C5FDF0E236549
:101BA00003D0FF0E4D6F04D023C04DF0200E4D2703
:101BB000200E246103D0000E666F04D024C066F0AE
:101BC000200E665FDF0E246503D0FF0E676F04D022
:101BD00024C067F0200E6727200E256103D0000E79
:101BE000686F04D025C068F0200E685FDF0E2565A1
:101BF00003D0FF0E696F04D025C069F0200E69275D
:101C0000200E266103D0000E6A6F04D026C06AF051
:101C1000200E6A5FDF0E266503D0FF0E6B6F04D0C7
:101C200026C06BF0200E6B27200E276103D0000E1C
:101C3000846F04D027C084F0200E845FDF0E2765F8
:101C400003D0FF0E856F04D027C085F0200E8527B6
:101C5000200E286103D0000E866F04D028C086F0C5
:101C6000200E865FDF0E286503D0FF0E876F04D03D
:101C700028C087F0200E8727200E296103D0000E90
:101C8000886F04D029C088F0200E885FDF0E296598
:101C900003D0FF0E896F04D029C089F0200E892758
:101CA000200E2A6103D0000EA26F04D02AC0A2F039
:101CB000200EA25FDF0E2A6503D0FF0EA36F04D0B3
:101CC0002AC0A3F0200EA327200E2B6103D0000E04
:101CD000A46F04D02BC0A4F0200EA45FDF0E2B65F0
:101CE00003D0FF0EA56F04D02BC0A5F0200EA527B2
:101CF000200E2C6103D0000EA66F04D02CC0A6F0DD
:101D0000200EA65FDF0E2C6503D0FF0EA76F04D058
:101D10002CC0A7F0200EA727200E2D6103D0000EA7
:101D2000C06F04D02DC0C0F0200EC05FDF0E2D6547
:101D300003D0FF0EC16F04D02DC0C1F0200EC1270B
:101D4000200E2E6103D0000EC26F04D02EC0C2F050
:101D5000200EC25FDF0E2E6503D0FF0EC36F04D0CE
:101D60002EC0C3F0200EC327200E2F6103D0000E1B
:101D7000C46F04D02FC0C4F0200EC45FDF0E2F65E7
:101D800003D0FF0EC56F04D02FC0C5F0200EC527AD
:101D9000EE0E216E246E276E2A6E2D6E270E226E99
:101DA000256E286E2B6E2E6E320E236E266E296ED9
:101DB0002C6E2F6E200E216103D0000E366F04D0E2
:101DC00021C036F0200E365FDF0E216503D0FF0EF6
:101DD000376F04D021C037F0200E3727200E226144
:101DE00003D0000E386F04D022C038F0200E385FC8
:101DF000DF0E226503D0FF0E396F04D022C039F008
:101E0000200E3927200E236103D0000E3A6F04D034
:101E100023C03AF0200E3A5FDF0E236503D0FF0E99
:101E20003B6F04D023C03BF0200E3B27200E2461E3
:101E300003D0000E546F04D024C054F0200E545F21
:101E4000DF0E246503D0FF0E556F04D024C055F07B
:101E5000200E5527200E256103D0000E566F04D0AA
:101E600025C056F0200E565FDF0E256503D0FF0E0D
:101E7000576F04D025C057F0200E5727200E26613B
:101E800003D0000E586F04D026C058F0200E585FC3
:101E9000DF0E266503D0FF0E596F04D026C059F01F
:101EA000200E5927200E276103D0000E726F04D038
:101EB00027C072F0200E725FDF0E276503D0FF0E81
:101EC000736F04D027C073F0200E7327200E286193
:101ED00003D0000E746F04D028C074F0200E745F1D
:101EE000DF0E286503D0FF0E756F04D028C075F093
:101EF000200E7527200E296103D0000E766F04D0C6
:101F000029C076F0200E765FDF0E296503D0FF0E24
:101F1000776F04D029C077F0200E7727200E2A6132
:101F200003D0000E906F04D02AC090F0200E905F76
:101F3000DF0E2A6503D0FF0E916F04D02AC091F006
:101F4000200E9127200E2B6103D0000E926F04D03B
:101F50002BC092F0200E925FDF0E2B6503D0FF0E98
:101F6000936F04D02BC093F0200E9327200E2C618A
:101F700003D0000E946F04D02CC094F0200E945F18
:101F8000DF0E2C6503D0FF0E956F04D02CC095F0AA
:101F9000200E9527200E2D6103D0000EAE6F04D0C9
:101FA0002DC0AEF0200EAE5FDF0E2D6503D0FF0E0C
:101FB000AF6F04D02DC0AFF0200EAF27200E2E61E2
:101FC00003D0000EB06F04D02EC0B0F0200EB05F72
:101FD000DF0E2E6503D0FF0EB16F04D02EC0B1F01E
:101FE000200EB127200E2F6103D0000EB26F04D057
:101FF0002FC0B2F0200EB25FDF0E2F6503D0FF0EB0
:10200000B36F04D02FC0B3F0200EB327620E216E41
:10201000246E276E2A6E2D6EE00E226E256E286EBF
:102020002B6E2E6E3F0E236E266E296E2C6E2F6E3B
:10203000200E216103D0000E3C6F04D021C03CF083
:10204000200E3C5FDF0E216503D0FF0E3D6F04D0F4
:1020500021C03DF0200E3D27200E226103D0000E4E
:102060003E6F04D022C03EF0200E3E5FDF0E2265A0
:1020700003D0FF0E3F6F04D022C03FF0200E3F2759
:10208000200E236103D0000E406F04D023C040F027
:10209000200E405FDF0E236503D0FF0E416F04D09A
:1020A00023C041F0200E4127200E246103D0000EF2
:1020B0005A6F04D024C05AF0200E5A5FDF0E2465F8
:1020C00003D0FF0E5B6F04D024C05BF0200E5B27B3
:1020D000200E256103D0000E5C6F04D025C05CF09B
:1020E000200E5C5FDF0E256503D0FF0E5D6F04D010
:1020F00025C05DF0200E5D27200E266103D0000E66
:102100005E6F04D026C05EF0200E5E5FDF0E266597
:1021100003D0FF0E5F6F04D026C05FF0200E5F2754
:10212000200E276103D0000E786F04D027C078F00E
:10213000200E785FDF0E276503D0FF0E796F04D085
:1021400027C079F0200E7927200E286103D0000ED9
:102150007A6F04D028C07AF0200E7A5FDF0E2865EF
:1021600003D0FF0E7B6F04D028C07BF0200E7B27AE
:10217000200E296103D0000E7C6F04D029C07CF0B2
:10218000200E7C5FDF0E296503D0FF0E7D6F04D02B
:1021900029C07DF0200E7D27200E2A6103D0000E7D
:1021A000966F04D02AC096F0200E965FDF0E2A6547
:1021B00003D0FF0E976F04D02AC097F0200E972708
:1021C000200E2B6103D0000E986F04D02BC098F026
:1021D000200E985FDF0E2B6503D0FF0E996F04D0A1
:1021E0002BC099F0200E9927200E2C6103D0000EF1
:1021F0009A6F04D02CC09AF0200E9A5FDF0E2C65E7
:1022000003D0FF0E9B6F04D02CC09BF0200E9B27A9
:10221000200E2D6103D0000EB46F04D02DC0B4F099
:10222000200EB45FDF0E2D6503D0FF0EB56F04D016
:102230002DC0B5F0200EB527200E2E6103D0000E64
:10224000B66F04D02EC0B6F0200EB65FDF0E2E653E
:1022500003D0FF0EB76F04D02EC0B7F0200EB72703
:10226000200E2F6103D0000EB86F04D02FC0B8F03D
:10227000200EB85FDF0E2F6503D0FF0EB96F04D0BC
:102280002FC0B9F0200EB9271E0E216E246E276EC6
:102290002A6E2D6E440E226E256E286E2B6E2E6ECB
:1022A000CC0E236E266E296E2C6E2F6E200E2161B1
:1022B00003D0000E426F04D021C042F0200E425FD6
:1022C000DF0E216503D0FF0E436F04D021C043F021
:1022D000200E4327200E226103D0000E446F04D04D
:1022E00022C044F0200E445FDF0E226503D0FF0EB3
:1022F000456F04D022C045F0200E4527200E2361F3
:1023000003D0000E466F04D023C046F0200E465F77
:10231000DF0E236503D0FF0E476F04D023C047F0C4
:10232000200E4727200E246103D0000E606F04D0DA
:1023300024C060F0200E605FDF0E246503D0FF0E26
:10234000616F04D024C061F0200E6127200E25614A
:1023500003D0000E626F04D025C062F0200E625FD1
:10236000DF0E256503D0FF0E636F04D025C063F038
:10237000200E6327200E266103D0000E646F04D068
:1023800026C064F0200E645FDF0E266503D0FF0ECA
:10239000656F04D026C065F0200E6527200E2761EA
:1023A00003D0000E7E6F04D027C07EF0200E7E5F2B
:1023B000DF0E276503D0FF0E7F6F04D027C07FF0AC
:1023C000200E7F27200E286103D0000E806F04D0DE
:1023D00028C080F0200E805FDF0E286503D0FF0E3E
:1023E000816F04D028C081F0200E8127200E296142
:1023F00003D0000E826F04D029C082F0200E825FCD
:10240000DF0E296503D0FF0E836F04D029C083F04F
:10241000200E8327200E2A6103D0000E9C6F04D06B
:102420002AC09CF0200E9C5FDF0E2A6503D0FF0EB1
:102430009D6F04D02AC09DF0200E9D27200E2B6199
:1024400003D0000E9E6F04D02BC09EF0200E9E5F26
:10245000DF0E2B6503D0FF0E9F6F04D02BC09FF0C3
:10246000200E9F27200E2C6103D0000EA06F04D0F9
:102470002CC0A0F0200EA05FDF0E2C6503D0FF0E55
:10248000A16F04D02CC0A1F0200EA127200E2D6139
:1024900003D0000EBA6F04D02DC0BAF0200EBA5F80
:1024A000DF0E2D6503D0FF0EBB6F04D02DC0BBF037
:1024B000200EBB27200E2E6103D0000EBC6F04D06F
:1024C0002EC0BCF0200EBC5FDF0E2E6503D0FF0EC9
:1024D000BD6F04D02EC0BDF0200EBD27200E2F6191
:1024E00003D0000EBE6F04D02FC0BEF0200EBE5F22
:1024F000DF0E2F6503D0FF0EBF6F04D02FC0BFF0DB
:10250000200EBF271200E5EC00F02DC083FF830EE4
:10251000D56E600ED76EAA0ED66EF294D58EF2A44A
:10252000FDD7D59E2EC083FF830ED56E600ED76E6D
:10253000AA0ED66EF294D58EF2A4FDD7D59E2FC0EA
:1025400083FF830ED56E600ED76EAA0ED66EF29400
:10255000D58EF2A4FDD7D59E836AD5D751EC00F075
:10256000C4CF83FF066A068006A2FED7F7D70550C0
:10257000800A2AE00550C00A27E00550E00A24E05E
:102580000550F00A21E00550080A21E00550180A1C
:102590001EE00550380A1BE00550780A18E0055087
:1025A000400A18E00550600A15E00550100A15E0D1
:1025B0000550300A12E00550200A12E00550700A5A
:1025C0000FE0F6EF12F01200010E8C6E1200100EEA
:1025D0008C6E1200020E8C6E1200080E8C6E1200B1
:1025E000040E8C6E1200200E8C6E1200400E8C6E4B
:1025F0001200B1EC05F096EC04F0FDD700D000001D
:02260000FED703
:020000040030CA
:03000100281F3C79
:02000500BB85B9
:060008000FC00FE00F40E5
:00000001FF
